:020000040800F2
:10000000283A0020D5360008390800083B080008C7
:100010003F080008430800084708000800000000E7
:100020000000000000000000000000004B08000875
:100030004D080008000000002F050108A553000826
:10004000EF360008EF360008EF360008EF360008FC
:10005000EF360008EF360008BF26000867270008C3
:10006000EF360008EF36000849270008EF36000891
:10007000EF360008EF360008EF360008EF360008CC
:10008000EF360008EF360008EF360008EF360008BC
:10009000EF360008EF360008EF360008412600086A
:1000A000EF360008EF360008EF360008EF3600089C
:1000B000EF360008AB300008EF360008EF360008D6
:1000C000EF360008EF360008EF360008EF3600087C
:1000D000EF360008A15500088131000853360008AA
:1000E000DF260008EF360008EF360008EF3600087C
:1000F000EF360008EF360008EF360008EF3600084C
:10010000EF360008EF360008EF360008EF3600083B
:10011000EF360008EF360008EF360008EF3600082B
:10012000EF360008EF360008EF360008EF3600081B
:10013000EF360008EF360008EF360008EF3600080B
:10014000EF360008EF360008EF360008EF360008FB
:10015000EF360008EF360008EF360008EF360008EB
:10016000EF360008EF360008EF360008EF360008DB
:10017000EF360008EF360008EF360008EF360008CB
:10018000EF360008EF36000800F002F800F05FF8E4
:100190000AA090E8000C82448344AAF10107DA45E2
:1001A00001D100F054F8AFF2090EBAE80F0013F0D5
:1001B000010F18BFFB1A43F001031847A8280100DC
:1001C000C82801000A4410F8014B14F00F0508BFBD
:1001D00010F8015B240908BF10F8014B6D1E05D013
:1001E00010F8013B6D1E01F8013BF9D1641E03D0EC
:1001F000641E01F8015BFBD19142E4D3704700001B
:100200000023002400250026103A28BF78C1FBD81F
:10021000520728BF30C148BF0B60704764290EF0F9
:10022000EB86002070471FB512F099F80FF00AFB1B
:1002300004000020002111F0C3F9401C6060002080
:10024000002111F0A7F9E0601FBD10B510BD0FF03F
:100250002FF81146FFF7E7FF00F060FA0FF0A8FA59
:1002600003B4FFF7F2FF03BC05F02EF90EB50CE066
:1002700002F001F801F086FF02A8002105230A46DA
:10028000CDE9001008460DF0B6FDF1E70EB50024EB
:10029000A2E0F6480078002848D100BF00BF00BFA8
:1002A00005F000FC044600BF00BFF1480078401C88
:1002B000EF49087000BF00BF204605F0F7FB00BF04
:1002C00000BF00BF03F00EF800BF00BF00BF05F085
:1002D000E9FB044600BF00BFE5480078401EE44942
:1002E000087008460078A0B9E2480088002809DDB7
:1002F00000BF00BF204605F0D9FB00BF00BF07F0DC
:100300007DFE0DE000BF00BF204605F0CFFB00BF23
:1003100006E000BF00BF204605F0C8FB00BF00BFDD
:1003200000BF02F020FF0120D0490870D2480078B9
:10033000002848D100BF00BF00BF05F0B3FB044652
:1003400000BF00BFCA480078401CC949087000BF00
:1003500000BF204605F0AAFB00BF00BF00BF05F0AC
:1003600098F900BF00BF00BF05F09CFB044600BF2A
:1003700000BFBF480078401EBD490870084600789D
:10038000A0B9BC480088002809DD00BF00BF204696
:1003900005F08CFB00BF00BF07F030FE0DE000BF92
:1003A00000BF204605F082FB00BF06E000BF00BF93
:1003B000204605F07BFB00BF00BF00BF05F0E3F85F
:1003C0000120AD49087002A8002105230A46CDE9A5
:1003D000001008460DF00FFD5BE70EB500244CE061
:1003E00000BF00BF00BF05F05DFB044600BF00BFBB
:1003F0009F480078401C9E49087000BF00BF2046FF
:1004000005F054FB00BF00BF00BF02F06BF800BF57
:1004100000BF00BF05F046FB044600BF00BF944884
:100420000078401E9249087008460078A0B99148AB
:100430000088002809DD00BF00BF204605F036FB1C
:1004400000BF00BF07F0DAFD0DE000BF00BF20468F
:1004500005F02CFB00BF06E000BF00BF204605F002
:1004600025FB00BF00BF00BF02A8002114230A46DD
:10047000CDE9001008460DF0BEFCB1E70EB50BE06B
:1004800002F0C8F802A800214FF4FA730A46CDE939
:10049000001008460DF0AFFCF2E730B58BB0044613
:1004A000002500BF05F0C6F90AA80BF030F90AAA2A
:1004B0000121084607F0B9F90AAB01226FA1714882
:1004C0000AF099FC0AAB00226FA1744807F017FFED
:1004D00000BF00BF00BF05F0E5FA054600BF00BF42
:1004E00063480078401C6249087000BF00BF28467E
:1004F00005F0DCFA00BF00BF00BF0AA803210022FC
:100500000592CDE906210890104680210C22644B0B
:10051000CDE90132CDE9031006200023AFF2A3029A
:1005200060A1009062480BF0CBFC0AA803210022D6
:100530000592CDE906210890104680210C225D4BE2
:10054000CDE90132CDE9031006200023AFF2751288
:1005500059A100905B480BF0B3FC0AA803210022CC
:100560000592CDE906210890104680210C22564BB9
:10057000CDE90132CDE9031006200023AFF2F322CA
:1005800052A1009056480BF09BFC0AA803210022C0
:100590000592CDE90621089010464FF4807119228A
:1005A000504BCDE90132CDE9031005200023AFF215
:1005B00043324DA100904F480BF082FC00BF00BFBA
:1005C00000BF05F06FFA054600BF00BF284800785D
:1005D000401E2749087008460078A0B925480088C1
:1005E000002809DD00BF00BF284605F05FFA00BF04
:1005F00000BF07F003FD0DE000BF00BF284605F077
:1006000055FA00BF06E000BF00BF284605F04EFACD
:1006100000BF00BF00BF0AA900200BF0A5FD0BB072
:1006200030BD10B5A82004F0C9FE4FF4A06003F05F
:1006300071F801F0D1FF4FF4E13004F052FF2E4881
:1006400002F040FD4FF4E13002F04AFF052140F690
:10065000EF2002F07BF902F04AFB02F0A0F827A09D
:100660000EF076FC01200149087010BDE00000206A
:10067000B001002074010020330100204D79205387
:10068000656D0000E81100207573617274325F6659
:100690006C6167735F67726F75700000681200208D
:1006A0009C0500206C6564207461736B0000000081
:1006B000D8040020600800207072696E7420746194
:1006C000736B00009C070020240B002047657374A7
:1006D0007572655F4368616E67655F7461736B0017
:1006E000600A0020E80D00206374726C207461734E
:1006F0006B000000240D002074B701007065726962
:1007000070686572616C7320696E697420636F6DC7
:10071000706C6574652E2E2E0D0A000010B58AB01F
:100720000024FFF77EFF09A806F056FE00BF00BFB9
:1007300000BF05F0B7F9044600BF00BF3548007898
:10074000401C3449087000BF00BF204605F0AEF9D8
:1007500000BF00BF00BF09A8032100220592CDE918
:1007600006210890104680210C222B4BCDE9013246
:10077000CDE9031003200023AFF2E12227A100906E
:1007800029480BF09DFB00BF00BF00BF05F08AF9B0
:10079000044600BF00BF1F480078401E1D49087076
:1007A00008460078A0B921480088002809DD00BF6C
:1007B00000BF204605F07AF900BF00BF07F01EFC1D
:1007C0000DE000BF00BF204605F070F900BF06E055
:1007D00000BF00BF204605F069F900BF00BF00BFA1
:1007E00009A807F0C2F800200AB010BD10B51048E3
:1007F000007870B902F076FD0E4890ED040A80EDA5
:100800000A0A90ED040AD0ED0A0A30EE600A80ED83
:10081000040A10BDB0010020D80200207374617278
:1008200074207461736B00001402002074010020B6
:10083000E000002090120020704700BFFEE700BFDC
:10084000FEE700BFFEE700BFFEE77047704700000D
:100850000CB50020019000907648006840F480308C
:100860007449086000BF7348006800F400300090CD
:100870000198401C0190009818B90198B0F5A04F5C
:10088000F1D16C48006800F4003010B101200090F4
:1008900001E0002000900098012846D165484030D2
:1008A000006840F080506349403108606248006849
:1008B00040F44040604908605E48083000685D4987
:1008C000083108600846006840F4004008600846A7
:1008D000006840F4A05008605848091F0860081FCD
:1008E000006840F08070091F086000BF5148006830
:1008F00000F000700028F9D040F2057050490860FF
:100900004C480830006820F003004A49083108606C
:100910000846006840F00200086000BF4548083003
:10092000006800F00C000828F8D10CBD10B545484F
:10093000006840F47000434908603E48006840F099
:1009400001003C49086000203A49083108603948F4
:1009500000683D490840374908603C48091D086067
:10096000081F006820F48020091F0860002031491A
:100970000C310860FFF76CFF4FF00060314980399F
:10098000086010BD70B5002000220223002402215F
:10099000284D08352D6805F00C0020B1042806D03C
:1009A000082834D107E02A4D2A4E356033E02A4D1D
:1009B000284E35602FE01F4D2D1D2D68C5F3805446
:1009C0001C4D2D1D2D6805F03F0154B1224DB5FB86
:1009D000F1F5184E361D3668C6F3881605FB06F28B
:1009E00009E01B4DB5FBF1F5124E361D3668C6F316
:1009F000881605FB06F20F4D2D1D2D68C5F3014528
:100A00006D1C6B00B2FBF3F5124E356003E0104D28
:100A1000104E356000BF00BF064D08352D68C5F388
:100A200003150E4E705D0B4D2D68C540094E3560A7
:100A300070BD0000003802400070004019544007AB
:100A4000003C024088ED00E0FFFFF6FE103000247D
:100A50000024F4000000002040787D010400002004
:100A6000B5EEC00AF1EE10FA03D2F1EE400AB0EE94
:100A7000600A7047F0EE400A9FED130A20EE801ADC
:100A8000DFED121A81EE210A7047F0EE400A9FED69
:100A90000F0A20EE801ADFED0C1A81EE210A704752
:100AA00030B5024600240023107855782844957804
:100AB000441908784D7828448D7843199C4201D117
:100AC000002030BD0120FCE7D00F49400000344336
:100AD00010B52DED068B044694ED000ADFEDFB0A00
:100AE00020EE200ADFEDFA0A80EE201AB0EE419ADD
:100AF00094ED010ADFEDF50A20EE200ADFEDF40A9D
:100B000080EE201AF0EE419A94ED020ADFEDEF0A32
:100B100020EE200ADFEDEE0A80EE201AB0EE41AAA8
:100B2000EC4890ED070AF0EE400A0120B0EE490AC9
:100B300002F0EBF8F0EE40AAE74890ED000A30EE44
:100B40002A0A80ED000AB5EEC09AF1EE10FA03D140
:100B50009FEDE20A80ED000ADF4890ED000ADFED2C
:100B6000E00AB4EEE00AF1EE10FA04DD9FEDDC0AD3
:100B700080ED000A0DE0D84890ED000ADFEDD90ABB
:100B8000B4EEE00AF1EE10FA03D29FEDD60A80ED42
:100B9000000AD04890ED080AF0EE400A0220B0EEBC
:100BA000690A02F0B2F8B0EE408ACF4890ED000A30
:100BB00030EE080A80ED000AF5EEC09AF1EE10FA68
:100BC00003D19FEDC60A80ED000AC74890ED000AE8
:100BD000DFEDC30AB4EEE00AF1EE10FA04DD9FED9A
:100BE000C00A80ED000A0DE0BF4890ED000ADFED7D
:100BF000BD0AB4EEE00AF1EE10FA03D29FEDB90A95
:100C000080ED000AB34890ED090AF0EE400A032097
:100C1000B0EE4A0A02F079F8F0EE408AB34890ED5F
:100C2000000A30EE280A80ED000AB5EEC0AAF1EE07
:100C300010FA03D19FEDA90A80ED000AAB4890EDB0
:100C4000000ADFEDA70AB4EEE00AF1EE10FA04DDC7
:100C50009FEDA30A80ED000A0DE0A44890ED000A84
:100C6000DFEDA00AB4EEE00AF1EE10FA03D29FED38
:100C70009D0A80ED000A0120974991ED000A01F0DC
:100C8000A7FF0220984991ED000A01F0A1FF03207F
:100C9000964991ED000A01F09BFFBDEC068B10BD5B
:100CA00070B52DED108B82B005460C46B7EE000AEC
:100CB000B0EE408A002695ED020ADFED8D0A20EEA7
:100CC000200AF0EE000A20EE200A10EE101A084664
:100CD00011F0D4FA41EC1A0B95ED010A10EE101A3E
:100CE000084611F0CBFA41EC1E0B9FED820B0FF082
:100CF0002BFF8DED000B9FED810B53EC102B9DED29
:100D0000000B51EC100B10F06BFD41EC1F0B53EC82
:100D10001E2B10F0BDFF41EC1C0B95ED000AFEEE02
:100D2000000A20EE200A10EE101A084611F0A6FA6A
:100D300041EC1D0B53EC1C2B10F096FC41EC1B0BF3
:100D400053EC1A2B10F090FC41EC190B10F05AFCEC
:100D5000206095ED020ADFED660A20EE200AF0EE33
:100D6000000A20EE200A10EE101A084611F086FA4A
:100D700041EC1A0B95ED010A10EE101A084611F01D
:100D80007DFA9FED5C0BCDE900010FF0DDFEB0EECA
:100D900040FAF0EE60FA9FED590B53EC102B51EC3A
:100DA0001F0B10F01DFD41EC1E0B9DED000B53ECD5
:100DB000102B10F06DFF41EC1C0B95ED000AFEEEC0
:100DC000000A20EE200A10EE101A084611F056FA1A
:100DD00041EC1D0B53EC1C2B11F066F941EC1B0B85
:100DE00053EC1A2B10F040FC41EC190B10F00AFCEC
:100DF000A06095ED000AD5ED020A9FED3D1A60EE68
:100E0000810AB0EE001A00EE810A84ED010AD4EDE9
:100E1000000AB0EE600AFFF723FEDFED3A0AB4EEF7
:100E2000E00AF1EE10FA08DB94ED000ADFED350A76
:100E300080EE201AB0EE418A2AE0D4ED010AB0EE2D
:100E4000600AFFF70DFEDFED2F0AB4EEE00AF1EEC7
:100E500010FA08DB94ED010ADFED2A0A80EE201A71
:100E6000B0EE418A14E0D4ED020AB0EE600AFFF75A
:100E7000F7FDDFED240AB4EEE00AF1EE10FA07DB2D
:100E800094ED020ADFED1F0A80EE201AB0EE418ACF
:100E9000B5EEC08AF1EE10FA03D2B1EE480AB0EE18
:100EA000408A00260BE004EB860090ED000AC0EEBD
:100EB000080A04EB8600C0ED000A701CC6B2032EBF
:100EC000F1DB02B0BDEC108B70BD00000060DB46B2
:100ED00054363643901200204400002000000000E9
:100EE0000000AF440000AFC4480000204C000020C8
:100EF0008FC2F53D00000000000008400000000027
:100F0000000000400080224400B52DED0A8B81B026
:100F1000B0EE409A9FEDFE0AF0EE40AA1FED110AD6
:100F2000B0EE40BAB1EE080AF0EE40BA1FED150A75
:100F3000F0EE409A1FED170AB0EE40CA1FED190AF5
:100F4000F0EE40CA1FED1B0AB0EE40AA68460DF055
:100F50002BF900EE100AB8EE400AF1EE040A20EE7A
:100F6000200ADFEDEC0A80EE201AB0EE41AAEA4832
:100F700090ED000A3AEE400AF0EE40CA80ED00AA79
:100F8000E64890ED040A39EE400AB0EE408A39EEA8
:100F9000880AF0EE409AE24890ED000A38EE400AE6
:100FA000B0EE40CA2BEE8C0AC0EE2C0A2AEE880A5C
:100FB0000BEE290A30EE800AF0EE408A9FEDD90A46
:100FC000F4EEC08AF1EE10FA04DB9FEDD60AF0EEE3
:100FD000408A0AE09FEDD40AF4EEC08AF1EE10FADE
:100FE00003D29FEDD10AF0EE408ACD4880ED008A11
:100FF000B1EE680A01B0BDEC0A8B00BD2DE9F043EB
:101000002DED108B8BB0B0EE408A04461FED4D0ADB
:1010100010EE105A1FED4F0A10EE106A1FED510A24
:1010200010EE107A1FED530AF0EE408A1FED550ABC
:1010300010EE108A1FED570A10EE109A1FED590A94
:101040008DED0A0AB5EEC08AF1EE10FA2EDB14B16E
:10105000012C2AD110E09FEDB50A10EE105A9FED39
:10106000B40A10EE106A9FEDB30A10EE107A9FEDED
:10107000B20AF0EE408A18E09FEDB00A10EE105A66
:101080009FEDAF0A10EE106A9FEDAE0A10EE107AD7
:101090009FEDAD0A10EE108A9FEDAC0A10EE109A8B
:1010A0009FEDAB0AF0EE408A00BF2EE014B1012C98
:1010B0002AD110E09FEDA70A10EE105A9FEDA60A64
:1010C00010EE106A9FEDA50A10EE107A9FEDA40AAB
:1010D000F0EE408A18E09FEDA30A10EE105A9FED43
:1010E000A20A10EE106A9FEDA10A10EE107A9FED91
:1010F000A00A10EE108A9FED9F0A10EE109A9FED45
:101100009E0AF0EE408A00BF00BF14B1012C7DD1D1
:1011100050E028EE880A10EE101A084611F0AEF8DA
:1011200041EC1E0BB0EE4E0AF0EE6E0A0FF0A8FC7A
:10113000B0EE40CAF0EE60CA384611F09FF841ECBC
:101140001D0B53EC1C2B10F0A3FD41EC1A0B28EEE9
:10115000880A10EE101A084611F090F841EC1F0BA7
:10116000B0EE4F0AF0EE6F0A0FF0BEFB8DED080BEC
:10117000304611F083F841EC1E0B9DED080B53EC4B
:10118000102B10F085FD41EC1C0B284611F076F871
:1011900041EC1D0B53EC1C2B10F066FA41EC1B0BC1
:1011A00053EC1A2B10F060FA41EC190B10F02AFAEC
:1011B0000A9000BFB0EE000A28EE000A20EE280ACE
:1011C00010EE101A084611F059F841EC1C0BB0EE65
:1011D0004C0AF0EE6C0A0FF053FCB0EE40AAF0EEB1
:1011E00060AA484611F04AF841EC1B0B53EC1A2B4D
:1011F00010F04EFD41EC190BB0EE000A28EE000A8B
:1012000020EE280A10EE101A084600E0BEE011F0A9
:1012100035F841EC1C0BB0EE4C0AF0EE6C0A0FF006
:1012200063FBB0EE40AAF0EE60AA404611F026F84B
:1012300041EC1B0B53EC1A2B10F02AFD28EE880A08
:10124000CDE9040110EE101A084611F017F841EC30
:101250001D0BB0EE4D0AF0EE6D0A0FF011FCB0EE72
:1012600040BAF0EE60BA384611F008F841EC1C0BB9
:1012700053EC1B2B10F00CFD41EC1A0B28EE880AE6
:1012800010EE101A084610F0F9FF41EC1E0BB0EEFC
:101290004E0AF0EE6E0A0FF027FBB0EE40DAF0EEE9
:1012A00060DA304610F0EAFF41EC1F0B53EC1D2BC7
:1012B00010F0EEFC41EC1B0B284610F0DFFF41EC78
:1012C0001C0B53EC1B2B10F0CFF953EC1A2BCDE970
:1012D00000019DED000B51EC100B10F0C5F9CDE9AC
:1012E00002019DED040B53EC102B9DED020B51EC14
:1012F000100B10F0B9F953EC192BCDE906019DED57
:10130000060B51EC100B10F0AFF9CDE9080135E0F8
:1013100000008C4200007A4454000020901200200B
:101320005000002000004844000048C43D0A6740C7
:10133000D12287C0E17A5DC29CC4803F295C12C281
:1013400033337F4148E15CC2D7A3A4418FC26D41D2
:1013500033C4213F355EDE40FCA9B5C014AE69C27E
:101360005BB17F3FA4705FC2F2D20D40508DF73F5A
:101370009A995742000044C1AAF1023F9DED080B23
:1013800051EC100B10F03EF90A9000BF00BF9DED2C
:101390000A0A0BB0BDEC108BBDE8F083F0B52DED63
:1013A000108B85B004460D46F0EE408A9FEDFE0A94
:1013B00010EE106A9FEDFC0AF0EE40EA9FEDFA0A8B
:1013C0008DED030A9FEDF80AB0EE409A9FEDF60A04
:1013D000F0EE409A9FEDF40AB0EE408A9FEDF20ADB
:1013E000F0EE40AA9FEDF00AB0EE40AA9FEDEE0AA3
:1013F0008DED020A9FEDEC0AF0EE40DA9FEDEA0A6D
:10140000B0EE40DA9FEDE80AB0EE40EA04A80CF036
:10141000CBFE00EE100AB8EE400AF1EE040A20EE10
:10142000200A5FED440A80EE201AB0EE41EADF4860
:1014300090ED000A3EEE400AB0EE40DA80ED00EAA0
:1014400094ED000AB8EEC00ADFEDD90A20EE200ABA
:10145000B0EE40AA94ED010AB8EEC00ADFEDD40A5E
:1014600020EE200AF0EE40AA8AEE8D0A8DED020AE7
:101470008AEE0D0AF0EE40DAF0EE6A9AB0EE4A8A91
:1014800088EE290A10EE107A384610F0F7FE41EC8B
:101490001C0BB0EE4C0AF0EE6C0A0FF09DF8B0EEAB
:1014A00040BAF0EE60BA51EC1B0B10F0ABF809EE4D
:1014B000100A9FEDC00A28EE800ADFEDBF0A80EE19
:1014C000201AF0EE418A29EEA90A08EE080A10EE69
:1014D000101A084610F0D2FE41EC1C0BB0EE4C0A7C
:1014E000F0EE6C0A0FF030FBB0EE40BAF0EE60BAEE
:1014F00051EC1B0B10F086F806469DED020A20EE1B
:10150000000A0DEEAD0A10EE101A084610F0B6FEF5
:1015100041EC1C0BB0EE4C0AF0EE6C0A0FF014FB21
:10152000B0EE40BAF0EE60BA51EC1B0B10F06AF866
:10153000A2498860B5EEC08AF1EE10FA0BDBF5EE39
:10154000C09AF1EE10FA06D29FED9D0A39EE000A1C
:10155000B0EE409A2DE0B5EEC08AF1EE10FA0BD253
:10156000F5EEC09AF1EE10FA06D29FED960A39EE2A
:10157000400AB0EE409A1CE0F5EEC09AF1EE10FA87
:1015800009D1B5EEC08AF1EE10FA04DB9FED8E0AA8
:10159000B0EE409A0DE0F5EEC09AF1EE10FA08D1E7
:1015A000B5EEC08AF1EE10FA03D29FED880AB0EED4
:1015B000409A39EE280A10EE101A084610F05EFE26
:1015C00041EC1F0BB0EE4F0AF0EE6F0A0FF08CF9F2
:1015D0008DED000B304610F051FE41EC1C0B9DEDE3
:1015E000000B53EC102B10F053FB41EC1B0B10F0D5
:1015F00009F8039039EE280A10EE101A084610F088
:101600003DFECDE900019DED000B0FF039FAB0EE83
:1016100040BAF0EE60BA304610F030FE41EC1F0BDD
:1016200053EC1B2B10F034FB41EC1C0B0FF0EAFFCA
:101630000EEE900A39EE280A10EE101A084610F045
:101640001DFE41EC1C0BB0EE4C0AF0EE6C0A0FF0E4
:101650004BF9B0EE40FAF0EE60FA584890ED020A0D
:1016600010EE101A084610F009FE41EC1B0B53EC6B
:101670001F2B10F00DFBCDE900019DED000B51EC8F
:10168000100B0FF0BFFF4D49086039EE280A10EE2D
:10169000101A084610F0F2FD41EC1B0BB0EE4B0A9D
:1016A000F0EE6B0A0FF0ECF9B0EE40CAF0EE60CA53
:1016B000424890ED020A10EE101A084610F0DEFDC6
:1016C00041EC1F0B53EC1C2B10F0E2FACDE90001AA
:1016D0009DED000B51EC100B0FF094FF3749486063
:1016E000084690ED000A3A48D0ED000A30EE600A54
:1016F000C0EE0D0A3748C0ED000A084690ED010A19
:101700003348D0ED010A30EE600AC0EE0D0A3148D0
:10171000C0ED010A084690ED000A2D4880ED000A50
:10172000084690ED010A2A4880ED010A2A48D0EDCA
:10173000000A9DED030A30EE800A284880ED000A79
:10174000274890ED000A30EE2E0A244880ED010A69
:101750000020B0EE680AFFF751FCBDEEC00A10EEA3
:10176000100A00B200EE100AB8EEC00A1B48D0ED15
:10177000000A30EEC00A85ED000A0120B0EE680ACA
:10178000FFF73CFCBDEEC00A10EE100A00B200EEFE
:10179000100AB8EEC00A1148D0ED010A30EEC00AB6
:1017A00085ED010A1EE0000000000000700000202E
:1017B000C37DF43DC3F5484000003443F4120020DB
:1017C000DA0F4940D00F4940C3F5C83FC3F5C8BF41
:1017D0006000002000130020580000206800002056
:1017E0005C00002090ED000AFE4880ED000AFE48F3
:1017F00090ED010AFD4880ED000A05B0BDEC108BAC
:10180000F0BD70B52DED108B82B0B0EE408A04466D
:101810001FED1B0A10EE105A1FED1D0AF0EE408A54
:101820001FED1F0AB0EE40FA1FED210A10EE106AFC
:101830001FED230AF0EE40FA1FED250A8DED010A97
:101840001FED270A8DED000A5FED220A88EE200ABF
:101850005FED270A20EE200AB0EE408AB5EEC08A7E
:10186000F1EE10FA36DB14B1012C32D118E09FED05
:10187000E00A10EE105A9FEDDF0AF0EE408A9FED6D
:10188000DE0AB0EE40FA9FEDDD0A10EE106A9FED21
:10189000DC0AF0EE40FA9FEDDB0A8DED010A18E05C
:1018A0009FEDD90A10EE105A9FEDD80AF0EE408A4B
:1018B0009FEDD70AB0EE40FA9FEDD60A10EE106AFF
:1018C0009FEDD50AF0EE40FA9FEDD40A8DED010AA6
:1018D00000BF36E014B1012C32D118E09FEDD00AE0
:1018E00010EE105A9FEDCF0AF0EE408A9FEDCE0A1F
:1018F000B0EE40FA9FEDCD0A10EE106A9FEDCC0AD3
:10190000F0EE40FA9FEDCB0A8DED010A18E09FED55
:10191000CA0A10EE105A9FEDC90AF0EE408A9FEDF8
:10192000C80AB0EE40FA9FEDC70A10EE106A9FEDAC
:10193000C60AF0EE40FA9FEDC50A8DED010A00BF20
:1019400000BF9DED010A0FEE880A10EE101A08463E
:1019500010F094FC41EC1E0BB0EE4E0AF0EE6E0A55
:101960000FF08EF8B0EE40CAF0EE60CA304610F0CC
:1019700085FC41EC1D0B53EC1C2B10F089F941EC5C
:101980001A0BB0EE4F0A08EE880A10EE101A08463D
:1019900010F074FC41EC1E0BB0EE4E0AF0EE6E0A35
:1019A0000FF06EF8B0EE40CAF0EE60CA284610F0B4
:1019B00065FC41EC1D0B53EC1C2B10F069F941EC5C
:1019C0001B0B53EC1A2B0FF04FFE41EC190B0FF0D1
:1019D00019FE00909DED000A02B0BDEC108B70BDA9
:1019E00010B52DED108B82B00446B0EE000AB0EEBB
:1019F00040BA1FED930AF0EE40BA9FED950AB0EEA3
:101A000040CAB0EE000AF0EE40CA1FED990AB0EEEF
:101A100040DA9FED8F0AF0EE40DA1FED9D0AB0EE3E
:101A2000409A1FED9F0AB0EE40EA1FEDA10AF0EECA
:101A300040EA1FEDA30AB0EE40FA1FEDA50AF0EE52
:101A400040FA1FEDA70A8DED000A1FEDA90AB0EEBE
:101A500040AA1FEDAB0AF0EE40AA14B1012C72D1DE
:101A600038E001A80CF0A0FB00EE100AB8EE400A26
:101A7000F1EE040A20EE200ADFED760A80EE201A4D
:101A8000B0EE41AA744890ED000A3AEE400A8DED9E
:101A9000000A80ED00AA7148B0F9000000EE100ABB
:101AA000F8EEC00A6E48B0F9000000EE100AB8EE79
:101AB000C00A70EEC08A6B4890ED000A78EEC09ABA
:101AC000F0EE4BEAB0EE6BFAF0EE4CFA664890EDB1
:101AD000008A38E001A80CF067FB00EE100AB8EEAF
:101AE000400AF1EE040A20EE200ADFED5A0A80EEE9
:101AF000201AF0EE41AA5D4890ED000A3AEEC00AC5
:101B00008DED000AC0ED00AA5448B0F9020000EEC5
:101B1000100AF8EEC00A5248B0F9020000EE100AAE
:101B2000B8EEC00A70EEC08A514890ED000A78EE17
:101B3000C09AF0EE6CEAB0EE4DFAF0EE6DFA4D4858
:101B400090ED008A00BF00BF38EE280AB0EE408A50
:101B50009FED490AB4EEC08AF1EE10FA04DD9FED64
:101B6000460AB0EE408A0AE09FED440AB4EEC08A0D
:101B7000F1EE10FA03D29FED410AB0EE408AB0EECA
:101B8000680AFEF76DFFB0EE40EAB2EE040AB4EE6A
:101B9000C0EAF1EE10FA24D814B1012C1CD10DE0EA
:101BA0009FED370A304880ED000AB6EE000AB0EE2D
:101BB00040BA9FED330AB0EE40CA0DE09FED300A07
:101BC0002C4880ED000AB6EE000AF0EE40CA9FED08
:101BD0002C0AF0EE40DA00BF00BF9FED290AB0EEFC
:101BE000409A4FE058000020680000205C00002070
:101BF000F628624280608E3CD34D42C06666D04279
:101C00005F48E238CBA1454052B8AA423718EA3BB8
:101C1000871631C0AE4708425D8AAB3C5C8F923F6D
:101C2000295C6E42C2A38D3CA24546C04A0C0841C5
:101C30006002B73BB81E5DC03D0A9042B3EF8A39DF
:101C40003B015DBF333361426492913C9EEF8FC094
:101C5000ACC5273700007A4484000020BC12002065
:101C6000901200207C0000207400002088000020DA
:101C700080000020780000200000FA440000FAC430
:101C8000000000002FEEA91A9DED000AC1EE000A27
:101C90002EEEA80A0FEE480A30EE600AB0EE409A27
:101CA00014B1012C08D103E0FE4880ED008A03E066
:101CB000FD4880ED008A00BF00BF9FEDFC0AB4EE36
:101CC000C09AF1EE10FA04DD9FEDF80AB0EE409AEA
:101CD0000AE09FEDF70AB4EEC09AF1EE10FA03D2D3
:101CE0009FEDF30AB0EE409AB0EE490A02B0BDECA7
:101CF000108B10BDDFEDEF6AB0EE661ADFEDEE6A15
:101D0000F0EE661ADFEDED6AB0EE662ADFEDE96A05
:101D1000F0EE662ADFEDE86AB0EE663ADFEDE76ADC
:101D2000F0EE663A5FED2A6AB0EE660A5FED2C6A65
:101D3000F0EE660A5FED2E6AB0EE664A5FED306A3D
:101D4000F0EE664A5FED326AB0EE665A5FED346AD5
:101D5000F0EE665A5FED366AB0EE666A10B10128A1
:101D600054D129E0D649D1ED016AD64991ED017AE5
:101D700076EEC76AF0EE660AD34991ED007AF0EE8E
:101D8000007AF0EE606A47EEC76AD04991ED007ABA
:101D900076EE876AF0EE664AB0EE415AF0EE615A8E
:101DA000B0EE426AC849D1ED006AC849C1ED006A87
:101DB000C549C1ED000A29E0C149D1ED026AC14916
:101DC00091ED027A76EEC76AF0EE660AC04991EDAF
:101DD000007AF0EE007AF0EE606A47EEC76ABD491D
:101DE00091ED007A76EE876AF0EE664AB0EE625ABE
:101DF000F0EE435AB0EE636AB549D1ED006AB549D9
:101E0000C1ED006AB249C1ED000A00BF00BF70EE2B
:101E1000C46A66EE856A45EEA06A46EE246AB0EEB4
:101E2000660AF3EE046AB4EEE60AF1EE10FA04DD97
:101E3000F3EE046AB0EE660A0AE0FBEE046AB4EE62
:101E4000E60AF1EE10FA03D2FBEE046AB0EE660A7F
:101E5000704770B52DED108B82B00020FFF74AFF60
:101E600010EE105A0120FFF745FF10EE106A95485A
:101E7000D0ED040AB0EE600AFEF7FCFD10EE104A49
:101E8000304610F0FBF941EC1D0B204610F0F6F93E
:101E900041EC1F0BB0EE4F0AF0EE6F0A0EF0F0FDB2
:101EA000B0EE40EAF0EE60EA53EC1D2B51EC1E0B55
:101EB0000FF0EEFE41EC1B0B284610F0DFF941EC71
:101EC0001D0B204610F0DAF941EC1F0BB0EE4F0A63
:101ED000F0EE6F0A0EF008FDB0EE40EAF0EE60EAB8
:101EE00053EC1D2B51EC1E0B0FF0D2FE41EC1C0BE2
:101EF00053EC1B2B0FF0B8FB41EC190B764890ED1F
:101F0000000A10EE101A084610F0B8F941EC1A0B4E
:101F100053EC192B0FF0A8FB41EC180B0FF072FBE0
:101F20006D490860304610F0A9F941EC1D0B2046C0
:101F300010F0A4F941EC1F0BB0EE4F0AF0EE6F0A5F
:101F40000EF0D2FCB0EE40EAF0EE60EA53EC1D2B4E
:101F500051EC1E0B0FF09CFE41EC1B0B284610F0C1
:101F60008DF941EC1D0B204610F088F941EC1F0B58
:101F7000B0EE4F0AF0EE6F0A0EF082FD8DED000B11
:101F80009DED000B51EC100B0FF030FB41EC1E0BE4
:101F900053EC1D2B0FF07CFE41EC1C0B53EC1B2B68
:101FA0000FF062FB41EC190B4B4890ED010A10EE6B
:101FB000101A084610F062F941EC1A0B53EC192B79
:101FC0000FF052FB41EC180B0FF01CFB424948602C
:101FD0003C4800883A4908803A484088488002B026
:101FE000BDEC108B70BD70B52DED108B3548D0ED6C
:101FF000040AB0EE600AFEF73DFD10EE104A002024
:10200000FFF7EEFC10EE105A0120FFF7E9FC10EE8E
:10201000106A2C4890ED010A294880ED010A2948F0
:1020200090ED020A264880ED020A304610F026F9AB
:1020300041EC1C0B204610F021F941EC1E0BB0EED8
:102040004E0AF0EE6E0A0EF01BFDB0EE40DAF0EE36
:1020500060DA53EC1C2B51EC1D0B0FF019FE41EC18
:102060001A0B284610F00AF941EC1C0B204610F020
:1020700005F941EC1E0BB0EE4E0AF0EE6E0A0EF0C2
:1020800033FCB0EE40DAF0EE60DA53EC1C2B51EC8E
:102090001D0B0FF0FDFD41EC1B0B53EC1A2B0FF049
:1020A000E3FA1BE074000020780000200000E14308
:1020B0000000E1C3A69B443C6F12033A0AD7A33D3C
:1020C000BC120020901200208C0000209400002000
:1020D0009000002098000020E812002041EC190B2D
:1020E0000FF090FA08EE100A304610F0C7F841ECF5
:1020F0001C0B204610F0C2F841EC1E0BB0EE4E0A4D
:10210000F0EE6E0A0EF0F0FBB0EE40DAF0EE60DAC0
:1021100053EC1C2B51EC1D0B0FF0BAFD41EC1A0BCC
:10212000284610F0ABF841EC1C0B204610F0A6F846
:1021300041EC1F0BB0EE4F0AF0EE6F0A0EF0A0FC60
:10214000B0EE40EAF0EE60EA51EC1E0B0FF04EFAF2
:1021500041EC1D0B53EC1C2B0FF09AFD41EC1B0BBB
:1021600053EC1A2B0FF080FA41EC190B0FF04AFADE
:1021700008EE900AA54880ED008AC0ED018ABDEC0A
:10218000108B70BD0EB50020009001900290A04809
:102190000078012802D1FFF726FF04E09C48007870
:1021A00008B9FFF756FE9B48D0ED040AB0EE600A6E
:1021B000FEF7AAFE954880ED020A90ED010ADFEDD8
:1021C000960AB4EEE00AF1EE10FA04DB9FED920AF3
:1021D00080ED010A0DE08D4890ED010ADFED8F0AD8
:1021E000B4EEE00AF1EE10FA03D89FED8C0A80ED10
:1021F000010A864890ED000ADFED870AB4EEE00A96
:10220000F1EE10FA04DB9FED840A80ED000A0DE088
:102210007E4890ED000ADFED810AB4EEE00AF1EEAF
:1022200010FA03D89FED7D0A80ED000A774890ED03
:10223000020ADFED790AB4EEE00AF1EE10FA04DBEF
:102240009FED750A80ED020A0DE0704890ED020ADC
:10225000DFED720AB4EEE00AF1EE10FA03D89FED5A
:102260006F0A80ED020A69466848FEF719FD684664
:10227000FEF72EFC0EBD00B52DED088B83B09FED53
:10228000680AB0EE408A9FED660AB0EE40AA02A846
:102290000BF08AFF00EE100AB8EE400AF1EE040AD5
:1022A00020EE200ADFED5F0A80EE201AB0EE41AA90
:1022B0005D4890ED000A3AEE400AB0EE408A80EDAB
:1022C00000AA5A4890ED000AB8EEC00A5848D0ED6E
:1022D000000A30EE600ABDEEC00A8DED000A5548D6
:1022E00090ED000AB8EEC00A5348D0ED000A30EE77
:1022F000600ABDEEC00A8DED010A5048D0ED040A17
:10230000B0EE600A4E496846FFF748F8474890ED3E
:10231000000AB8EEC00A464880ED000A454890ED34
:10232000000AB8EEC00A444880ED000A444890ED27
:10233000000ABDEEC00A10EE100A00B23F49088044
:102340003F4890ED010ABDEEC00A10EE100A00B23F
:1023500048803C4890ED000A084680ED010A394863
:1023600090ED010A084680ED020A374890ED000A18
:10237000084680ED050A344890ED010A084680EDD4
:10238000060A324890ED000AB8EEC00AF0EE408A24
:102390002F4890ED000AB8EEC00AB0EE409A2D48E2
:1023A00090ED000AB8EEC00AF0EE409A2A4890ED8F
:1023B000000A38EEC00AF0EE40AA284890ED000A64
:1023C00039EE400AB0EE40BA254890ED000A39EEE9
:1023D000C00AF0EE40BA8AEE880A084680ED070A85
:1023E0008BEE080A80ED080A8BEE880A80ED090A58
:1023F0001948C0ED008A194880ED009A1848C0EDD0
:10240000009A03B0BDEC088B00BD0000E81200206C
:102410003C000020BC12002000802244008022C426
:102420000000000000007A44B800002028000020CE
:10243000A800002024000020AC0000209012002002
:10244000B0000020F412002000130020140000202F
:10245000180000201C0000209C000020A00000208C
:10246000A40000200246002003E000231354431C74
:10247000D8B20728F9DB002003E000230B54431CEB
:10248000D8B20328F9DB70472DE9F0412DED028B1E
:10249000B0EE408A06460D4600270024BDEEC80A6D
:1024A00010EE104A00EE904AF8EEE00A78EE600A6C
:1024B0009FED451A60EE810AB0EE600AFEF7D0FA91
:1024C000BDEEC00A10EE107A224640A130460CF054
:1024D0004BFD3A463DA128460CF046FDBDEC028B73
:1024E000BDE8F08100B587B000200590069004900B
:1024F00002900390009001903548B0F9002033A17C
:1025000002A80CF031FD3248B0F902202FA1684634
:102510000CF02AFD2FA003F090F802A803F08DF82C
:10252000684603F08AF82A48D0ED040AB0EE600A43
:1025300004A905A8FFF7A8FF05A803F07EF804A8E2
:1025400003F07BF804A905A8FFF78CFF2048D0ED25
:10255000010AB0EE600A04A905A8FFF795FF05A8D7
:1025600003F06BF804A803F068F804A905A8FFF7C6
:1025700079FF1748D0ED020AB0EE600A04A905A859
:10258000FFF782FF05A803F058F804A803F055F8F8
:1025900004A905A8FFF766FF0D48D0ED030AB0EEC9
:1025A000600A04A905A8FFF76FFF05A803F045F826
:1025B00004A803F042F804A905A8FFF753FF03F0AD
:1025C00053F807B000BD00000000C84225640000B9
:1025D00090120020494D55001CB50121022001F048
:1025E0002DFC4FF40070009001208DF804000020B5
:1025F0008DF8060003208DF8050001208DF80700F6
:1026000069460D4801F07CF94FF400710A4801F069
:10261000F3F91CBD0948006808B9012000E000205A
:10262000064908607047002004490860704701208F
:10263000024908607047000000040240A482404242
:1026400010B504F05FFF402002F086FE88B1A84874
:10265000006828B1A7480068401CA649086004E04B
:10266000A4480068401EA3490860402002F07FFE95
:1026700022E04FF4007002F06FFE98B19C48001DFC
:10268000006828B19C480068401E9B49086004E02F
:1026900099480068401C984908604FF4007002F0A7
:1026A00066FE09E0202002F057FE28B193A00CF04E
:1026B0004FFC202002F05BFE04F035FF10BD10B58A
:1026C00004F020FF012002F047FE28B190A00CF09A
:1026D0003FFC012002F04BFE04F025FF10BD10B5B9
:1026E00004F010FF4FF4006002F036FE90B18D4808
:1026F000006828B18C480068401C8B49086004E0E1
:1027000089480068401E884908604FF4006002F064
:102710002EFE16E04FF4804002F01EFE88B1834882
:10272000006828B182480068401E8149086004E0C2
:102730007F480068401C7E4908604FF4804002F0EA
:1027400016FE04F0F0FE10BD10B504F0DBFE102004
:1027500002F002FE20B177480068102002F007FE68
:1027600004F0E1FE10BD10B504F0CCFE022002F032
:10277000F3FD88B16D480C38006828B16E480068D8
:10278000401E6D49086004E06B480068401C6A49BF
:102790000860022002F0EBFD04F0C5FE10BD00B59C
:1027A00085B001210E2001F049FB44F2F130009088
:1027B00000208DF8040003208DF8050001208DF81D
:1027C000070069465D4801F09BF84FF440600090B7
:1027D00000208DF8040003208DF8050001208DF8FD
:1027E00007006946564801F08BF8012000906946C1
:1027F000544801F085F84A2000906946524801F09B
:102800007FF84FF470714D4801F0F6F84FF44061D5
:102810004B4801F0F1F801214A4801F0EDF84A2156
:10282000494801F0E9F80121880301F061FB062124
:10283000022001F068FC0921022001F064FC002163
:10284000022001F060FC0521022001F05CFC0B215C
:10285000032001F058FC0421022001F054FC0E2159
:10286000022001F050FC0121042001F04CFC44F650
:102870007320029000208DF80C000C208DF80D00C4
:1028800001208DF80E0002A802F000FD17208DF83F
:10289000100000208DF8110002208DF81200012098
:1028A0008DF8130004A800F03AFF0A208DF81000FC
:1028B00004A800F034FF07208DF8100004A800F0F1
:1028C0002EFF06208DF8100004A800F028FF282015
:1028D0008DF8100000208DF8110002208DF81200F4
:1028E00001208DF8130004A800F019FF05B000BD09
:1028F0001C02414218000020140000206F6E20745A
:10290000686520746F70206E6F77210D0A000000DB
:102910006F6E20626F74746F6D206E6F77210D0A79
:1029200000000000288241421C00002018024242A0
:1029300024000020008240422800002000080240BD
:10294000000C0240000402400010024030B58BB081
:1029500004460D460121084601F0CAFA0121102063
:1029600001F06CFA01220921FE4801F054F801221D
:102970000B21FC4801F04FF84FF420600990022031
:102980008DF8280003208DF8290000208DF82A00FA
:1029900001208DF82B0009A9F24800F0B1FFA72013
:1029A000ADF818000020ADF81A0044F61F6007903B
:1029B0000020ADF8200006A9EB4801F0B4FE70201D
:1029C000ADF804000120ADF806000220ADF81000BB
:1029D00001A9E54801F03CFF01A9E34801F071FFBE
:1029E0000121E14802F019FB0821DF4802F0BDF89F
:1029F0000821DD4802F0C2F80121DB4801F0FEFEAB
:102A00000121D94801F018FF0121082001F05FFAE7
:102A10000121052001F012FA02220021D34800F022
:102A2000FAFF02220121D14800F0F5FF02221146EF
:102A3000CE4800F0F0FF02220321CC4800F0EBFF6B
:102A40000F20099002208DF8280003208DF829001E
:102A500000208DF82A0001208DF82B0009A9C34819
:102A600000F04EFF0C20099001208DF8280009A9E4
:102A7000BF4800F045FF3020099009A9BB4800F08D
:102A80003FFF0220ADF818000020ADF81A0040F218
:102A9000775007900020ADF8200006A9B54801F056
:102AA00042FE7020ADF804000120ADF806000220BF
:102AB000ADF8100001A9AF4801F0CAFE01A9AD4868
:102AC00001F0FFFE01A9AB4801F048FF01A9A948A8
:102AD00001F0AAFF0121A74802F09FFA0821A548AA
:102AE00002F043F80821A34802F048F80821A14861
:102AF00002F051F808219F4802F056F801219D4844
:102B000001F07CFE01219B4801F096FE0BB030BD28
:102B100070B504460D463DB92146964801F0F3FFD5
:102B200000209549086009E0012D07D1C4F5AF6187
:102B3000904801F0E8FF01208F49086070BD70B532
:102B400004460D46012D07D121468A4801F0DFFFDA
:102B500000208A49086008E03DB9C4F5AF618548A6
:102B600001F0D5FF01208549086070BD70B50446AD
:102B70000D464DB9C4F5AF617E4801F0C6FF012096
:102B80007E49091F086009E0012D07D121467948D7
:102B900001F0BBFF00207949091F086070BD70B5C6
:102BA00004460D4645B92146724801F0AAFF0020AF
:102BB0007149091F08600AE0012D08D1C4F5AF6111
:102BC0006C4801F09EFF01206B49091F086070BD31
:102BD00010B52DED028BB0EE408A0446F0EE488A27
:102BE000B5EEC08AF1EE10FA03D2B1EE680AF0EE4B
:102BF000408A012C04D0022C1ED0032C54D137E083
:102C0000B5EEC08AF1EE10FA08DBBCEEE80A10EE71
:102C1000101A88B20121FFF7C2FF0CE0B5EEC08A9E
:102C2000F1EE10FA07D2BCEEE80A10EE101A88B2E4
:102C30000021FFF7B4FF37E0B5EEC08AF1EE10FADD
:102C400008DBBCEEE80A10EE101A88B20121FFF78B
:102C50005FFF0CE0B5EEC08AF1EE10FA07D2BCEED1
:102C6000E80A10EE101A88B20021FFF751FF1BE0AE
:102C7000B5EEC08AF1EE10FA08DBBCEEE80A10EE01
:102C8000101A88B20121FFF771FF0CE0B5EEC08A7F
:102C9000F1EE10FA07D2BCEEE80A10EE101A88B274
:102CA0000021FFF763FF00BF00BFBDEC028B10BD2A
:102CB000012806D0022809D003280CD0042814D1FA
:102CC0000EE000212B4A343211600EE00021294A27
:102CD0003832116009E00021264A3C32116004E0DC
:102CE0000021244A4032116000BF00BF704700B588
:102CF0000120FFF7DDFF0220FFF7DAFF0320FFF7D7
:102D0000D7FF0420FFF7D4FF00BD2DE9F0412DEDE2
:102D1000108B90B0F0EE40BAF0EE60DA05469FED11
:102D2000180AF0EE40FA9FED170A10EE106A9FEDB8
:102D3000160A8DED0E0A9FED120A8DED0D0A9FED1C
:102D4000110A10EE107A9FED100A8DED0C0A9FED1E
:102D50000C0A8DED0B0A9FED0B0A10EE108A9FED09
:102D60000A0A13E000100240000001400000024087
:102D700000080240000C00408C0241429402404294
:102D80006C09793A95BFD63382A8FB378DED0A0AD4
:102D90009FEDA20AB0EE40DA9FEDA00AB0EE40EA45
:102DA0009FED9E0AF0EE40EA9FED9C0AB0EE40FADD
:102DB0009FED9B0AF4EEC0BAF1EE10FA0ED29FED31
:102DC000970A984880ED000A9FED940A964880ED96
:102DD000000A9FED920A954880ED000A3BEEED8ACD
:102DE000012D04D0022D2FD0032D2CD159E00FA896
:102DF0000BF0DAF900EE100AB8EE400AF1EE040A20
:102E000020EE200ADFED8A0A80EE201AB0EE41EAB9
:102E1000884890ED000A3EEE400AB0EE40DA80EDC0
:102E200000EA854890ED000A38EE400A80EE0DAACF
:102E3000F0EE6FAA34469DED0EBA7A4800680FF0A6
:102E40001DFA41EC190B59E00FA80BF0ADF900EE9B
:102E5000100AB8EE400AF1EE040A20EE200ADFED77
:102E6000740A80EE201AF0EE41EA744890ED000AF0
:102E70003EEEC00AB0EE40DAC0ED00EA704890EDD8
:102E8000000A38EE400A80EE0DAADDED0DAA3C46A0
:102E90009DED0CBA644800680FF0F0F941EC190B95
:102EA0002CE00FA80BF080F900EE100AB8EE400AF3
:102EB000F1EE040A20EE200ADFED5D0A80EE201A12
:102EC000B0EE41FA5F4890ED000A3FEE400AB0EEE6
:102ED00040DA80ED00FA5C4890ED000A38EE400AD6
:102EE00080EE0DAADDED0BAA44469DED0ABA4F48CF
:102EF00000680FF0C3F941EC190B00BF00BF18EEDA
:102F0000100A0FF0BBF941EC1C0B53EC192B0EF01F
:102F1000ABFB41EC190B2BEE0A0A10EE101A084617
:102F20000FF0ACF9CDE9060120460FF0A7F953ECFC
:102F3000192BCDE900019DED000B51EC100B0EF0AB
:102F4000A7FE41EC1C0B2AEE880A10EE101A084668
:102F50000FF094F953EC1C2BCDE902019DED020B0F
:102F600051EC100B0EF080FBCDE904019DED060B3A
:102F700053EC102B9DED040B51EC100B0EF074FB79
:102F8000CDE908019DED080B51EC100B0EF03AFB5A
:102F900008EE900A012D04D0022D0CD0032D1ED175
:102FA00013E051EC190B0EF02DFB1E49086022486E
:102FB00080ED008A13E051EC190B0EF023FB1A4947
:102FC00008601F4880ED008A09E051EC190B0EF0F3
:102FD00019FB164908601C4880ED008A00BF00BF3D
:102FE0009FED1A0AF4EEC08AF1EE10FA04DD9FEDAF
:102FF000170AF0EE408A0AE09FED150AF4EEC08A47
:10300000F1EE10FA03D29FED120AF0EE408AB0EE14
:10301000680A10B0BDEC108BBDE8F0810000000024
:103020000000C842BC000020C0000020C4000020F6
:1030300000007A44D4000020C8000020D8000020FE
:10304000CC000020DC000020D00000200000AF44B5
:103050000000AFC47FB505460C460121022000F0F8
:1030600036FF0295ADF804400020ADF80600ADF83B
:103070000C0001A9124801F056FB0122114610482C
:1030800001F0F2FF01210E4801F0D6FB1D208DF862
:10309000000000208DF801008DF8020001208DF85D
:1030A0000300684600F03BFB7FBD10B501210448DA
:1030B00001F0F1FF0121024801F0FEFF10BD000008
:1030C0000004004010B588B004460121082000F03B
:1030D000B5FE0121480400F0FAFE07220521E94867
:1030E00000F099FC07220621E64800F094FC6020DD
:1030F000069002208DF81C008DF81D0000208DF830
:103100001E0001208DF81F0006A9DE4800F0F8FB24
:1031100002940020ADF80C00ADF80E00ADF81000E0
:10312000ADF814000C20ADF8120002A9D64801F049
:103130008AF80121D44801F00EF9012240F225510C
:10314000D14801F0BEF926208DF8040000208DF84A
:1031500005008DF8060001208DF8070001A800F099
:10316000DEFA08B010BD002004E00021C74A115467
:10317000411CC8B20B28F8DB0021C54A117070470A
:1031800010B504F0BFF940F22551BF4801F0D4F961
:10319000F8B1C048007800B3BB48001D0088BB49A7
:1031A000BB4A12788854BA480078401CB849087065
:1031B000B6480078552801D0FFF7D5FFB44800780D
:1031C0000B2812D1B1480078552803D10020B1490D
:1031D00008700AE0FFF7C7FF07E0AB48001D008852
:1031E000C1B2AA48AA4A1278815404F09CF910BDD1
:1031F00000BFA549098801F040010029F9D0A24982
:10320000091D0880704700B502461078FFF7F0FFEF
:103210005078FFF7EDFF00BD00B5024603E01078DF
:10322000FFF7E6FF521C10780028F8D100BD00B56A
:103230000246002305E01078FFF7DAFF521C581C05
:10324000C3B20B2BF7DB00BD10B52DED028B9FED4C
:10325000920AB0EE408A914890ED000A904880EDC5
:10326000000A90ED000A8F48D0ED000A30EE600AA7
:10327000B0EE408AB0EE480AFDF7F2FBDFED8A0AB5
:10328000B4EEE00AF1EE10FA1CDD854890ED000A7C
:10329000B5EEC00AF1EE10FA0AD2B0EE480AFDF718
:1032A000DFFBDFED820A30EEC00AB0EE408A09E0B3
:1032B000B0EE480AFDF7D4FBDFED7C0A30EE600A81
:1032C000B0EE408A7A4890ED000A30EE080A80EDB0
:1032D000000A734890ED000A724880ED000ABDECC8
:1032E000028B10BD10B569484078512802D0532890
:1032F00064D164E06548C078000200B2634989780F
:10330000084300EE100AB8EEC00ADFED6A0A80EE4C
:10331000201AB1EE000A21EE000ADFED670A20EE66
:10332000200A664880ED000A58484079000200B241
:1033300056490979084300EE100AB8EEC00ADFEDDD
:103340005D0A80EE201AB1EE000A21EE000ADFEDE0
:103350005A0A20EE200A5A4880ED000A4B48C079EC
:10336000000200B249498979084300EE100AB8EE1C
:10337000C00ADFED500A80EE201AB1EE000A21EEFD
:10338000000ADFED4D0A20EE200A4E4880ED000ACB
:103390003E48407A000200B23C49097A084300EEF8
:1033A000100AB8EEC00ADFED480A80EE201AB3EE2C
:1033B000050A31EE000A454880ED000A60E0334816
:1033C000C078000200B231498978084300EE100A43
:1033D000B8EEC00A9FED371AC0EE010A9FED3C0A15
:1033E00020EE800A3B4880ED000A28484079000220
:1033F00000B226490979084300EE100AB8EEC00A67
:10340000DFED2C0A80EE201A9FED310A21EE000A32
:10341000314880ED000A1D48C079000200B21B4906
:103420008979084300EE100AB8EEC00ADFED210AE0
:1034300080EE201A9FED260A21EE000A174880ED43
:10344000000A1248407A000200B21049097A084383
:1034500000EE100AB8EEC00ADFED1B0A80EE201A5B
:10346000B3EE050A31EE000A184880ED000AFFF7B6
:10347000EBFE0F4890ED000A184880ED040A00BFEB
:1034800000BF10BD000C0240004400400C1300209F
:10349000E1000020E000002000000000F800002013
:1034A0000801002004010020000096430000B443FE
:1034B0000001002000000047CDCC1C41E4000020AA
:1034C000E8000020EC0000200000AA43FC000020DF
:1034D00000003443F4000020F0000020901200208F
:1034E00010B588B004460121022000F0A7FC01219C
:1034F000880400F0ECFC07220A216E4800F08BFAE9
:1035000007220B216B4800F086FA4FF440600690CA
:1035100002208DF81C008DF81D0000208DF81E0083
:1035200001208DF81F0006A9624800F0E9F9029415
:103530000020ADF80C00ADF80E00ADF81000ADF8AD
:1035400014000C20ADF8120002A95B4800F07BFECD
:103550000121594800F0FFFE012240F22551564852
:1035600000F0AFFF27208DF8040001208DF8050042
:103570008DF806008DF8070001A800F0D0F808B01B
:1035800010BD002004E000214C4A1154411CC8B277
:103590000E28F8DB00214A4A1170704710B52DED56
:1035A000028B84B00020039002900190002400BFA1
:1035B00006E04249A01C085C03A90855601CC4B27F
:1035C000032CF6DB03A80DF073F9B0EE408AF0EEA1
:1035D000608A51EC180B0EF0C7FA3A4908800024B3
:1035E00006E03649A01D085C02A90855601CC4B25B
:1035F000032CF6DB02A80DF05BF9B0EE408AF0EE8A
:10360000608A51EC180B0EF0AFFA2E494880002466
:1036100007E02A4904F10A00085C01A90855601C6A
:10362000C4B2032CF5DB01A80DF042F9B0EE408ADC
:10363000F0EE608A51EC180B0EF096FA22490880E1
:103640000120224908702249087004B0BDEC028BA9
:1036500010BD10B503F056FF40F22551164800F09A
:103660006BFFC8B11448001D00881449144A127831
:10367000885413480078401C114908700F4800789E
:10368000502801D0FFF77DFF0D4800780E2803D1A8
:10369000FFF784FFFFF775FF03F045FF10BD00BF84
:1036A0000549098801F040010029F9D00249091DA6
:1036B00008807047000402400048004017130020B3
:1036C0000C0100200E010020120100201601002034
:1036D000150100200948804709480047FEE7FEE73A
:1036E000FEE7FEE7FEE7FEE7FEE7FEE7FEE7FEE7B2
:1036F00004480549054A064B704700002D0900089B
:103700008901000828340020283A002028360020AB
:103710002836002032490143324A1160704770B5A3
:10372000002100230F22C4781CB32E4C246804F41B
:10373000E064C4F5E064C4F30721C1F10404E3B21A
:103740000A4144789C40E1B28478144021430C073C
:10375000210E254C05786155047804F01F050124DD
:10376000AC4005786D11AD0005F1E025C5F80041CC
:1037700009E0047804F01F050124AC401B4D0678D5
:10378000761145F8264070BD194A0A400243154B90
:103790001B1F1A60704739B1124A121D126802438A
:1037A000104B1B1D1A6006E00E4A121D1268824360
:1037B0000C4B1B1D1A607047042808D14FF0E02104
:1037C000096941F004014FF0E022116107E04FF078
:1037D000E021096921F004014FF0E02211617047F6
:1037E0000000FA050CED00E000E400E080E100E0FC
:1037F00080FFFF1F10B504469848844208D101217C
:10380000084600F086FB0021012000F082FB76E0F4
:103810009348844208D10121022000F07AFB002164
:10382000022000F076FB6AE08E48844208D1012134
:10383000042000F06EFB0021042000F06AFB5EE033
:103840008948844208D10121082000F062FB002150
:10385000082000F05EFB52E08448844208D1012138
:10386000102000F056FB0021102000F052FB46E033
:103870007F48844208D10121202000F04AFB00212A
:10388000202000F046FB3AE07A48844208D101212A
:10389000402000F03EFB0021402000F03AFB2EE0EB
:1038A0007548844208D10121802000F032FB0021BC
:1038B000802000F02EFB22E07048844208D10121D4
:1038C000801500F026FB0021A01500F022FB16E079
:1038D0006B48844208D10121401500F01AFB0021F9
:1038E000601500F016FB0AE06648844207D101210A
:1038F000001500F00EFB0021201500F00AFB10BDA2
:10390000F0B50A4600210023002400BF3DE0012558
:1039100005FA01F3156805EA03049C4234D10568F1
:103920004F000326BE40B543056015794E00B540F3
:103930000668354305601579012D02D01579022DF1
:1039400016D185684F000326BE40B5438560557982
:103950004E00B540866835438560456801268E4037
:10396000B5434560456896798E40B6B235434560AB
:10397000C5684F000326BE40B543C560D5794E00EB
:10398000B540C6683543C560491C1029BFD3F0BD9A
:103990004FF6FF7101600021017141718171C171A8
:1039A000704708B54FF480320092009A0A430092A3
:1039B000009AC261C161009AC261C2690092C26983
:1039C000009208BD0246002013690B400BB1012094
:1039D00000E0002070470146086980B27047024647
:1039E000002053690B400BB1012000E0002070471C
:1039F0000146486980B27047018370474183704730
:103A00000AB1018300E04183704741617047426918
:103A10004A4042617047F0B5002300244D07ED0E87
:103A200002FA05F3CE1000F1200555F826504E0796
:103A3000F70E0F26BE40B543CF1000F1200646F822
:103A40002750CE1000F1200555F8265045EA030412
:103A5000CE1000F1200545F82640F0BD00000240E0
:103A60000004024000080240000C02400010024026
:103A70000014024000180240001C024000200240D6
:103A80000024024000280240F948006840F001008C
:103A9000F74908600020F64908310860F4480068DA
:103AA000F4490840F2490860F348091D0860F348EA
:103AB000EF4984310860F0481038091D0860EC486F
:103AC000006820F48020EA4908600020E8490C31B1
:103AD0000860E7498C31086070470021E44A921C75
:103AE000117011460870704710B50146002200237E
:103AF00000204A11012A02D1DD4C236808E0022A85
:103B000003D1DB4C7034236802E0D94C7434236851
:103B100001F01F02012494401C400CB1012000E080
:103B2000002010BD38B5002000900024002500BF03
:103B30003120FFF7D9FF05460098401C00900098FF
:103B4000B0F5A04F01D0002DF2D03120FFF7CCFF0F
:103B500008B1012400E00024204638BD01460020C1
:103B6000C34A106820F0F80040EAC10010607047B6
:103B7000C349086070470021BD4A7032117011704E
:103B8000012802D004280AD104E00121B84A703289
:103B9000117005E00521B64A7032117000E000BFD7
:103BA00000BF7047B7490860704770B5049C41EA90
:103BB00082150126C6EB530645EA0645054345EA4C
:103BC0000465AB4E361D356070BDAD490866704763
:103BD000820142EA0172A64B84331A607047A849F9
:103BE0008866704710B5830143EA016343EA0273B4
:103BF0009F4C8834236010BDA14908677047A049D5
:103C0000C864704702460020994B0833186820F0BA
:103C1000EC6042EA01031843954B08331860704783
:103C200002460020924B0833186820F0784042EAA0
:103C3000010318438E4B083318607047014600207B
:103C40008B4A0832106820F0030008431060704768
:103C500087480830006800F00C00704701460020DB
:103C6000834A0832106820F0F00008431060704763
:103C7000014600207E4A0832106820F4E0500843D4
:103C80001060704701460020794A0832106820F41D
:103C9000604040EAC10010607047F0B5002100228A
:103CA0000024022500260223714F08373F6807F0E1
:103CB0000C0121B1042905D0082937D105E0724F44
:103CC000076036E0714F076033E0694F3F1D3F6882
:103CD000C7F38056664F3F1D3F6807F03F036EB144
:103CE0006A4FB7FBF3F7DFF888C10CF1040CDCF87E
:103CF00000C0CCF3881C07FB0CF40CE0624FB7FB50
:103D0000F3F7DFF86CC10CF1040CDCF800C0CCF365
:103D1000881C07FB0CF4564F3F1D3F68C7F3014753
:103D20007F1C7D00B4FBF5F7076002E0564F07608B
:103D300000BF00BF4E4F08373F6807F0F001090988
:103D4000534F7A5C0768D7404760494F08373F6850
:103D500007F4E051890A4E4F7A5C4768D740876084
:103D6000434F08373F6807F46041490B484F7A5C7E
:103D70004768D740C760F0BD002100F44072B2F53B
:103D8000407F0AD13A4A0832116821F4F811414AB9
:103D900002401143364A08321160354A70321268C7
:103DA000C0F30B031A43324B70331A607047354926
:103DB00044390860704733494039086070473649D4
:103DC0000860704701460020294A8C32106820F0B4
:103DD0001F004A1E1043264A8C321060704701466D
:103DE0000020234A8C32106820F4F8504A1E40EA22
:103DF00002201F4A8C3210607047014600201C4A86
:103E00008C32106820F4401008431060704701465F
:103E10000020174A8C32106820F4400008431060DC
:103E2000704701460020124A8C32106820F440305E
:103E300008431060704719490860704739B10C4A4F
:103E40003032126802430A4B30331A6006E0084AE7
:103E5000303212688243064B30331A607047F9B132
:103E6000034A343212680243014B34331A601CE0B7
:103E700000380240FFFFF6EA103000240030002036
:103E800000004742800E47420024F40040787D0144
:103E900017010020FFFCFF0F5C014742E011474281
:103EA0008F4A126882438E4B1A60704739B18C4A30
:103EB000121D126802438A4B1B1D1A6006E0884AD5
:103EC000121D12688243864B1B1D1A60704739B160
:103ED000834A0C3212680243814B0C331A6006E0AD
:103EE0007F4A0C32126882437D4B0C331A60704754
:103EF00039B17B4A103212680243794B10331A6091
:103F000006E0774A103212688243754B10331A600C
:103F1000704739B1724A243A12680243704B243B0D
:103F20001A6006E06E4A243A126882436C4B243BC6
:103F30001A60704739B16A4A203A12680243684BE6
:103F4000203B1A6006E0664A203A12688243644BBE
:103F5000203B1A60704739B1614A1C3A126802432B
:103F60005F4B1C3B1A6006E05D4A1C3A12688243B4
:103F70005B4B1C3B1A60704739B1594A143A1268BE
:103F80000243574B143B1A6006E0554A143A126834
:103F90008243534B143B1A60704739B1504A103A70
:103FA000126802434E4B103B1A6006E04C4A103A2E
:103FB000126882434A4B103B1A60704739B1484A35
:103FC0001C3212680243464B1C331A6006E0444A16
:103FD0001C3212688243424B1C331A60704739B15D
:103FE0003F4A2032126802433D4B20331A6006E0FC
:103FF0003B4A203212688243394B20331A607047A3
:1040000039B1374A243212680243354B24331A60DF
:1040100006E0334A243212688243314B24331A605B
:10402000704739B12E4A2C32126802432C4B2C3384
:104030001A6006E02A4A2C3212688243284B2C333D
:104040001A60704739B1264A303212680243244B55
:1040500030331A6006E0224A303212688243204B25
:1040600030331A607047012808D11D493C31096876
:1040700041F008011A4A3C32116007E018493C310E
:10408000096821F00801164A3C321160704739B1C5
:10409000134A273A12780243114B273B1A7006E065
:1040A0000F4A273A127882430D4B273B1A7070470C
:1040B0000B484030006840F080700949403108608A
:1040C000704701460020064A283A12680A400AB1A1
:1040D000012000E000207047014926390870704730
:1040E0003438024010B501218803FFF756FF002144
:1040F0004FF48040FFF751FF10BD1C490860704726
:104100001B490862704730B500228B071C0F0F2334
:1041100003FA04F2154B08338C1053F82430934300
:10412000124C08348D1044F8253023468C1053F877
:1041300024308C07240F00FA04F423430B4C08347A
:104140008D1044F8253030BD0949DC3108607047D6
:10415000084908607047002004492031096801F4CB
:10416000807109B1012000E0002070470038014053
:10417000000027420004274210B50446FA48844252
:1041800008D101211020FFF708FF00211020FFF7C0
:1041900004FF57E0F548844209D101214804FFF7A4
:1041A000EBFE00214FF40030FFF7E6FE4AE0F04856
:1041B000844209D101218804FFF7DEFE00214FF47B
:1041C0008020FFF7D9FE3DE0EA48844209D1012171
:1041D000C804FFF7D1FE00214FF40020FFF7CCFE0A
:1041E00030E0E548844209D101210805FFF7C4FE0B
:1041F00000214FF48010FFF7BFFE23E0DF48844228
:1042000008D101212020FFF7C8FE00212020FFF760
:10421000C4FE17E0DA48844209D101218807FFF77C
:10422000ABFE00214FF08040FFF7A6FE0AE0D54824
:10423000844207D101214005FFF79EFE0021600561
:10424000FFF79AFE10BD2DE9FF4705460E460024F4
:10425000A14600BFA046B08900B100BF2C8A24F45B
:104260004054F08804432C82AC8941F20C608443B2
:10427000B08831890843718908430443AC81AC8A12
:1042800024F44074B0890443AC826846FFF705FD0E
:10429000B548854202D0B948854202D1DDF80C907C
:1042A00001E0DDF80890A88900F4004040B109EB76
:1042B000C90000EB091031684900B0FBF1F707E0D5
:1042C00009EBC90000EB091031688900B0FBF1F778
:1042D0006420B7FBF0F004012009642101FB107891
:1042E000A88900F4004040B1322000EBC800B0FBC8
:1042F000F1F000F00700044308E0322000EB081062
:104300006421B0FBF1F000F00F0004432C81BDE804
:10431000FF874FF41651016000218180C180018127
:104320000C21418100218181704710B50246002097
:10433000108A20F470600B884C8823438C882343B8
:10434000CC8823431843108210BD00210180418096
:104350008180C180704721B1828942F400528281FC
:1043600004E082894DF6FF731A4082817047028B08
:1043700002F47F420283028B0A430283704721B119
:10438000828942F40042828103E08289C2F30E02F4
:104390008281704721B1828A42F40062828204E005
:1043A000828A4FF2FF731A4082827047C1F308027B
:1043B0008280704701468888C0F308007047028AEF
:1043C0004FF6F0731A400282028A0A430282704753
:1043D00021B1828942F00202828104E082894FF693
:1043E000FD731A408281704782894FF2FF731A4031
:1043F000828182890A4382817047028A4FF6DF7385
:104400001A400282028A0A430282704721B1028A5C
:1044100042F48042028204E0028A4BF6FF731A40A3
:1044200002827047818941F001018181704721B189
:10443000828A42F00802828204E0828A4FF6F77391
:104440001A4082827047028BD2B20283028B42EA08
:1044500001220283704721B1828A42F020028282C7
:1044600004E0828A4FF6DF731A408282704721B1DE
:10447000828A42F01002828204E0828A4FF6EF7351
:104480001A4082827047828A4FF6FB731A408282FA
:10449000828A0A438282704721B1828A42F00202F4
:1044A000828204E0828A4FF6FD731A40828270474E
:1044B0001AB1838A0B43838202E0838A8B4383820F
:1044C0007047F0B50346002400260025002040F682
:1044D0006A17B94200D100BF1846C1F3421401F077
:1044E0001F06012707FA06F5012C01D10C3004E064
:1044F000022C01D1103000E014301AB107682F43AC
:10450000076002E00768AF430760F0BD0246002085
:10451000B1F5007F00D100BF13880B400BB1012023
:1045200000E00020704701F40072B2F5007F00D176
:1045300000BFCA430280704770B5024600240023C2
:104540000025002040F66A16B14200D100BFC1F339
:10455000421501F01F03012606FA03F3012D13D1C2
:104560009689334017E000000010014000440040ED
:1045700000480040004C0040005000400014014042
:1045800000780040007C0040022D02D1168A3340A2
:1045900001E0968A33400C12012606FA04F41688CC
:1045A000344013B10CB1012000E0002070BD10B503
:1045B0000022002340F66A14A14200D100BF0A1273
:1045C00001249440A3B2DC43048010BD10B504461E
:1045D000FE48844208D101210846FFF7DEFC002195
:1045E0000120FFF7DAFC9DE0B4F1804F08D10121F2
:1045F0000846FFF7C1FC00210120FFF7BDFC91E058
:10460000F348844208D101210220FFF7B5FC0021C4
:104610000220FFF7B1FC85E0EE48844208D1012179
:104620000420FFF7A9FC00210420FFF7A5FC79E096
:10463000E948844208D101210820FFF79DFC0021B0
:104640000820FFF799FC6DE0E448844208D101217D
:104650001020FFF791FC00211020FFF78DFC61E096
:10466000DF48844208D101212020FFF785FC00218A
:104670002020FFF781FC55E0DA48844208D101216F
:104680000220FFF78AFC00210220FFF786FC49E0A8
:10469000D548844209D101210804FFF77EFC00219E
:1046A0004FF48030FFF779FC3CE0D048844209D1D8
:1046B00001214804FFF771FC00214FF40030FFF79F
:1046C0006CFC2FE0CA48844209D101218804FFF71D
:1046D00064FC00214FF48020FFF75FFC22E0C54816
:1046E000844208D101214020FFF746FC00214020F0
:1046F000FFF742FC16E0C048844208D10121802027
:10470000FFF73AFC00218020FFF736FC0AE0BB48A7
:10471000844207D101218015FFF72EFC0021A0154E
:10472000FFF72AFC10BD00220288A84B98420ED049
:10473000AC4B98420BD0B0F1804F08D0A44B9842BC
:1047400005D0A44B984202D0A34B984204D14FF617
:104750008F731A404B881A43A04B984207D0A04B46
:10476000984204D04FF6FF431A400B891A43028047
:104770004B68C3620B880385944B984202D0994BD7
:10478000984201D18B7A03860123838270474FF0D0
:10479000FF314160002101800181418081727047B9
:1047A0000185828270470A46002101884FF68F7387
:1047B000194011430180704741627047C1627047E0
:1047C0000146486A70470146088D704721B102884A
:1047D00042F00202028004E002884FF6FD731A40A4
:1047E0000280704721B1028842F00402028004E096
:1047F00002884FF6FB731A400280704721B102888D
:1048000042F08002028004E002884FF67F731A4073
:104810000280704702884FF6F7731A4002800288C0
:104820000A430280704702884FF6FF431A40028015
:1048300002880A430280704721B1028842F00102D7
:10484000028004E002884FF6FE731A40028070472F
:1048500070B5002400220023058C4FF6FE7635400B
:104860000584028C8388048B4FF68F752C40B51E0F
:104870002C400D882C43751E2A408D892A434D8873
:104880002A43524DA84202D0564DA84213D14FF6AA
:10489000F7752A40CD892A434FF6FB752A408D884B
:1048A0002A434FF6FF652B404FF6FF552B400D8AEC
:1048B0002B434D8A2B43838004838D684563028498
:1048C00070BD70B5002400220023058C4FF6EF76F2
:1048D00035400584028C8388048B48F6FF752C4094
:1048E0004FF6FF452C400D884FF6FF7606EA05256A
:1048F0002C434FF6DF752A408D8906EA05152A43B9
:104900004D8806EA05152A43304DA84202D0354DA0
:10491000A8421DD14FF67F752A40CD894FF6FF760C
:1049200006EA05152A434FF6BF752A408D8806EA28
:1049300005152A434FF6FF352B404FF2FF752B40EC
:104940000D8A06EA85052B434D8A06EA85052B4329
:10495000838004838D688563028470BD70B50024F4
:1049600000220023058C4FF6FF6635400584028C3B
:104970008388848B4FF68F752C404FF6FC752C4046
:104980000D882C434FF6FF552A408D894FF6FF7650
:1049900006EA05252A434D8806EA05252A430B4DDC
:1049A000A84202D00F4DA84238D14FF2FF752A40DD
:1049B000CD894FF6FF7606EA05252A434FF6FF35E7
:1049C0002A408D8806EA05252A4319E000000140A7
:1049D0000004004000080040000C004000100040AF
:1049E0000014004000040140004001400044014028
:1049F0000048014000180040001C0040002000401A
:104A00004EF6FF752B404DF6FF752B400D8A06EADA
:104A100005152B434D8A06EA05152B4383808483B5
:104A20008D68C563028470BD70B500220023002428
:104A3000058C4EF6FF7635400584038C8488828B86
:104A400048F6FF752A404FF6FF452A400D884FF67D
:104A5000FF7606EA05252A434DF6FF752B408D8922
:104A600006EA05352B434D8806EA05352B43FE4DF6
:104A7000A84202D0FD4DA84208D14BF6FF752C404C
:104A80000D8A4FF6FF7606EA85152C4384808283D3
:104A90008D680564038470BD0021018041808180A0
:104AA00081608181C18101824182704770B5034676
:104AB000002000241846183001258D40ACB21D8C12
:104AC000A5431D8409B108290AD100EB61000568DE
:104AD0004FF68F76354005600568154305600FE099
:104AE0000D1FC5F34E052844056848F6FF7635408E
:104AF000056005684FF6FF7606EA02263543056035
:104B000070BD4163704781637047C1637047016442
:104B100070470A460021018B4FF68F7319401143ED
:104B2000018370470A460021018B48F6FF73194044
:104B30004FF6FF7303EA02231943018370470A46C5
:104B40000021818B4FF68F73194011438183704789
:104B50000A460021818B48F6FF7319404FF6FF7318
:104B600003EA02231943818370470A460021018B1F
:104B70004FF6F77319401143018370470A4600212D
:104B8000018B4FF2FF7319404FF6FF7303EA0223C4
:104B90001943018370470A460021818B4FF6F77352
:104BA00019401143818370470A460021818B4FF2DF
:104BB000FF7319404FF6FF7303EA02231943818301
:104BC00070470A460021018B4FF6FB7319401143D1
:104BD000018370470A460021018B4FF6FF331940CD
:104BE0004FF6FF7303EA02231943018370470A4615
:104BF0000021818B4FF6FB7319401143818370476D
:104C00000A460021818B4FF6FF3319404FF6FF73A0
:104C100003EA02231943818370470A460021018B6E
:104C20004FF67F7319401143018370470A460021F4
:104C3000018BC1F30E014FF6FF7303EA0223194300
:104C4000018370470A460021818B4FF67F7319401C
:104C50001143818370470A460021818BC1F30E0105
:104C60004FF6FF7303EA02231943818370470A4614
:104C70000021018C4FF6FD731940114301847047E8
:104C80000A460021018C4FF6F77319401143018445
:104C900070470A460021018C4FF6DF7319404FF62A
:104CA000FF7303EA02131943018470470A46002187
:104CB000018C4FF67F7319404FF6FF7303EA02131E
:104CC0001943018470470A460021018C4FF6FF53B7
:104CD00019404FF6FF7303EA02231943018470471A
:104CE0000A460021018C4FF2FF7319404FF6FF7303
:104CF00003EA02231943018470470A460021018C0C
:104D00004DF6FF7319404FF6FF7303EA0233194360
:104D10000184704730B5002301248C40A3B2048C79
:104D20009C430484048C02FA01F5ADB22C43048444
:104D300030BD30B5002304248C40A3B2048C9C43C6
:104D40000484048C02FA01F5ADB22C43048430BD16
:104D5000828B4FF2FF331A408283828B4FF6FF73B0
:104D600003EA01231A4382837047F0B50C461546C7
:104D7000002100220026078C4EF6FF7C07EA0C0774
:104D80000784818B028C4FF6FF7707EA043640F6E2
:104D9000FF4739404FF6FF7707EA052739434FF6BB
:104DA000FF7707EA0337394345F6FF773A4046F481
:104DB00080573A4381830284F0BD828B4FF6F373B0
:104DC0001A408283828B0A4382837047F0B50C4677
:104DD0001546002100220026078C4FF6FF6C07EADB
:104DE0000C070784818B028C4FF6FF7707EA0426B5
:104DF0004FF60C7739404FF6FF7707EA03172F433A
:104E000039434FF2FF573A4046F480773A43818363
:104E10000284F0BD028B4FF2FF331A400283028BF3
:104E20004FF6FF7303EA01231A4302837047F0B57C
:104E30000C461546002100220026078C4FF6EF7C19
:104E400007EA0C070784018B028C4FF6FF7707EA0D
:104E5000041640F6FF4739404FF6FF7707EA03375D
:104E600039434FF6FF7703E00000014000040140A2
:104E700007EA052739434FF65F773A4046F01007B7
:104E80003A4301830284F0BD028B4FF6F3731A405C
:104E90000283028B0A4302837047F0B50C46154625
:104EA00000210022068C4FF6FE773E400684018BDF
:104EB000028C4FF60C7631407E1C06EA03162E4318
:104EC00031434FF6F576324044F001063243018318
:104ED0000284F0BD70B505460C46208850B9238980
:104EE000A28861882846FFF7D8FFE1882846FFF7A7
:104EF000CBFF25E0208804280AD12389A288618875
:104F00002846FFF794FFE1882846FFF783FF17E064
:104F1000208808280AD12389A28861882846FFF7BB
:104F200055FFE1882846FFF748FF09E02389A2885A
:104F300061882846FFF719FFE1882846FFF708FF38
:104F400070BD002101804180012181800021C1804C
:104F5000018170472DE9F04105460C4600260127E6
:104F6000608808B9022600E00026A088012801D147
:104F7000022700E001272088A0B92389A288618840
:104F80002846FFF78AFFE1882846FFF77DFF23893F
:104F90003A4631462846FFF74AFFE1882846FFF7A0
:104FA00039FF13E02389A28861882846FFF73FFF75
:104FB000E1882846FFF72EFF23893A4631462846E6
:104FC000FFF76BFFE1882846FFF75EFFBDE8F08141
:104FD0000146486B70470146886B70470146C86BB5
:104FE00070470146086C70470A884B881A438B88C3
:104FF0001A43CB881A430B891A434B891A438B896E
:105000001A43A0F84420704700210180418081802C
:10501000C180018141818181704731B1B0F8442064
:1050200042F40042A0F8442005E0B0F84420C2F366
:105030000E02A0F84420704721B1828842F0040299
:10504000828004E082884FF6FB731A4082807047AA
:1050500021B1828842F00102828004E082884FF60A
:10506000FE731A40828070471AB183890B43838193
:1050700002E083898B4383817047818270470246B7
:105080000020138A0B400BB1012000E00020704784
:10509000CA430282704730B5024600200023002434
:1050A000158A05EA0103958905EA010413B10CB1DB
:1050B000012000E0002030BDCA430282704741EA6F
:1050C0000203A0F8483070471AB183890B438381EB
:1050D00002E083898B438381704721B1828842F04B
:1050E0000802828004E082884FF6F7731A408280BB
:1050F000704701894FF6F8721140018170470A46E6
:10510000002101894FF68F731940114301817047C7
:1051100030B504460D4629462046FFF7F0FF2089AA
:1051200040F00700208130BD2DE9F04104460D46D6
:1051300016461F46602D06D13B46012231462046C9
:10514000FFF775FE05E03B46012231462046FFF79A
:10515000A4FE29462046FFF7D2FF208940F0070031
:105160002081BDE8F08130B50C4600210189C9B22B
:105170004FF6FF7505EA03251543254329430181B1
:1051800030BD2DE9F04105460E46174698460024ED
:1051900043463A4631462846FFF7E5FF2C894FF64D
:1051A000F870044044F007044FF68F70044044F058
:1051B00070042C81BDE8F081F0B504460D4616461A
:1051C0001F463B46324629462046FFF7CCFF208942
:1051D00040F480402081F0BD82884FF68F731A40E2
:1051E000828082880A438280704702894FF6F87372
:1051F0001A40028102890A430281704702894FF6F0
:105200007F731A40028102890A4302817047F0B518
:105210000C4615461E460021002200230189028B00
:10522000038C4FF6F877394021434FF6FC473A405C
:1052300040F201173A434FF6DD773B404FF6FF77D8
:1052400007EA06172F433B43018102830384F0BD25
:1052500021B1828842F08002828004E082884FF689
:105260007F731A4082807047A0F85010704700008A
:10527000002041490860091D0860091D0860091DDA
:1052800008603E483C4914310860704700213A49A3
:105290008279002A3AD00A46126803689A430B467C
:1052A0001A600A1D126803689A430B1D1A6002797E
:1052B00011440A6803681A430A602F4A08321268C8
:1052C00003689A432C4B08331A601A1D126803684E
:1052D0009A43294B0C331A604279102A0ED11A1FB7
:1052E000126803681A43244B08331A601A1D1268A7
:1052F00003681A43204B0C331A600DE01E494279B3
:1053000011440A6803681A430A6005E002791144EF
:105310000A6803689A430A607047002101600171BE
:105320000C214171002181717047134910310968C6
:105330000143114A103211607047014600200E4AA5
:10534000143212680A400AB1012000E000207047C0
:10535000094914310860704701460020064A14329A
:1053600012680A400AB1012000E00020704702499B
:105370001431086070470000003C0140FFFF7F00CF
:1053800008B5684602F078F908BD08B5684602F02D
:10539000BDF908BD38B504466A460821204608F024
:1053A000A5FC38BD10B542480078012805D102F0AF
:1053B000A9F808F027FF02F0B6F810BD70B5044652
:1053C0006FF00400FEF7F8F92046E11704EB517185
:1053D000C1F3C701374A1170E11704EB5171CD10C9
:1053E000354800683549B1FBF0F045433248006864
:1053F0004FF47A71B1FBF0F0314908804FF0E020B2
:10540000006940F002004FF0E02108610846456164
:10541000006940F00100086170BD2DE9F0470746C2
:1054200000264FF0E020D0F814902248007807FBC7
:1054300000F8FFF7A5FF4FF0E020856911E04FF07D
:10544000E0208469AC420CD0AC4202D2281B064456
:1054500003E0A9EB0400284406442546464500D352
:1054600000E0ECE700BFFFF790FFBDE8F08770B504
:1054700004460F480078A0B11248007888B9104857
:105480000088844206DB0E48008894FBF0F528462D
:10549000FFF780FF0A48008894FBF0F100FB114001
:1054A00084B24FF47A7104FB01F0FFF7B6FF70BDD0
:1054B00069010020280100206826010840420F00F1
:1054C0002A0100206801002000BF704700BFA04AE9
:1054D000128802F04002002AF9D0C2B29C4B9A8096
:1054E000704710B588B0044601210846FEF7A6FCB7
:1054F00001211020FEF7FCFC072209219548FEF748
:105500008AFA07220A219348FEF785FA4FF4C06011
:10551000069002208DF81C008DF81D0000208DF8EB
:105520001E0001208DF81F0006A98A48FEF7E8F941
:1055300002940020ADF80C00ADF80E00ADF810009C
:10554000ADF814000C20ADF8120002A98048FEF757
:105550007AFE01217E48FEF7FEFE012240F225512F
:105560007B48FEF7AEFF25208DF8040003208DF860
:1055700005008DF8060001208DF8070001A8FEF750
:10558000CEF808B010BD002004E00021724A11548A
:10559000411CC8B20D28F8DB0021704A1170704719
:1055A00010B540F225516A48FEF7C6FF18B36848A7
:1055B000FEF700FF6849694A127888546748007806
:1055C000401C6649087064480078472803D0624848
:1055D0000078562810D161480078401E5E49085C6A
:1055E0000A280BD15D480078801E085C0D2805D183
:1055F00000205B49087001E0FFF7C5FF10BD00BF48
:105600005349098801F040010029F9D050498880A8
:10561000704700B502461078FFF7F1FF5078FFF7AA
:10562000EEFF00BD00B5024603E01078FFF7E7FF8C
:10563000521C10780028F8D100BD00B5024603E0E6
:105640001078FFF7DCFF521C10780028F8D12020DA
:10565000FFF7D5FF00BD00B502461046FFF7CFFFAC
:105660002020FFF7CCFF00BD1FB503A808F09CFD6C
:1056700004460020009001900290224639A168461D
:1056800009F072FC6846FFF7CDFF37A0FFF7CAFFAD
:105690001FBD30B52DED028B85B00020019002902A
:1056A00003900490002506E02B48405D202800D19F
:1056B00005E0681CC5B2294800788542F4DB00BFCC
:1056C0002648007885423EDA002406E02249601C24
:1056D000085C01A90855601CC4B2AC42F6DB01A805
:1056E0000BF0E6F8B0EE408AF0EE608A51EC180B51
:1056F0000CF00AFA00B21D490880002404E00020E2
:1057000001A90855601CC4B2AC42F8DB2C4607E086
:105710001149601C085C611B01AA5054601CC4B292
:105720000E480078C01EA042F2DC01A80BF0C0F8C1
:10573000B0EE408AF0EE608A51EC180B0CF0E4F900
:1057400000B20A49488005B0BDEC028B30BD0000B4
:105750000010014000000240ED1300203201002043
:1057600033010020256400000D0A0000BC12002057
:105770001FB56846FEF791FA019804B010BD10B548
:10578000FFF7F6FF04461848006840F0807016499D
:1057900008600020154948600846006840F0010094
:1057A0000860204600F0B7F810BD104948687047FF
:1057B0002DE9F0478246FFF7DBFF4FF000098046F6
:1057C0000B4A00234046494609F04BFB0646324649
:1057D0000B465046002109F044FB04460D46204686
:1057E0002946BDE8F0870000FCED00E0001000E075
:1057F00040420F0010B5002400BF00BF00F052F976
:10580000044600BF00BF1021A14800F0D2FA00BF3B
:1058100000BF204600F04AF900BF00BF10BD10B520
:10582000FFF7E8FF10BD10B500209A490860FFF7A8
:10583000A6FF10BD10B5FFF7F6FFFFF7F0FF10BD94
:1058400000BFFEE770B505460C46002614B900BF40
:10585000FFF7F6FF15B90A20208070BD00BF00BF1A
:1058600000F020F9064600BF00BF102288492846F4
:1058700000F056FF00BF00BF304600F017F900BF30
:1058800000BF0020208000BFE7E72DE9F04105467A
:105890000C46002714B900BFFFF7D2FF1DB90A203C
:1058A0002080BDE8F0811021284600F021FF064647
:1058B000102E15D200BF00BF00F0F4F8074600BF5D
:1058C00000BF10222946724800F02AFF00BF00BF27
:1058D000384600F0EBF800BF00BF0020208002E057
:1058E0004FF47A70208000BFDBE710B5FFF75DFF53
:1058F0000446204610BD704700B5014611B900BFEF
:10590000FFF79EFF634A106808B1002201E04FF4E0
:10591000FA620A8000BD5F490860704770B50546AD
:10592000284600F0CAF80446183C204670BD70B501
:105930000546284600F0C1F80446103C204670BDDC
:1059400070B50546284600F0B8F8044600BF20466A
:1059500070BD30B502460B460024D2F1FF359C41A4
:1059600026D24FF6FF74D2F1FF359C410FD26FF073
:105970007F44D2F1FF359C4103D2190E464C605C46
:1059800044E0190C444C645C04F108003EE0FF2440
:10599000D2F1FF359C4105D2190A3F4C645C04F1F9
:1059A000100033E019463C4C645C04F118002DE013
:1059B0004FF6FF750024AD1A9C4115D26FF07F455C
:1059C0000024AD1A9C4107D2140E44EA0321324C44
:1059D000645C04F1200019E0140C44EA03412E4CED
:1059E000645C04F1280011E00024D2F1FF059C4121
:1059F00007D2140A44EA0361274C645C04F13000C6
:105A000004E01146244C645C04F1380030BD70B5EC
:105A100004460CB9082070BD204600F051F8054638
:105A20002846F8E770B504460CB9102070BD204632
:105A300000F046F805462846F8E770B504460CB96C
:105A4000202070BD204600F03BF805462846F8E7C8
:105A50002DE9F04304460D46002184EA0100694027
:105A6000084302D14020BDE8F083E243E843521CE2
:105A700040F1000102EA040601EA05073046394612
:105A8000FFF767FF8046C8F13F094846EBE7000093
:105A9000FA130020380100207024010872B6704704
:105AA00062B67047EFF3108072B6704780F31088CB
:105AB000704730BF704720BF7047B0FA80F0704722
:105AC00090FAA0F0B0FA80F0704790FAA0F070471A
:105AD0000146412903DB5A2901DC012200E00022B2
