:020000040800F2
:10000000703B00208D37000855080008570800088D
:100010005B0800085F080008630800080000000093
:100020000000000000000000000000006708000859
:100030006908000800000000530D01085D54000825
:10004000A7370008A7370008A7370008A737000818
:10005000A7370008A737000853270008FB27000828
:10006000A7370008A7370008DD270008A7370008D2
:10007000A7370008A7370008A7370008A7370008E8
:10008000A7370008A7370008A7370008A7370008D8
:10009000A7370008A7370008A7370008D5260008AB
:1000A000A7370008A7370008A7370008A7370008B8
:1000B000A737000853310008A7370008A737000802
:1000C000A7370008A7370008A7370008A737000898
:1000D000A737000859560008293200080B370008D6
:1000E00073270008A7370008A7370008A7370008BC
:1000F000A7370008A7370008A7370008A737000868
:10010000A7370008A7370008A7370008A737000857
:10011000A7370008A7370008A7370008A737000847
:10012000A7370008A7370008A7370008A737000837
:10013000A7370008A7370008A7370008A737000827
:10014000A7370008A7370008A7370008A737000817
:10015000A7370008A7370008A7370008A737000807
:10016000A7370008A7370008A7370008A7370008F7
:10017000A7370008A7370008A7370008A7370008E7
:10018000A7370008A737000800F002F800F062F86F
:100190000AA090E8000C82448344AAF10107DA45E2
:1001A00001D100F057F8AFF2090EBAE80F0013F0D2
:1001B000010F18BFFB1A43F001031847E832010092
:1001C000083301000A4410F8014B14F00F0508BF72
:1001D00010F8015B240908BF10F8014B6D1E05D013
:1001E00010F8013B6D1E01F8013BF9D1641E03D0EC
:1001F000641E01F8015BFBD19142E4D3704700001B
:100200000023002400250026103A28BF78C1FBD81F
:10021000520728BF30C148BF0B607047662912F0F3
:10022000C08564290EF0B087002070471FB512F01A
:10023000AEFD0FF045FB04000020002111F0D8FEB8
:10024000401C60600020002111F0BCFEE0601FBD7A
:1002500010B510BD0FF07EFC1146FFF7E7FF00F070
:1002600071FA0FF0F7FE03B4FFF7F2FF03BC05F0DD
:1002700087F900000EB50CE002F06BF801F0EEFF1C
:1002800002A8002105230A46CDE9001008460DF01A
:100290007AFEF1E70EB50024A2E0FE4800780028BF
:1002A00048D100BF00BF00BF05F0C4FC044600BF3A
:1002B00000BFF9480078401CF749087000BF00BF34
:1002C000204605F0BBFC00BF00BF00BF03F05EF896
:1002D00000BF00BF00BF05F0ADFC044600BF00BF7B
:1002E000ED480078401EEC49087008460078A0B937
:1002F000EA480088002809DD00BF00BF204605F05D
:100300009DFC00BF00BF07F041FF0DE000BF00BF34
:10031000204605F093FC00BF06E000BF00BF20466A
:1003200005F08CFC00BF00BF00BF02F070FF012091
:10033000D8490870DA480078002848D100BF00BFCB
:1003400000BF05F077FC044600BF00BFD24800782C
:10035000401CD149087000BF00BF204605F06EFC6C
:1003600000BF00BF00BF05F034FA00BF00BF00BFF0
:1003700005F060FC044600BF00BFC7480078401E7F
:10038000C549087008460078A0B9C448008800280C
:1003900009DD00BF00BF204605F050FC00BF00BFD4
:1003A00007F0F4FE0DE000BF00BF204605F046FC5C
:1003B00000BF06E000BF00BF204605F03FFC00BFC5
:1003C00000BF00BF05F03BF90120B549087002A845
:1003D000002102230A46CDE9001008460DF0D3FDA6
:1003E0005BE72DED028B84B000245EE000BF00BF10
:1003F00000BF05F01FFC044600BF00BFA648007800
:10040000401CA549087000BF00BF204605F016FC3F
:1004100000BF00BF00BFA34890ED040A10EE101A01
:10042000084612F043FC41EC180B8DED008B9D4803
:10043000B0F90220B0F900109BA00EF051FE00BFF1
:1004400000BF00BF05F0F6FB044600BF00BF9248A6
:100450000078401E9049087008460078A0B98F487F
:100460000088002809DD00BF00BF204605F0E6FB3C
:1004700000BF00BF07F08AFE0DE000BF00BF2046AE
:1004800005F0DCFB00BF06E000BF00BF204605F022
:10049000D5FB00BF00BF00BF03A8002114230A46FC
:1004A000CDE9001008460DF06EFD9FE70EB50BE09C
:1004B00002F0FAF802A800214FF4FA730A46CDE9D7
:1004C000001008460DF05FFDF2E730B58BB0044632
:1004D000002500BF05F076FA0AA80BF0E0F90AAA99
:1004E0000121084607F069FA00BF00BF00BF05F010
:1004F000A1FB054600BF00BF67480078401C664965
:10050000087000BF00BF284605F098FB00BF00BF81
:1005100000BF0AA8032100220592CDE90621089018
:10052000104680210C22634BCDE90132CDE9031046
:1005300006200023AFF28B025FA1009061480BF010
:1005400087FD0AA8032100220592CDE90621089023
:1005500010464FF4807119225B4BCDE90132CDE991
:10056000031005200023AFF2851258A100905A48CD
:100570000BF06EFD0AA8032100220592CDE90621A9
:100580000890104680210C22544BCDE90132CDE970
:10059000031005200023AFF2033251A1009055480B
:1005A0000BF056FD0AA8032100220592CDE9062191
:1005B000089010464FF4807119224F4BCDE901325B
:1005C000CDE9031005200023AFF257324BA1009074
:1005D0004D480BF03DFD00BF00BF00BF05F02AFBFA
:1005E000054600BF00BF2C480078401E2A4908700D
:1005F00008460078A0B929480088002809DD00BF16
:1006000000BF284605F01AFB00BF00BF07F0BEFD83
:100610000DE000BF00BF284605F010FB00BF06E05C
:1006200000BF00BF284605F009FB00BF00BF00BFA8
:100630000AA900200BF060FE0BB030BD10B500BF62
:10064000144800780028FBD102F0A0FE154890ED78
:10065000040A80ED0A0A90ED040AD0ED0A0A30EE91
:10066000600A80ED040A10BD10B5A82004F002FF56
:100670004FF4A06003F0AAF801F0F8FF4FF4E13066
:1006800004F08BFF214802F071FD4FF4E13002F0DD
:1006900083FF3DE0E4000020B40100207801002049
:1006A00037010020F0130020256409256409256620
:1006B0000D0A0000A40500206C6564207461736B52
:1006C00000000000E0040020680800207072696EDD
:1006D00074207461736B0000A40700202C0D0020AF
:1006E000476573747572655F4368616E67655F74B3
:1006F00061736B00680C0020F00F00206374726C53
:10070000207461736B0000002C0F002074B701008F
:10071000022140F2775002F063F902F03CFB02F054
:1007200088F84FF4FA6004F0FEFEFFF787FF39A067
:100730000EF0D6FC01203F4908704FF47A7004F0A7
:10074000F2FE10BD10B58AB00024FFF78DFF09A896
:1007500006F00AFF00BF00BF00BF05F06BFA0446B9
:1007600000BF00BF34480078401C3349087000BF08
:1007700000BF204605F062FA00BF00BF00BF09A815
:10078000032100220592CDE9062108901046802120
:100790000C222A4BCDE90132CDE9031003200023BE
:1007A000AFF2D92226A1009028480BF051FC00BFDF
:1007B00000BF00BF05F03EFA044600BF00BF1E4860
:1007C0000078401E1C49087008460078A0B92048EF
:1007D0000088002809DD00BF00BF204605F02EFA82
:1007E00000BF00BF07F0D2FC0DE000BF00BF2046F5
:1007F00005F024FA00BF06E000BF00BF204605F068
:100800001DFA00BF00BF00BF09A807F076F900205D
:100810000AB010BD7065726970686572616C732092
:10082000696E697420636F6D706C6574652E2E2E11
:100830000D0A0000E4000020B4010020E0020020C6
:100840007374617274207461736B00001C02002069
:1008500078010020704700BFFEE700BFFEE700BF41
:10086000FEE700BFFEE77047704700000CB50020B0
:10087000019000907648006840F480307449086028
:1008800000BF7348006800F4003000900198401CDD
:100890000190009818B90198B0F5A04FF1D16C48BB
:1008A000006800F4003010B10120009001E0002049
:1008B00000900098012846D165484030006840F01B
:1008C00080506349403108606248006840F440400D
:1008D000604908605E48083000685D49083108607A
:1008E0000846006840F4004008600846006840F48C
:1008F000A05008605848091F0860081F006840F0B1
:100900008070091F086000BF5148006800F0007047
:100910000028F9D040F20570504908604C48083072
:10092000006820F003004A49083108600846006862
:1009300040F00200086000BF45480830006800F041
:100940000C000828F8D10CBD10B54548006840F4EB
:100950007000434908603E48006840F001003C498F
:10096000086000203A4908310860394800683D496C
:100970000840374908603C48091D0860081F0068A6
:1009800020F48020091F0860002031490C310860E4
:10099000FFF76CFF4FF0006031498039086010BDEF
:1009A00070B500200022022300240221284D0835C2
:1009B0002D6805F00C0020B1042806D0082834D199
:1009C00007E02A4D2A4E356033E02A4D284E356027
:1009D0002FE01F4D2D1D2D68C5F380541C4D2D1D7E
:1009E0002D6805F03F0154B1224DB5FBF1F5184ECD
:1009F000361D3668C6F3881605FB06F209E01B4D66
:100A0000B5FBF1F5124E361D3668C6F3881605FBA8
:100A100006F20F4D2D1D2D68C5F301456D1C6B00B1
:100A2000B2FBF3F5124E356003E0104D104E356009
:100A300000BF00BF064D08352D68C5F303150E4EE7
:100A4000705D0B4D2D68C540094E356070BD0000CE
:100A5000003802400070004019544007003C02403A
:100A600088ED00E0FFFFF6FE103000240024F400C3
:100A70000000002040787D0104000020B5EEC00A8F
:100A8000F1EE10FA03D2F1EE400AB0EE600A7047C0
:100A9000F0EE400A9FED820A20EE801ADFED811A07
:100AA00081EE210A7047F0EE400A9FED7E0A20EEAB
:100AB000801ADFED7B1A81EE210A704730B50246BD
:100AC0000024002310785578284495784419087834
:100AD0004D7828448D7843199C4201D1002030BDC7
:100AE0000120FCE770B52DED108B82B004460D4659
:100AF0006D49B1F9000011F07CFD41EC190B94ED4A
:100B0000010A10EE101A084612F0D0F841EC1D0B45
:100B10006548D0ED040AB0EE600AFFF7B9FF10EEA9
:100B2000106A304612F0C2F841EC1F0BB0EE4F0ACB
:100B3000F0EE6F0A10F0ACFCB0EE40EAF0EE60EAC6
:100B400053EC1D2B51EC1E0B11F0BAFD41EC1B0BAD
:100B500094ED000A10EE101A084612F0A7F841ECC6
:100B60001D0B5148D0ED040AB0EE600AFFF790FF6C
:100B700010EE106A304612F099F841EC1F0BB0EEFF
:100B80004F0AF0EE6F0A10F0B7FBB0EE40EAF0EE5D
:100B900060EA53EC1D2B51EC1E0B11F091FD41EC62
:100BA0001C0B53EC1B2B11F077FA41EC1A0B53EC96
:100BB000192B11F091FF41EC180B11F03BFA286052
:100BC0003949B1F9020011F014FD41EC190B94ED13
:100BD000010A10EE101A084612F068F841EC1D0BDD
:100BE0003148D0ED040AB0EE600AFFF751FF10EE75
:100BF000106A304612F05AF841EC1F0BB0EE4F0A63
:100C0000F0EE6F0A10F078FBB0EE40EAF0EE60EA2A
:100C100053EC1D2B51EC1E0B11F052FD41EC1B0B44
:100C200094ED000A10EE101A084612F03FF841EC5D
:100C30001D0B1D48D0ED040AB0EE600AFFF728FF37
:100C400010EE106A304612F031F841EC1F0BB0EE96
:100C50004F0AF0EE6F0A10F01BFC8DED000B9DEDBE
:100C6000000B51EC100B11F0D9F941EC1E0B53ECB9
:100C70001D2B11F025FD41EC1C0B53EC1B2B11F02F
:100C80000BFA41EC1A0B53EC192B11F025FF41EC38
:100C9000180B11F0CFF9686002B0BDEC108B70BD7D
:100CA000D00F494000003443F013002010B52DED63
:100CB000068B044694ED000ADFEDF90A20EE200AC7
:100CC000DFEDF80A80EE201AB0EE419A94ED010AA9
:100CD000DFEDF30A20EE200ADFEDF20A80EE201AA3
:100CE000F0EE419A94ED020ADFEDED0A20EE200AC3
:100CF000DFEDEC0A80EE201AB0EE41AAEA4890ED52
:100D0000070AF0EE400A0120B0EE490A02F051F85D
:100D1000F0EE40AAE54890ED000A30EE2A0A80ED98
:100D2000000AB5EEC09AF1EE10FA03D19FEDE00A89
:100D300080ED000ADD4890ED000ADFEDDE0AB4EE3A
:100D4000E00AF1EE10FA04DD9FEDDA0A80ED000A08
:100D50000DE0D64890ED000ADFEDD70AB4EEE00AC8
:100D6000F1EE10FA03D29FEDD40A80ED000ACE48CE
:100D700090ED080AF0EE400A0220B0EE690A02F097
:100D800018F8B0EE408ACD4890ED000A30EE080A1F
:100D900080ED000AF5EEC09AF1EE10FA03D19FED56
:100DA000C40A80ED000AC54890ED000ADFEDC10AD3
:100DB000B4EEE00AF1EE10FA04DD9FEDBE0A80ED1C
:100DC000000A0DE0BD4890ED000ADFEDBB0AB4EE6D
:100DD000E00AF1EE10FA03D29FEDB70A80ED000AA7
:100DE000B14890ED090AF0EE400A0320B0EE4A0A3D
:100DF00001F0DFFFF0EE408AB14890ED000A30EEDE
:100E0000280A80ED000AB5EEC0AAF1EE10FA03D16F
:100E10009FEDA70A80ED000AA94890ED000ADFEDDA
:100E2000A50AB4EEE00AF1EE10FA04DD9FEDA10A86
:100E300080ED000A0DE0A24890ED000ADFED9E0A69
:100E4000B4EEE00AF1EE10FA03D29FED9B0A80EDBA
:100E5000000A0120954991ED000A01F003FF0220EC
:100E6000964991ED000A01F0FDFE0320944991EDB1
:100E7000000A01F0F7FEBDEC068B10BD70B52DED3C
:100E8000108B82B005460C46B7EE000AB0EE408AE1
:100E9000002695ED020ADFED8B0A20EE200AF0EE27
:100EA000000A20EE200A10EE101A084611F0FEFE8D
:100EB00041EC1A0B95ED010A10EE101A084611F0DC
:100EC000F5FE41EC1E0B9FED800B10F045FB8DED08
:100ED000000B9FED7F0B53EC102B9DED000B51ECA5
:100EE000100B11F095F941EC1F0B53EC1E2B11F078
:100EF000E7FB41EC1C0B95ED000AFEEE000A20EE2C
:100F0000200A10EE101A084611F0D0FE41EC1D0B1D
:100F100053EC1C2B11F0C0F841EC1B0B53EC1A2BBB
:100F200011F0BAF841EC190B11F084F8206095ED3E
:100F3000020ADFED640A20EE200AF0EE000A20EE3D
:100F4000200A10EE101A084611F0B0FE41EC1A0B00
:100F500095ED010A10EE101A084611F0A7FE9FED5C
:100F60005A0BCDE9000110F0F7FAB0EE40FAF0EEBE
:100F700060FA9FED570B53EC102B51EC1F0B11F047
:100F800047F941EC1E0B9DED000B53EC102B11F0BB
:100F900097FB41EC1C0B95ED000AFEEE000A20EEDB
:100FA000200A10EE101A084611F080FE41EC1D0BCD
:100FB00053EC1C2B11F090FD41EC1B0B53EC1A2B46
:100FC00011F06AF841EC190B11F034F8A06095EDBE
:100FD000000AD5ED020A9FED3B1A60EE810AB0EEE1
:100FE000001A00EE810A84ED010AD4ED000AB0EE89
:100FF000600AFFF743FDDFED380AB4EEE00AF1EED8
:1010000010FA08DB94ED000ADFED330A80EE201AB7
:10101000B0EE418A2AE0D4ED010AB0EE600AFFF793
:101020002DFDDFED2D0AB4EEE00AF1EE10FA08DB3B
:1010300094ED010ADFED280A80EE201AB0EE418A15
:1010400014E0D4ED020AB0EE600AFFF717FDDFED01
:10105000220AB4EEE00AF1EE10FA07DB94ED020A80
:10106000DFED1D0A80EE201AB0EE418AB0EE480A8C
:10107000FFF704FDB0EE408A00260BE004EB86008B
:1010800090ED000AC0EE080A04EB8600C0ED000AED
:10109000701CC6B2032EF1DB02B0BDEC108B70BD2C
:1010A0000060DB4654363643F01300204800002031
:1010B000000000000000AF440000AFC44C0000205E
:1010C000500000208FC2F53D0000000000000840E5
:1010D00000000000000000400080224400B52DED1B
:1010E0000A8B81B0B0EE409A9FEDFB0AF0EE40AA69
:1010F0001FED110AB0EE40BA9FEDF80AF0EE40BACB
:101100001FED150AF0EE409A1FED170AB0EE40CA27
:101110001FED190AF0EE40CA1FED1B0AB0EE40AAFF
:1011200068460DF009F900EE100AB8EE400AF1EE3B
:10113000040A20EE200ADFEDEA0A80EE201AB0EE63
:1011400041AAE84890ED000A3AEE400AF0EE40CAA3
:1011500080ED00AAE44890ED040A39EE400AB0EEB2
:10116000408A39EE880AF0EE409AE04890ED000A95
:1011700038EE400AB0EE40CA2BEE8C0AC0EE2C0AC4
:101180002AEE880A0BEE290A30EE800AF0EE408A39
:101190009FEDD70AF4EEC08AF1EE10FA04DB9FED62
:1011A000D40AF0EE408A0AE09FEDD20AF4EEC08A3B
:1011B000F1EE10FA03D29FEDCF0AF0EE408ACB4851
:1011C00080ED008AB1EE680A01B0BDEC0A8B00BD6B
:1011D00070B52DED108B88B004460D46B0EE408AF8
:1011E0001FED4D0A10EE106A1FED4F0AF0EE408A17
:1011F0001FED510AB0EE409A1FED530AB0EE40EADF
:101200001FED550AF0EE40EA07A80DF095F800EE44
:10121000100AB8EE400AF1EE040A20EE200ADFEDD3
:10122000B00A80EE201AF0EE41EAB34890ED000AD1
:101230003EEEC00AB0EE40EAC0ED00EA94ED000ACE
:10124000B8EEC00ADFEDAD0A20EE200AB0EE40AAEB
:1012500094ED010AB8EEC00ADFEDA80A20EE200ADC
:10126000F0EE40AAB1EE4A0ADFEDA50A20EE200A10
:101270008DED060A9FEDA20A2AEE000A8DED050A01
:101280009FED9F0A2AEE800A8DED040A9FED9C0ACD
:101290002AEE800A8DED030A9DED060ADDED040AB3
:1012A00030EE200A8DED010A9DED050ADDED030A01
:1012B00030EE200A8DED020A9DED010A10EE101AA3
:1012C000084611F0F3FC41EC1C0B9DED020A10EEF8
:1012D000101A084611F0EAFC41EC1D0BB0EE4C1A56
:1012E000F0EE6C1AB0EE4D0AF0EE6D0A0FF0F0FE63
:1012F000B0EE40BAF0EE60BA51EC1B0B10F09AFE63
:1013000009EE900AB0EE480AFFF7C2FBB0EE408A41
:101310009DED010A20EE000ADDED020A9DED021AA4
:1013200000EE810A10EE101A084611F0BFFC41ECE5
:101330001C0BB0EE4C0AF0EE6C0A10F00DF9B0EE9A
:1013400040BAF0EE60BA51EC1B0B10F073FE06468B
:1013500039EE880A10EE101A084611F0A7FC41EC8D
:101360001C0BB0EE4C0AF0EE6C0A0FF0C5FFB0EEAD
:1013700040BAF0EE60BA304611F098FC41EC1D0B1B
:1013800053EC1B2B11F09CF941EC1F0B10F052FE9B
:1013900009EE100A39EE880A10EE101A084611F00C
:1013A00085FC41EC1C0BB0EE4C0AF0EE6C0A10F020
:1013B0006FF8B0EE40BAF0EE60BA304611F076FC4D
:1013C00041EC1D0B53EC1B2B11F07AF941EC1F0B78
:1013D00010F030FE08EE900A89EE0E0A424880EDC9
:1013E000010A88EE8E0A80ED020A464890ED000A56
:1013F00030EE090A444880ED000A444890ED000AA6
:1014000030EE280A404880ED010A90ED000A85ED93
:10141000000A90ED010A85ED010A90ED000A3948B5
:1014200080ED000A384890ED010A384880ED000A46
:1014300008B0BDEC108B70BD70B52DED108B82B077
:10144000B0EE408A04461FEDE60A10EE105A1FED7A
:10145000E80AF0EE408A1FEDEA0AB0EE40FA1FED0E
:10146000EC0A10EE106A1FEDEE0AF0EE40FA1FEDE6
:10147000F00A8DED010A1FEDF20A8DED000ADFED95
:10148000240A88EE200ADFED230A20EE200AB0EEBF
:10149000408AB5EEC08AF1EE10FA63DB14B1012C7C
:1014A0005FD145E09FED1C0A10EE105A9FED1B0A1C
:1014B000F0EE408A9FED1A0AB0EE40FA9FED190A4D
:1014C00010EE106A9FED180AF0EE40FA9FED170A31
:1014D0008DED010A45E0000000008C423333C3402B
:1014E00000007A4458000020F0130020540000202F
:1014F00000004844000048C46C000020C37DF43D57
:101500002905353F5C0000206400002060000020B9
:10151000D00F494000003443F628624280608E3C80
:10152000D34D42C06666D0425F48E238CBA1454009
:101530009FEDFE0A10EE105A9FEDFD0AF0EE408A74
:101540009FEDFC0AB0EE40FA9FEDFB0A10EE106A28
:101550009FEDFA0AF0EE40FA9FEDF90A8DED010ACF
:1015600000BF36E014B1012C32D118E09FEDF50A2E
:1015700010EE105A9FEDF40AF0EE408A9FEDF30A48
:10158000B0EE40FA9FEDF20A10EE106A9FEDF10AFC
:10159000F0EE40FA9FEDF00A8DED010A18E09FEDA4
:1015A000EF0A10EE105A9FEDEE0AF0EE408A9FED22
:1015B000ED0AB0EE40FA9FEDEC0A10EE106A9FEDD6
:1015C000EB0AF0EE40FA9FEDEA0A8DED010A00BF4A
:1015D00000BF9DED010A0FEE880A10EE101A0846B2
:1015E00011F064FB41EC1E0BB0EE4E0AF0EE6E0AF9
:1015F0000FF04EFFB0EE40CAF0EE60CA304611F078
:1016000055FB41EC1D0B53EC1C2B11F059F841EC30
:101610001A0BB0EE4F0A08EE880A10EE101A0846B0
:1016200011F044FB41EC1E0BB0EE4E0AF0EE6E0AD8
:101630000FF02EFFB0EE40CAF0EE60CA284611F05F
:1016400035FB41EC1D0B53EC1C2B11F039F841EC30
:101650001B0B53EC1A2B10F01FFD41EC190B10F073
:10166000E9FC00909DED000A02B0BDEC108B70BD4E
:101670002DE9F0432DED108B8BB0B0EE408A04467F
:101680009FEDBC0A10EE105A9FEDBA0A10EE106AD8
:101690009FEDB80A10EE107A9FEDB60AF0EE408A80
:1016A0009FEDB40A10EE108A9FEDB20A10EE109A68
:1016B0009FEDB00A8DED0A0AB5EEC08AF1EE10FA80
:1016C0002EDB14B1012C2AD110E09FEDAB0A10EEF5
:1016D000105A9FEDAA0A10EE106A9FEDA90A10EEAB
:1016E000107A9FEDA80AF0EE408A18E09FEDA60A56
:1016F00010EE105A9FEDA50A10EE106A9FEDA40A95
:1017000010EE107A9FEDA30A10EE108A9FEDA20A48
:1017100010EE109A9FEDA10AF0EE408A00BF2EE075
:1017200014B1012C2AD110E09FED9D0A10EE105A41
:101730009FED9C0A10EE106A9FED9B0A10EE107A46
:101740009FED9A0AF0EE408A18E09FED990A10EE9C
:10175000105A9FED980A10EE106A9FED970A10EE4E
:10176000107A9FED960A10EE108A9FED950A10EE02
:10177000109A9FED940AF0EE408A00BF00BF14B1AA
:10178000012C7DD150E028EE880A10EE101A084690
:1017900011F08CFA41EC1E0BB0EE4E0AF0EE6E0A20
:1017A0000FF076FEB0EE40CAF0EE60CA384611F097
:1017B0007DFA41EC1D0B53EC1C2B10F081FF41EC2A
:1017C0001A0B28EE880A10EE101A084611F06EFA6D
:1017D00041EC1F0BB0EE4F0AF0EE6F0A0FF08CFDDC
:1017E0008DED080B304611F061FA41EC1E0B9DEDBA
:1017F000080B53EC102B10F063FF41EC1C0B284638
:1018000011F054FA41EC1D0B53EC1C2B10F044FC6E
:1018100041EC1B0B53EC1A2B10F03EFC41EC190B66
:1018200010F008FC0A9000BFB0EE000A28EE000A93
:1018300020EE280A10EE101A084611F037FA41EC93
:101840001C0BB0EE4C0AF0EE6C0A0FF021FEB0EE6D
:1018500040AAF0EE60AA484611F028FA41EC1B0BB2
:1018600053EC1A2B10F02CFF41EC190BB0EE000AD0
:1018700028EE000A20EE280A10EE101A084600E0B2
:10188000D7E011F013FA41EC1C0BB0EE4C0AF0EE6D
:101890006C0A0FF031FDB0EE40AAF0EE60AA4046AF
:1018A00011F004FA41EC1B0B53EC1A2B10F008FF5B
:1018B00028EE880ACDE9040110EE101A084611F04E
:1018C000F5F941EC1D0BB0EE4D0AF0EE6D0A0FF08C
:1018D000DFFDB0EE40BAF0EE60BA384611F0E6F93E
:1018E00041EC1C0B53EC1B2B10F0EAFE41EC1A0BE5
:1018F00028EE880A10EE101A084611F0D7F941ECCC
:101900001E0BB0EE4E0AF0EE6E0A0FF0F5FCB0EED4
:1019100040DAF0EE60DA304611F0C8F941EC1F0B06
:1019200053EC1D2B10F0CCFE4EE0000052B8AA4242
:101930003718EA3B871631C0AE4708425D8AAB3C98
:101940005C8F923F295C6E42C2A38D3CA24546C08B
:101950004A0C08416002B73BB81E5DC03D0A904288
:10196000B3EF8A393B015DBF333361426492913CEE
:101970009EEF8FC0000000003D0A6740D12287C063
:10198000E17A5DC29CC4803F295C12C233337F413F
:1019900048E15CC2D7A3A4418FC26D4133C4213F4B
:1019A000355EDE40FCA9B5C014AE69C25BB17F3FB5
:1019B000A4705FC2F2D20D40508DF73F9A99574202
:1019C000000044C1AAF1023F41EC1B0B284611F074
:1019D0006DF941EC1C0B53EC1B2B10F05DFB53EC31
:1019E0001A2BCDE900019DED000B51EC100B10F00E
:1019F00053FBCDE902019DED040B53EC102B9DED43
:101A0000020B51EC100B10F047FB53EC192BCDE9F6
:101A100006019DED060B51EC100B10F03DFBCDE9DE
:101A200008019DED080B51EC100B10F003FB0A9020
:101A300000BF00BF9DED0A0A0BB0BDEC108BBDE8E6
:101A4000F08310B52DED108B82B00446B0EE000A85
:101A5000B0EE40BA1FED390AF0EE40BA9FEDFE0A33
:101A6000B0EE40CAB0EE000AF0EE40CA1FED3F0AE9
:101A7000B0EE40DA9FEDF80AF0EE40DA1FED430ACF
:101A8000B0EE409A1FED450AB0EE40EA1FED470A5E
:101A9000F0EE40EA1FED490AB0EE40FA1FED4B0AA6
:101AA000F0EE40FA1FED4D0A8DED000A1FED4F0AD2
:101AB000B0EE40AA1FED510AF0EE40AA14B1012C7D
:101AC00072D138E001A80CF037FC00EE100AB8EE35
:101AD000400AF1EE040A20EE200ADFEDE00A80EE73
:101AE000201AB0EE41AADE4890ED000A3AEE400A14
:101AF0008DED000A80ED00AADA48B0F9000000EE92
:101B0000100AF8EEC00AD848B0F9000000EE100A3A
:101B1000B8EEC00A70EEC08AD44890ED000A78EEA4
:101B2000C09AF0EE4BEAB0EE6BFAF0EE4CFAD04809
:101B300090ED008A38E001A80CF0FEFB00EE100AE0
:101B4000B8EE400AF1EE040A20EE200ADFEDC30AE7
:101B500080EE201AF0EE41AAC64890ED000A3AEE57
:101B6000C00A8DED000AC0ED00AABE48B0F902001F
:101B700000EE100AF8EEC00ABB48B0F9020000EE11
:101B8000100AB8EEC00A70EEC08ABB4890ED000A99
:101B900078EEC09AF0EE6CEAB0EE4DFAF0EE6DFA27
:101BA000B64890ED008A00BF00BF38EE280AB0EEBC
:101BB000408A9FEDB30AB4EEC08AF1EE10FA04DD5C
:101BC0009FEDAF0AB0EE408A0AE09FEDAE0AB4EE98
:101BD000C08AF1EE10FA03D29FEDAA0AB0EE408A55
:101BE000B0EE680AFEF74AFFB0EE40EAB2EE040A31
:101BF000B4EEC0EAF1EE10FA24D814B1012C1CD1D5
:101C00000DE01FEDA40A9A4880ED000AB6EE000A26
:101C1000B0EE40BA1FEDA90AB0EE40CA0DE01FEDCC
:101C2000AB0A964880ED000AB6EE000AF0EE40CA14
:101C30001FEDB00AF0EE40DA00BF00BF1FEDB30A9F
:101C4000B0EE409A2FEEA91A9DED000AC1EE000AEF
:101C50002EEEA80A0FEE480A30EE600AB0EE409A67
:101C600014B1012C08D103E0814880ED008A03E023
:101C7000824880ED008A00BF00BF9FED830AB4EE6A
:101C8000C09AF1EE10FA04DD9FED7F0AB0EE409AA3
:101C90000AE09FED7E0AB4EEC09AF1EE10FA03D28C
:101CA0009FED7A0AB0EE409AB0EE490A02B0BDEC60
:101CB000108B10BDDFED766AB0EE661ADFED756A47
:101CC000F0EE661ADFED746AB0EE662ADFED706A38
:101CD000F0EE662ADFED6F6AB0EE663ADFED6E6A0F
:101CE000F0EE663A5FEDDD6AB0EE660A5FEDDF6A40
:101CF000F0EE660A5FEDE16AB0EE664A5FEDE36A18
:101D0000F0EE664A5FEDE56AB0EE665A5FEDE76AAF
:101D1000F0EE665A5FEDE96AB0EE666A10B101282E
:101D200054D129E04F49D1ED016A4F4991ED017A33
:101D300076EEC76AF0EE660A584991ED007AF0EE49
:101D4000007AF0EE606A47EEC76A554991ED007A75
:101D500076EE876AF0EE664AB0EE415AF0EE615ACE
:101D6000B0EE426A4D49D1ED006A4D49C1ED006ABD
:101D70004A49C1ED000A29E03A49D1ED026A3A49DF
:101D800091ED027A76EEC76AF0EE660A454991ED6A
:101D9000007AF0EE007AF0EE606A47EEC76A4249D8
:101DA00091ED007A76EE876AF0EE664AB0EE625AFE
:101DB000F0EE435AB0EE636A3A49D1ED006A3A490F
:101DC000C1ED006A3749C1ED000A00BF00BF70EEE7
:101DD000C46A66EE856A45EEA06A46EE246AB0EEF5
:101DE000660AF3EE046AB4EEE60AF1EE10FA04DDD8
:101DF000F3EE046AB0EE660A0AE0FBEE046AB4EEA3
:101E0000E60AF1EE10FA03D2FBEE046AB0EE660ABF
:101E1000704770B52DED108B82B00020FFF74AFFA0
:101E200010EE105A0120FFF745FF10EE106A0E4821
:101E3000D0ED040AB0EE600AFEF72AFE10EE104A5A
:101E4000304610F033FF41EC1D0B204610F02EFF02
:101E500041EC1F0B2AE00000ACC5273700007A4494
:101E6000800000201C140020F013002078000020C7
:101E700070000020840000207C00002074000020FE
:101E80000000FA440000FAC40000E1430000E1C38E
:101E9000A69B443C6F12033A0AD7A33D880000205A
:101EA000900000208C00002094000020B0EE4F0A2B
:101EB000F0EE6F0A0FF0ECFAB0EE40EAF0EE60EAF6
:101EC00053EC1D2B51EC1E0B10F0FAFB41EC1B0BDD
:101ED000284610F0EBFE41EC1D0B204610F0E6FE0C
:101EE00041EC1F0BB0EE4F0AF0EE6F0A0FF004FA50
:101EF000B0EE40EAF0EE60EA53EC1D2B51EC1E0B05
:101F000010F0DEFB41EC1C0B53EC1B2B10F0C4F863
:101F100041EC190BFE4890ED000A10EE101A08462D
:101F200010F0C4FE41EC1A0B53EC192B10F0B4F86E
:101F300041EC180B10F07EF8F5490860304610F0BF
:101F4000B5FE41EC1D0B204610F0B0FE41EC1F0B1E
:101F5000B0EE4F0AF0EE6F0A0FF0CEF9B0EE40EAA5
:101F6000F0EE60EA53EC1D2B51EC1E0B10F0A8FBB9
:101F700041EC1B0B284610F099FE41EC1D0B20464E
:101F800010F094FE41EC1F0BB0EE4F0AF0EE6F0A1A
:101F90000FF07EFA8DED000B9DED000B51EC100B58
:101FA00010F03CF841EC1E0B53EC1D2B10F088FB9D
:101FB00041EC1C0B53EC1B2B10F06EF841EC190B91
:101FC000D34890ED010A10EE101A084610F06EFE8C
:101FD00041EC1A0B53EC192B10F05EF841EC180B86
:101FE00010F028F8CA49486002B0BDEC108B70BDF3
:101FF00010B52DED0A8B82B004469FEDC60AB0EEF7
:1020000040AA9FEDC40AF0EE408A01A80CF094F9B2
:1020100000EE100AB8EE400AF1EE040A20EE200AA3
:102020005FED720A80EE201AF0EE418ABA4890ED18
:10203000000A38EEC00AB0EE40AAC0ED008A94ED66
:10204000000A20EE000AD4ED010A94ED011A00EE18
:10205000810A10EE101A084610F028FE41EC1C0B05
:10206000B0EE4C0AF0EE6C0A0FF076FAB0EE40BA21
:10207000F0EE60BA51EC1B0B0FF0DCFF08EE100A1B
:10208000A64890ED000A38EE400AC0EE0A0AB0EE0B
:10209000609AA34890ED000A20EE080AA148D0ED0E
:1020A000000A00EE890AF0EE409A9C4880ED008A12
:1020B000B1EE040AB4EEC08AF1EE10FA03D89FED37
:1020C000950AF0EE409AB0EE690A02B0BDEC0A8BB8
:1020D00010BD10B52DED068B82B004469248B0F9C4
:1020E000000000EE100AB8EEC00A8DED000A8E481E
:1020F000B0F9020000EE100AB8EEC00A8DED010A38
:1021000021466846FEF7EEFC8749B1F90010874A80
:10211000B2F90020881A10F06CFA41EC190B8249D0
:10212000B1F90210814AB2F90220881A10F061FA5E
:1021300041EC1A0BB0EE491AF0EE691AB0EE4A0AF9
:10214000F0EE6A0A0EF0C4FFB0EE408AF0EE608A4C
:1021500051EC180B0FF06EFF00EE100A02B0BDEC50
:10216000068B10BD10B52DED0A8B82B09FED690A6C
:1021700010EE104A9FED670AB0EE408A00200090F2
:1021800001906846FFF7A5FF10EE104A6846FFF77A
:102190002FFFB0EE408A9FED660AB4EEC08AF1EEE2
:1021A00010FA04DB9FED620AB0EE408A0AE09FED70
:1021B000610AB4EEC08AF1EE10FA03D89FED5D0A11
:1021C000B0EE408A18EE100A10F070FD41EC1A0BC8
:1021D000204610F06BFD41EC1C0BB0EE4C0AF0EE0B
:1021E0006C0A0FF089F8B0EE40BAF0EE60BA53EC2A
:1021F0001A2B51EC1B0B10F063FA41EC190B0FF08A
:1022000019FF4949486018EE100A10F04FFD41ECE3
:102210001A0B204610F04AFD41EC1C0BB0EE4C0AA4
:10222000F0EE6C0A0FF034F9B0EE40BAF0EE60BA9E
:1022300053EC1A2B51EC1B0B10F042FA41EC190B2A
:102240000FF0F8FE3849886002B0BDEC0A8B10BD73
:1022500010B5FFF787FFFFF7DCFD10BD0EB50020BE
:1022600000900190029034480078012802D1FFF7D5
:10227000EFFF04E03048007808B9FFF7CAFD2A48AC
:10228000D0ED040AB0EE600AFEF728FF204880ED8A
:10229000020A90ED010ADFED260AB4EEE00AF1EE43
:1022A00010FA04DB9FED220A80ED010A0DE01848C8
:1022B00090ED010ADFED1F0AB4EEE00AF1EE10FA2C
:1022C00003D89FED1C0A80ED010A114890ED000A29
:1022D000DFED170AB4EEE00AF1EE10FA04DB9FED31
:1022E000140A80ED000A0DE0094890ED000ADFEDC8
:1022F000110AB4EEE00AF1EE10FA03D89FED0D0AD0
:1023000080ED000A69460248FEF7B8FD0B4817E069
:102310004814002000000000BC000020B80000208D
:1023200040000020440000201C140020F013002076
:102330000000FA430000FAC33C0000203E000020E9
:10234000007818B16846FEF7B1FC01E000F023FD0B
:102350000EBD00B52DED068B83B01FED120AB0EE59
:10236000408A1FED140AF0EE408A02A80BF0E4FF49
:1023700000EE100AB8EE400AF1EE040A20EE200A40
:10238000DFEDAA0A80EE201AF0EE418AA84890ED0F
:10239000000A38EEC00AB0EE408AC0ED008AA548B7
:1023A00090ED000AB8EEC00AA348D0ED000A30EE66
:1023B000600ABDEEC00A8DED000AA04890ED000A4B
:1023C000B8EEC00A9E48D0ED000A30EE600ABDEEBD
:1023D000C00A8DED010A9B48D0ED040AB0EE600AF8
:1023E00099496846FEF7F4FE924890ED000AB8EE6F
:1023F000C00A914880ED000A904890ED000AB8EEBE
:10240000C00A8F4880ED000A8F4890ED000ABDEEAB
:10241000C00A10EE100A00B28A4908808A4890ED7E
:10242000010ABDEEC00A10EE100A00B248808748CB
:1024300090ED000AB8EEC00A8548D0ED000A30EEF3
:10244000600AB0EE409A834890ED000AB8EEC00AE8
:102450008148D0ED000A30EE600AF0EE409A7F48E5
:1024600090ED000AB8EEC00A7D48D0ED000A30EECB
:10247000600AB0EE40AA89EE080A084680ED070A15
:1024800089EE880A80ED080A8AEE080A80ED090ABA
:102490006E4890ED000AB8EEC00A6D4880ED000A63
:1024A0006C4890ED000AB8EEC00A6B4880ED000A57
:1024B0006A4890ED000AB8EEC00A694880ED000A4B
:1024C00003B0BDEC068B00BD70B52DED108B5D48E3
:1024D000D0ED040AB0EE600AFEF7DAFA10EE104A08
:1024E0000020FFF7AEFA10EE105A0120FFF7A9FA0C
:1024F00010EE106A534890ED010A5A4880ED010A27
:10250000504890ED020A574880ED020A304610F01C
:10251000CDFB41EC1C0B204610F0C8FB41EC1E0B20
:10252000B0EE4E0AF0EE6E0A0EF0B2FFB0EE40DAF8
:10253000F0EE60DA53EC1C2B51EC1D0B10F0C0F8E0
:1025400041EC1A0B284610F0B1FB41EC1C0B204665
:1025500010F0ACFB41EC1E0BB0EE4E0AF0EE6E0A32
:102560000EF0CAFEB0EE40DAF0EE60DA53EC1C2B4F
:1025700051EC1D0B10F0A4F841EC1B0B53EC1A2B83
:102580000FF08AFD41EC190B0FF054FD08EE100A14
:10259000304610F08BFB41EC1C0B204610F086FB04
:1025A00041EC1E0BB0EE4E0AF0EE6E0A0EF0A4FEE9
:1025B000B0EE40DAF0EE60DA53EC1C2B51EC1D0B60
:1025C00010F07EF841EC1A0B284610F06FFB41EC3E
:1025D0001C0B204610F06AFB41EC1F0BB0EE4F0ABB
:1025E000F0EE6F0A0EF054FFB0EE40EAF0EE60EA53
:1025F00051EC1E0B0FF012FD41EC1D0B53EC1C2B8C
:1026000010F05EF841EC1B0B53EC1A2B0FF044FD5D
:1026100041EC190B0FF00EFD08EE900A124880ED08
:10262000008AC0ED018ABDEC108B70BD00007A44B9
:10263000B400002024000020A40000202800002076
:10264000A8000020F0130020AC000020140000209F
:1026500098000020180000209C0000201C00002092
:10266000A00000201C140020481400201CB50121EB
:10267000022001F03FFC4FF40070009001208DF823
:10268000040000208DF8060003208DF805000120CD
:102690008DF8070069460D4801F08EF94FF400717E
:1026A0000A4801F005FA1CBD0948006808B9012074
:1026B00000E00020064908607047002004490860D7
:1026C0007047012002490860704700000004024082
:1026D000A482404210B504F0DDFF402002F098FED5
:1026E00088B1A848006828B1A7480068401CA649DE
:1026F000086004E0A4480068401EA3490860402028
:1027000002F091FE22E04FF4007002F081FE98B1D9
:102710009C48001D006828B19C480068401E9B49E9
:10272000086004E099480068401C984908604FF42C
:10273000007002F078FE09E0202002F069FE28B166
:1027400093A00CF0CDFC202002F06DFE04F0B3FF4E
:1027500010BD10B504F09EFF012002F059FE28B113
:1027600090A00CF0BDFC012002F05DFE04F0A3FF80
:1027700010BD10B504F08EFF4FF4006002F048FE6B
:1027800090B18D48006828B18C480068401C8B4986
:10279000086004E089480068401E884908604FF4DA
:1027A000006002F040FE16E04FF4804002F030FE80
:1027B00088B18348006828B182480068401E81497A
:1027C000086004E07F480068401C7E4908604FF4C0
:1027D000804002F028FE04F06EFF10BD10B504F03A
:1027E00059FF102002F014FE20B177480068102035
:1027F00002F019FE04F05FFF10BD10B504F04AFFAF
:10280000022002F005FE88B16D480C38006828B13E
:102810006E480068401C6D49086004E06B48006821
:10282000401E6A490860022002F0FDFD04F043FFEB
:1028300010BD00B585B001210E2001F05BFB44F214
:10284000F130009000208DF8040003208DF8050081
:1028500001208DF8070069465D4801F0ADF84FF49E
:102860004060009000208DF8040003208DF80500E2
:1028700001208DF807006946564801F09DF80120B7
:1028800000906946544801F097F84A200090694644
:10289000524801F091F84FF470714D4801F008F979
:1028A0004FF440614B4801F003F901214A4801F01F
:1028B000FFF84A21494801F0FBF80121880301F0A3
:1028C00073FB0621022001F07AFC0921022001F0AD
:1028D00076FC0021022001F072FC0521022001F0AB
:1028E0006EFC0B21032001F06AFC0421022001F0A0
:1028F00066FC0E21022001F062FC0121042001F09F
:102900005EFC44F67320029000208DF80C000C2031
:102910008DF80D0001208DF80E0002A802F012FDC6
:1029200017208DF8100000208DF8110002208DF87E
:10293000120001208DF8130004A800F04CFF0A20BB
:102940008DF8100004A800F046FF07208DF8100055
:1029500004A800F040FF06208DF8100004A800F045
:102960003AFF28208DF8100000208DF81100022079
:102970008DF8120001208DF8130004A800F02BFF41
:1029800005B000BD1C0241421800002014000020C8
:102990006F6E2074686520746F70206E6F77210DE4
:1029A0000A0000006F6E20626F74746F6D206E6F8E
:1029B00077210D0A00000000288241421C000020FF
:1029C00018024242280000200082404224000020D9
:1029D00000080240000C02400004024000100240C7
:1029E00030B58BB004460D460121084601F0DCFAF3
:1029F0000121102001F07EFA01220921FE4801F098
:102A000066F801220B21FC4801F061F84FF42060C8
:102A1000099002208DF8280003208DF8290000205D
:102A20008DF82A0001208DF82B0009A9F24800F04A
:102A3000C3FFA720ADF818000020ADF81A0044F637
:102A40001F6007900020ADF8200006A9EB4801F0B8
:102A5000C6FE7020ADF804000120ADF8060002208B
:102A6000ADF8100001A9E54801F04EFF01A9E348C7
:102A700001F083FF0121E14802F02BFB0821DF4830
:102A800002F0CFF80821DD4802F0D4F80121DB483C
:102A900001F010FF0121D94801F02AFF012108208F
:102AA00001F071FA0121052001F024FA022200212F
:102AB000D34801F00CF802220121D14801F007F8B7
:102AC00002221146CE4801F002F802220321CC482E
:102AD00000F0FDFF0F20099002208DF82800032050
:102AE0008DF8290000208DF82A0001208DF82B0098
:102AF00009A9C34800F060FF0C20099001208DF85F
:102B0000280009A9BF4800F057FF3020099009A903
:102B1000BB4800F051FF0220ADF818000020ADF8CE
:102B20001A0040F2775007900020ADF8200006A967
:102B3000B54801F054FE7020ADF804000120ADF856
:102B400006000220ADF8100001A9AF4801F0DCFE3C
:102B500001A9AD4801F011FF01A9AB4801F05AFFEE
:102B600001A9A94801F0BCFF0121A74802F0B1FA70
:102B70000821A54802F055F80821A34802F05AF8A8
:102B80000821A14802F063F808219F4802F068F884
:102B900001219D4801F08EFE01219B4801F0A8FE15
:102BA0000BB030BD70B504460D463DB92146964880
:102BB00002F005F800209549086009E0012D07D1D1
:102BC000C4F5AF61904801F0FAFF01208F49086019
:102BD00070BD70B504460D46012D07D121468A48C7
:102BE00001F0F1FF00208A49086008E03DB9C4F512
:102BF000AF61854801F0E7FF01208549086070BD9D
:102C000070B504460D464DB9C4F5AF617E4801F07C
:102C1000D8FF01207E49091F086009E0012D07D176
:102C20002146794801F0CDFF00207949091F08604D
:102C300070BD70B504460D4645B92146724801F095
:102C4000BCFF00207149091F08600AE0012D08D16E
:102C5000C4F5AF616C4801F0B0FF01206B49091F5A
:102C6000086070BD10B52DED028BB0EE408A0446B1
:102C7000F0EE488AB5EEC08AF1EE10FA03D2B1EE5A
:102C8000680AF0EE408A012C04D0022C1ED0032CDE
:102C900054D137E0B5EEC08AF1EE10FA08DBBCEE95
:102CA000E80A10EE101A88B20121FFF7C2FF0CE00B
:102CB000B5EEC08AF1EE10FA07D2BCEEE80A10EECB
:102CC000101A88B20021FFF7B4FF37E0B5EEC08AD2
:102CD000F1EE10FA08DBBCEEE80A10EE101A88B22A
:102CE0000121FFF75FFF0CE0B5EEC08AF1EE10FAAC
:102CF00007D2BCEEE80A10EE101A88B20021FFF7E6
:102D000051FF1BE0B5EEC08AF1EE10FA08DBBCEE15
:102D1000E80A10EE101A88B20121FFF771FF0CE0EB
:102D2000B5EEC08AF1EE10FA07D2BCEEE80A10EE5A
:102D3000101A88B20021FFF763FF00BF00BFBDEC8F
:102D4000028B10BD012806D002280CD0032811D018
:102D500004281ED116E000212B4A343211602B4A80
:102D6000121F116015E00021274A38321160274AEE
:102D700011600EE00021244A3C321160244A121FE7
:102D8000116006E00021204A40321160204A1160A3
:102D900000BF00BF704700B50120FFF7D3FF02203E
:102DA000FFF7D0FF0320FFF7CDFF0420FFF7CAFF96
:102DB00000BD2DE9F0412DED108B90B0F0EE40BA42
:102DC000F0EE60DA05469FED130AF0EE40FA9FED53
:102DD000120A10EE106A9FED110A8DED0E0A9FED9A
:102DE0000D0A8DED0D0A9FED0C0A10EE107A9FED85
:102DF0000B0A8DED0C0A13E00010024000000140A8
:102E00000000024000080240000C00408C024142D9
:102E1000940240426C09793A95BFD63382A8FB37B9
:102E20001FED040A8DED0B0A1FED050A10EE108A46
:102E30001FED060A8DED0A0A9FEDA20AB0EE40DAF8
:102E40009FEDA00AB0EE40EA9FED9E0AF0EE40EA48
:102E50009FED9C0AB0EE40FA9FED9B0AF4EEC0BADB
:102E6000F1EE10FA0ED29FED970A984880ED000A15
:102E70009FED940A964880ED000A9FED920A9548CE
:102E800080ED000A3BEEED8A012D04D0022D2FD0FB
:102E9000032D2CD159E00FA80BF04EFA00EE100ACA
:102EA000B8EE400AF1EE040A20EE200ADFED8A0AAD
:102EB00080EE201AB0EE41EA884890ED000A3EEE1E
:102EC000400AB0EE40DA80ED00EA854890ED000A55
:102ED00038EE400A80EE0DAAF0EE6FAA34469DED62
:102EE0000EBA7A4800680FF0E1FE41EC190B59E088
:102EF0000FA80BF021FA00EE100AB8EE400AF1EE2E
:102F0000040A20EE200ADFED740A80EE201AF0EEAB
:102F100041EA744890ED000A3EEEC00AB0EE40DA95
:102F2000C0ED00EA704890ED000A38EE400A80EEED
:102F30000DAADDED0DAA3C469DED0CBA6448006873
:102F40000FF0B4FE41EC190B2CE00FA80BF0F4F9D4
:102F500000EE100AB8EE400AF1EE040A20EE200A54
:102F6000DFED5D0A80EE201AB0EE41FA5F4890ED89
:102F7000000A3FEE400AB0EE40DA80ED00FA5C480D
:102F800090ED000A38EE400A80EE0DAADDED0BAAA6
:102F900044469DED0ABA4F4800680FF087FE41ECA9
:102FA000190B00BF00BF18EE100A0FF07FFE41ECB6
:102FB0001C0B53EC192B0FF06FF841EC190B2BEE97
:102FC0000A0A10EE101A08460FF070FECDE906014D
:102FD00020460FF06BFE53EC192BCDE900019DED5F
:102FE000000B51EC100B0FF06BFB41EC1C0B2AEEAD
:102FF000880A10EE101A08460FF058FE53EC1C2BEE
:10300000CDE902019DED020B51EC100B0FF044F8DD
:10301000CDE904019DED060B53EC102B9DED040B47
:1030200051EC100B0FF038F8CDE908019DED080BBD
:1030300051EC100B0EF0FEFF08EE900A012D04D0AB
:10304000022D0CD0032D1ED113E051EC190B0EF004
:10305000F1FF1E490860224880ED008A13E051EC20
:10306000190B0EF0E7FF1A4908601F4880ED008A2F
:1030700009E051EC190B0EF0DDFF164908601C4801
:1030800080ED008A00BF00BF9FED1A0AF4EEC08AEF
:10309000F1EE10FA04DD9FED170AF0EE408A0AE027
:1030A0009FED150AF4EEC08AF1EE10FA03D29FEDFF
:1030B000120AF0EE408AB0EE680A10B0BDEC108B38
:1030C000BDE8F081000000000000C842C000002000
:1030D000C4000020C800002000007A44D80000206E
:1030E000CC000020DC000020D0000020E000002008
:1030F000D40000200000AF440000AFC47FB50546F7
:103100000C460121022000F03EFF0295ADF804407C
:103110000020ADF80600ADF80C0001A9124801F03E
:103120005EFB01221146104801F0FAFF01210E4812
:1031300001F0DEFB1D208DF8000000208DF801005D
:103140008DF8020001208DF80300684600F043FB73
:103150007FBD10B50121044801F0F9FF01210248AB
:1031600002F006F810BD00000004004010B588B061
:1031700004460121082000F0BDFE0121480400F0B2
:1031800002FF07220521ED4800F0A1FC07220621DD
:10319000EA4800F09CFC6020069002208DF81C009C
:1031A0008DF81D0000208DF81E0001208DF81F00F5
:1031B00006A9E24800F000FC02940020ADF80C00E3
:1031C000ADF80E00ADF81000ADF814000C20ADF80D
:1031D000120002A9DA4801F092F80121D84801F062
:1031E00016F9012240F22551D54801F0C6F92620F2
:1031F0008DF8040000208DF805008DF806000120F0
:103200008DF8070001A800F0E6FA08B010BD002014
:1032100004E00021CB4A1154411CC8B20B28F8DB52
:103220000021C94A1170704710B504F033FA40F21A
:103230002551C34801F0DCF9F8B1C448007800B367
:10324000BF48001D0088BF49BF4A12788854BE4855
:103250000078401CBC490870BA480078552801D055
:10326000FFF7D5FFB84800780B2812D1B548007891
:10327000552803D10020B54908700AE0FFF7C7FFC1
:1032800007E0AF48001D0088C1B2AE48AE4A1278D0
:10329000815404F010FA10BD00BFA949098801F05B
:1032A00040010029F9D0A649091D0880704700B5E2
:1032B00002461078FFF7F0FF5078FFF7EDFF00BDF2
:1032C00000B5024603E01078FFF7E6FF521C1078C5
:1032D0000028F8D100BD00B50246002305E01078B3
:1032E000FFF7DAFF521C581CC3B20B2BF7DB00BDF3
:1032F00010B52DED028B9FED960AB0EE408A9548F1
:1033000090ED000A944880ED000A90ED000A934881
:10331000D0ED000A30EE600AB0EE408AB0EE480A06
:10332000FDF7ACFBDFED8E0AB4EEE00AF1EE10FA29
:103330001CDD894890ED000AB5EEC00AF1EE10FAE6
:103340000AD2B0EE480AFDF799FBDFED860A30EEAF
:10335000C00AB0EE408A09E0B0EE480AFDF78EFBE5
:10336000DFED800A30EE600AB0EE408A7E4890EDD4
:10337000000A30EE080A80ED000A774890ED000A56
:10338000764880ED000ABDEC028B10BD10B56D488B
:103390004078512802D0532864D164E06948C0784D
:1033A000000200B267498978084300EE100AB8EEBF
:1033B000C00ADFED6E0A80EE201AB1EE000A21EE9F
:1033C000000ADFED6B0A20EE200A6A4880ED000A51
:1033D0005C484079000200B25A490979084300EE7E
:1033E000100AB8EEC00ADFED610A80EE201AB1EED5
:1033F000000A21EE000ADFED5E0A20EE200A5E4898
:1034000080ED000A4F48C079000200B24D49897929
:10341000084300EE100AB8EEC00ADFED540A80EE51
:10342000201AB1EE000A21EE000ADFED510A20EE6B
:10343000200A524880ED000A4248407A000200B259
:103440004049097A084300EE100AB8EEC00ADFEDE1
:103450004C0A80EE201AB3EE050A31EE000A494804
:1034600080ED000A65E03748C078000200B23549B7
:103470008978084300EE100AB8EEC00A9FED3B1AA7
:10348000C0EE010A9FED400A20EE800A3F4880ED21
:10349000000A2C484079000200B22A490979084301
:1034A00000EE100AB8EEC00ADFED300A80EE201AF6
:1034B0009FED350A21EE000A354880ED000A2148CB
:1034C000C079000200B21F498979084300EE100A52
:1034D000B8EEC00ADFED250A80EE201A9FED2A0A19
:1034E00021EE000A1B4880ED000A1648407A0002CF
:1034F00000B21449097A084300EE100AF8EEC00A37
:103500009FED1F1A80EE810AF3EE050A30EE200AC5
:103510001C4880ED000AFFF7EBFE1E4890ED0A0AFA
:103520001148D0ED000A30EEC00A1A4880ED040AB6
:1035300000BF00BF01200549087010BD000C02400B
:103540000044004054140020E5000020E400002066
:1035500000000000FC0000200C01002008010020F9
:10356000000096430000B44304010020000000471F
:10357000CDCC1C41E8000020EC000020F000002031
:103580000000AA430001002000003443F80000209E
:10359000F4000020F013002010B588B0044601218B
:1035A000022000F0A7FC0121880400F0ECFC0722B7
:1035B0000A216E4800F08BFA07220B216B4800F0BD
:1035C00086FA4FF44060069002208DF81C008DF8BA
:1035D0001D0000208DF81E0001208DF81F0006A997
:1035E000624800F0E9F902940020ADF80C00ADF853
:1035F0000E00ADF81000ADF814000C20ADF812006C
:1036000002A95B4800F07BFE0121594800F0FFFE53
:10361000012240F22551564800F0AFFF27208DF8D7
:10362000040001208DF805008DF806008DF80700D4
:1036300001A800F0D0F808B010BD002004E000217F
:103640004C4A1154411CC8B20E28F8DB00214A4AEA
:103650001170704710B52DED028B84B000200390DF
:1036600002900190002400BF06E04249A01C085CC3
:1036700003A90855601CC4B2032CF6DB03A80DF0A7
:103680001FFEB0EE408AF0EE608A51EC180B0EF08F
:1036900083FF3A490880002406E03649A01D085CF3
:1036A00002A90855601CC4B2032CF6DB02A80DF079
:1036B00007FEB0EE408AF0EE608A51EC180B0EF077
:1036C0006BFF2E494880002407E02A4904F10A00D4
:1036D000085C01A90855601CC4B2032CF5DB01A8E5
:1036E0000DF0EEFDB0EE408AF0EE608A51EC180B62
:1036F0000EF052FF22490880012022490870224919
:10370000087004B0BDEC028B10BD10B503F0C2FF11
:1037100040F22551164800F06BFFC8B11448001D57
:1037200000881449144A1278885413480078401CC1
:10373000114908700F480078502801D0FFF77DFF2D
:103740000D4800780E2803D1FFF784FFFFF775FFBF
:1037500003F0B1FF10BD00BF0549098801F0400129
:103760000029F9D00249091D088070470004024071
:10377000004800405F1400201001002012010020CA
:10378000160100201A010020190100200948804775
:1037900009480047FEE7FEE7FEE7FEE7FEE7FEE733
:1037A000FEE7FEE7FEE7FEE704480549054A064B4B
:1037B00070470000490900088901000870350020A1
:1037C000703B0020703700207037002032490143E1
:1037D000324A1160704770B5002100230F22C4786F
:1037E0001CB32E4C246804F4E064C4F5E064C4F314
:1037F0000721C1F10404E3B20A4144789C40E1B2DC
:103800008478144021430C07210E254C057861551E
:10381000047804F01F050124AC4005786D11AD005B
:1038200005F1E025C5F8004109E0047804F01F0522
:103830000124AC401B4D0678761145F8264070BD3A
:10384000194A0A400243154B1B1F1A60704739B1D1
:10385000124A121D12680243104B1B1D1A6006E02B
:103860000E4A121D126882430C4B1B1D1A607047D2
:10387000042808D14FF0E021096941F004014FF01C
:10388000E022116107E04FF0E021096921F0040115
:103890004FF0E022116170470000FA050CED00E0E6
:1038A00000E400E080E100E080FFFF1F10B5044667
:1038B0009848844208D10121084600F086FB002187
:1038C000012000F082FB76E09348844208D1012178
:1038D000022000F07AFB0021022000F076FB6AE073
:1038E0008E48844208D10121042000F06EFB0021A3
:1038F000042000F06AFB5EE08948844208D101217F
:10390000082000F062FB0021082000F05EFB52E07E
:103910008448844208D10121102000F056FB002188
:10392000102000F052FB46E07F48844208D101217C
:10393000202000F04AFB0021202000F046FB3AE066
:103940007A48844208D10121402000F03EFB00214A
:10395000402000F03AFB2EE07548844208D1012156
:10396000802000F032FB0021802000F02EFB22E0BE
:103970007048844208D10121801500F026FB002107
:10398000A01500F022FB16E06B48844208D101210B
:10399000401500F01AFB0021601500F016FB0AE04C
:1039A0006648844207D10121001500F00EFB00217A
:1039B000201500F00AFB10BDF0B50A4600210023D7
:1039C000002400BF3DE0012505FA01F3156805EA72
:1039D00003049C4234D105684F000326BE40B54322
:1039E000056015794E00B5400668354305601579C8
:1039F000012D02D01579022D16D185684F000326BE
:103A0000BE40B543856055794E00B5408668354364
:103A10008560456801268E40B543456045689679C6
:103A20008E40B6B235434560C5684F000326BE40A0
:103A3000B543C560D5794E00B540C6683543C5600D
:103A4000491C1029BFD3F0BD4FF6FF710160002162
:103A5000017141718171C171704708B54FF48032B5
:103A60000092009A0A430092009AC261C161009AD2
:103A7000C261C2690092C269009208BD024600207C
:103A800013690B400BB1012000E000207047014694
:103A9000086980B270470246002053690B400BB1A1
:103AA000012000E0002070470146486980B270475D
:103AB00001837047418370470AB1018300E041836D
:103AC00070474161704742694A4042617047F0B5B2
:103AD000002300244D07ED0E02FA05F3CE1000F18D
:103AE000200555F826504E07F70E0F26BE40B54369
:103AF000CF1000F1200646F82750CE1000F1200527
:103B000055F8265045EA0304CE1000F1200545F88B
:103B10002640F0BD000002400004024000080240C0
:103B2000000C024000100240001402400018024045
:103B3000001C0240002002400024024000280240F5
:103B4000F948006840F00100F74908600020F64994
:103B500008310860F4480068F4490840F2490860F8
:103B6000F348091D0860F348EF4984310860F048C4
:103B70001038091D0860EC48006820F48020EA49EC
:103B800008600020E8490C310860E7498C31086082
:103B900070470021E44A921C11701146087070476A
:103BA00010B501460022002300204A11012A02D14B
:103BB000DD4C236808E0022A03D1DB4C7034236813
:103BC00002E0D94C7434236801F01F0201249440B0
:103BD0001C400CB1012000E0002010BD38B50020D1
:103BE00000900024002500BF3120FFF7D9FF0546D3
:103BF0000098401C00900098B0F5A04F01D0002D17
:103C0000F2D03120FFF7CCFF08B1012400E00024FE
:103C1000204638BD01460020C34A106820F0F80055
:103C200040EAC10010607047C34908607047002136
:103C3000BD4A703211701170012802D004280AD1D7
:103C400004E00121B84A7032117005E00521B64A3E
:103C50007032117000E000BF00BF7047B7490860C4
:103C6000704770B5049C41EA82150126C6EB5306E5
:103C700045EA0645054345EA0465AB4E361D356009
:103C800070BDAD4908667047820142EA0172A64BD9
:103C900084331A607047A8498866704710B583015D
:103CA00043EA016343EA02739F4C8834236010BDEA
:103CB000A14908677047A049C864704702460020C0
:103CC000994B0833186820F0EC6042EA010318436E
:103CD000954B08331860704702460020924B08331A
:103CE000186820F0784042EA010318438E4B0833ED
:103CF00018607047014600208B4A0832106820F097
:103D0000030008431060704787480830006800F0DF
:103D10000C00704701460020834A0832106820F0EA
:103D2000F000084310607047014600207E4A0832C8
:103D3000106820F4E05008431060704701460020EE
:103D4000794A0832106820F4604040EAC1001060EF
:103D50007047F0B50021002200240225002602232E
:103D6000714F08373F6807F00C0121B1042905D0D5
:103D7000082937D105E0724F076036E0714F0760C0
:103D800033E0694F3F1D3F68C7F38056664F3F1DC4
:103D90003F6807F03F036EB16A4FB7FBF3F7DFF8F8
:103DA00088C10CF1040CDCF800C0CCF3881C07FBC4
:103DB0000CF40CE0624FB7FBF3F7DFF86CC10CF1C9
:103DC000040CDCF800C0CCF3881C07FB0CF4564F45
:103DD0003F1D3F68C7F301477F1C7D00B4FBF5F72B
:103DE000076002E0564F076000BF00BF4E4F083724
:103DF0003F6807F0F0010909534F7A5C0768D74024
:103E00004760494F08373F6807F4E051890A4E4F31
:103E10007A5C4768D7408760434F08373F6807F4AC
:103E20006041490B484F7A5C4768D740C760F0BD96
:103E3000002100F44072B2F5407F0AD13A4A0832BC
:103E4000116821F4F811414A02401143364A083200
:103E50001160354A70321268C0F30B031A43324BBB
:103E600070331A60704735494439086070473349E8
:103E700040390860704736490860704701460020A5
:103E8000294A8C32106820F01F004A1E1043264A2F
:103E90008C321060704701460020234A8C32106833
:103EA00020F4F8504A1E40EA02201F4A8C3210606B
:103EB0007047014600201C4A8C32106820F44010E4
:103EC00008431060704701460020174A8C32106882
:103ED00020F4400008431060704701460020124A59
:103EE0008C32106820F44030084310607047194944
:103EF0000860704739B10C4A3032126802430A4BED
:103F000030331A6006E0084A303212688243064BAA
:103F100030331A607047F9B1034A343212680243F1
:103F2000014B34331A601CE000380240FFFFF6EA10
:103F3000103000240030002000004742800E47422D
:103F40000024F40040787D011B010020FFFCFF0FDE
:103F50005C014742E01147428F4A126882438E4B10
:103F60001A60704739B18C4A121D126802438A4B9D
:103F70001B1D1A6006E0884A121D12688243864B98
:103F80001B1D1A60704739B1834A0C321268024314
:103F9000814B0C331A6006E07F4A0C321268824370
:103FA0007D4B0C331A60704739B17B4A103212686E
:103FB0000243794B10331A6006E0774A10321268D8
:103FC0008243754B10331A60704739B1724A243AF4
:103FD00012680243704B243B1A6006E06E4A243A92
:103FE000126882436C4B243B1A60704739B16A4AAD
:103FF000203A12680243684B203B1A6006E0664A8A
:10400000203A12688243644B203B1A60704739B1F2
:10401000614A1C3A126802435F4B1C3B1A6006E07F
:104020005D4A1C3A126882435B4B1C3B1A60704726
:1040300039B1594A143A12680243574B143B1A607B
:1040400006E0554A143A12688243534B143B1A60F7
:10405000704739B1504A103A126802434E4B103B38
:104060001A6006E04C4A103A126882434A4B103BF1
:104070001A60704739B1484A1C3212680243464BF5
:104080001C331A6006E0444A1C3212688243424BD9
:104090001C331A60704739B13F4A2032126802431C
:1040A0003D4B20331A6006E03B4A203212688243BF
:1040B000394B20331A60704739B1374A24321268BD
:1040C0000243354B24331A6006E0334A2432126827
:1040D0008243314B24331A60704739B12E4A2C3257
:1040E000126802432C4B2C331A6006E02A4A2C3209
:1040F00012688243284B2C331A60704739B1264A24
:10410000303212680243244B30331A6006E0224AF0
:10411000303212688243204B30331A6070470128D6
:1041200008D11D493C31096841F008011A4A3C3266
:10413000116007E018493C31096821F00801164A6E
:104140003C321160704739B1134A273A1278024362
:10415000114B273B1A7006E00F4A273A1278824328
:104160000D4B273B1A7070470B484030006840F0F9
:104170008070094940310860704701460020064AB6
:10418000283A12680A400AB1012000E00020704776
:1041900001492639087070473438024010B50121B2
:1041A0008803FFF756FF00214FF48040FFF751FFCF
:1041B00010BD1C49086070471B490862704730B544
:1041C00000228B071C0F0F2303FA04F2154B083350
:1041D0008C1053F824309343124C08348D1044F85B
:1041E000253023468C1053F824308C07240F00FA16
:1041F00004F423430B4C08348D1044F8253030BDB3
:104200000949DC31086070470849086070470020A0
:1042100004492031096801F4807109B1012000E0EE
:104220000020704700380140000027420004274268
:1042300010B50446FA48844208D101211020FFF746
:1042400008FF00211020FFF704FF57E0F5488442E3
:1042500009D101214804FFF7EBFE00214FF40030A3
:10426000FFF7E6FE4AE0F048844209D101218804C4
:10427000FFF7DEFE00214FF48020FFF7D9FE3DE07E
:10428000EA48844209D10121C804FFF7D1FE002188
:104290004FF40020FFF7CCFE30E0E548844209D11E
:1042A00001210805FFF7C4FE00214FF48010FFF73D
:1042B000BFFE23E0DF48844208D101212020FFF720
:1042C000C8FE00212020FFF7C4FE17E0DA48844230
:1042D00009D101218807FFF7ABFE00214FF0804094
:1042E000FFF7A6FE0AE0D548844207D10121400528
:1042F000FFF79EFE00216005FFF79AFE10BD2DE935
:10430000FF4705460E460024A14600BFA046B089DF
:1043100000B100BF2C8A24F44054F08804432C825E
:10432000AC8941F20C608443B088318908437189BB
:1043300008430443AC81AC8A24F44074B08904433C
:10434000AC826846FFF705FDB548854202D0B94802
:10435000854202D1DDF80C9001E0DDF80890A889D3
:1043600000F4004040B109EBC90000EB09103168CE
:104370004900B0FBF1F707E009EBC90000EB0910B9
:1043800031688900B0FBF1F76420B7FBF0F004015D
:104390002009642101FB1078A88900F4004040B195
:1043A000322000EBC800B0FBF1F000F0070004433E
:1043B00008E0322000EB08106421B0FBF1F000F0BF
:1043C0000F0004432C81BDE8FF874FF416510160B4
:1043D00000218180C18001810C21418100218181E6
:1043E000704710B502460020108A20F470600B88D8
:1043F0004C8823438C882343CC8823431843108262
:1044000010BD0021018041808180C180704721B1B1
:10441000828942F40052828104E082894DF6FF7362
:104420001A4082817047028B02F47F420283028B22
:104430000A430283704721B1828942F4004282819B
:1044400003E08289C2F30E028281704721B1828A21
:1044500042F40062828204E0828A4FF2FF731A40C3
:1044600082827047C1F308028280704701468888C3
:10447000C0F308007047028A4FF6F0731A400282B8
:10448000028A0A430282704721B1828942F0020205
:10449000828104E082894FF6FD731A408281704761
:1044A00082894FF2FF731A40828182890A43828196
:1044B0007047028A4FF6DF731A400282028A0A436B
:1044C0000282704721B1028A42F48042028204E0F3
:1044D000028A4BF6FF731A4002827047818941F0CD
:1044E00001018181704721B1828A42F008028282F3
:1044F00004E0828A4FF6F7731A4082827047028B7B
:10450000D2B20283028B42EA01220283704721B1B8
:10451000828A42F02002828204E0828A4FF6DF73B0
:104520001A408282704721B1828A42F01002828250
:1045300004E0828A4FF6EF731A4082827047828AC3
:104540004FF6FB731A408282828A0A438282704746
:1045500021B1828A42F00202828204E0828A4FF60E
:10456000FD731A40828270471AB1838A0B4383829B
:1045700002E0838A8B4383827047F0B503460024B0
:1045800000260025002040F66A17B94200D100BF7E
:104590001846C1F3421401F01F06012707FA06F579
:1045A000012C01D10C3004E0022C01D1103000E0CC
:1045B00014301AB107682F43076002E00768AF4361
:1045C0000760F0BD02460020B1F5007F00D100BFBA
:1045D00013880B400BB1012000E00020704701F46C
:1045E0000072B2F5007F00D100BFCA43028070475D
:1045F00070B50246002400230025002040F66A160C
:10460000B14200D100BFC1F3421501F01F030126E2
:1046100006FA03F3012D13D19689334017E0000009
:10462000001001400044004000480040004C0040A1
:10463000005000400014014000780040007C004021
:10464000022D02D1168A334001E0968A33400C12C3
:10465000012606FA04F41688344013B10CB1012087
:1046600000E0002070BD10B50022002340F66A145F
:10467000A14200D100BF0A1201249440A3B2DC433E
:10468000048010BD10B50446FE48844208D10121C3
:104690000846FFF7DEFC00210120FFF7DAFC9DE071
:1046A000B4F1804F08D101210846FFF7C1FC002179
:1046B0000120FFF7BDFC91E0F348844208D10121BD
:1046C0000220FFF7B5FC00210220FFF7B1FC85E0D6
:1046D000EE48844208D101210420FFF7A9FC002103
:1046E0000420FFF7A5FC79E0E948844208D10121C4
:1046F0000820FFF79DFC00210820FFF799FC6DE0E2
:10470000E448844208D101211020FFF791FC0021E8
:104710001020FFF78DFC61E0DF48844208D10121C1
:104720002020FFF785FC00212020FFF781FC55E0C9
:10473000DA48844208D101210220FFF78AFC0021D7
:104740000220FFF786FC49E0D548844209D10121C7
:104750000804FFF77EFC00214FF48030FFF779FC5E
:104760003CE0D048844209D101214804FFF771FCA4
:1047700000214FF40030FFF76CFC2FE0CA48844260
:1047800009D101218804FFF764FC00214FF4802047
:10479000FFF75FFC22E0C548844208D10121402098
:1047A000FFF746FC00214020FFF742FC16E0C0481E
:1047B000844208D101218020FFF73AFC00218020AB
:1047C000FFF736FC0AE0BB48844207D1012180157F
:1047D000FFF72EFC0021A015FFF72AFC10BD0022D8
:1047E0000288A84B98420ED0AC4B98420BD0B0F147
:1047F000804F08D0A44B984205D0A44B984202D0D9
:10480000A34B984204D14FF68F731A404B881A433A
:10481000A04B984207D0A04B984204D04FF6FF43DC
:104820001A400B891A4302804B68C3620B880385C8
:10483000944B984202D0994B984201D18B7A0386CF
:104840000123838270474FF0FF31416000210180D6
:1048500001814180817270470185828270470A46DA
:10486000002101884FF68F73194011430180704772
:1048700041627047C16270470146486A704701460D
:10488000088D704721B1028842F00202028004E0E4
:1048900002884FF6FD731A400280704721B10288EA
:1048A00042F00402028004E002884FF6FB731A40D3
:1048B0000280704721B1028842F08002028004E049
:1048C00002884FF67F731A400280704702884FF6C5
:1048D000F7731A40028002880A43028070470288F8
:1048E0004FF6FF431A40028002880A430280704755
:1048F00021B1028842F00102028004E002884FF6F2
:10490000FE731A400280704770B500240022002315
:10491000058C4FF6FE7635400584028C8388048B27
:104920004FF68F752C40B51E2C400D882C43751EFC
:104930002A408D892A434D882A43524DA84202D0ED
:10494000564DA84213D14FF6F7752A40CD892A4318
:104950004FF6FB752A408D882A434FF6FF652B40A2
:104960004FF6FF552B400D8A2B434D8A2B438380F6
:1049700004838D684563028470BD70B500240022F5
:104980000023058C4FF6EF7635400584028C838832
:10499000048B48F6FF752C404FF6FF452C400D88E0
:1049A0004FF6FF7606EA05252C434FF6DF752A40C1
:1049B0008D8906EA05152A434D8806EA05152A431E
:1049C000304DA84202D0354DA8421DD14FF67F751B
:1049D0002A40CD894FF6FF7606EA05152A434FF6A1
:1049E000BF752A408D8806EA05152A434FF6FF3524
:1049F0002B404FF2FF752B400D8A06EA85052B43AD
:104A00004D8A06EA85052B43838004838D68856380
:104A1000028470BD70B5002400220023058C4FF67F
:104A2000FF6635400584028C8388848B4FF68F7532
:104A30002C404FF6FC752C400D882C434FF6FF554B
:104A40002A408D894FF6FF7606EA05252A434D88D0
:104A500006EA05252A430B4DA84202D00F4DA84275
:104A600038D14FF2FF752A40CD894FF6FF7606EA1E
:104A700005252A434FF6FF352A408D8806EA05258D
:104A80002A4319E0000001400004004000080040F3
:104A9000000C0040001000400014004000040140E1
:104AA000004001400044014000480140001800401F
:104AB000001C0040002000404EF6FF752B404DF6D4
:104AC000FF752B400D8A06EA05152B434D8A06EA31
:104AD00005152B43838084838D68C563028470BD74
:104AE00070B5002200230024058C4EF6FF76354079
:104AF0000584038C8488828B48F6FF752A404FF624
:104B0000FF452A400D884FF6FF7606EA05252A4321
:104B10004DF6FF752B408D8906EA05352B434D88F0
:104B200006EA05352B43FE4DA84202D0FD4DA842B2
:104B300008D14BF6FF752C400D8A4FF6FF7606EA3A
:104B400085152C43848082838D680564038470BD41
:104B5000002101804180818081608181C181018249
:104B60004182704770B50346002000241846183073
:104B700001258D40ACB21D8CA5431D8409B10829C7
:104B80000AD100EB610005684FF68F76354005606D
:104B90000568154305600FE00D1FC5F34E05284459
:104BA000056848F6FF763540056005684FF6FF76E4
:104BB00006EA02263543056070BD41637047816394
:104BC0007047C1637047016470470A460021018B3A
:104BD0004FF68F7319401143018370470A46002135
:104BE000018B48F6FF7319404FF6FF7303EA022367
:104BF0001943018370470A460021818B4FF68F735A
:104C000019401143818370470A460021818B48F681
:104C1000FF7319404FF6FF7303EA022319438183A0
:104C200070470A460021018B4FF6F7731940114374
:104C3000018370470A460021018B4FF2FF73194030
:104C40004FF6FF7303EA02231943018370470A46B4
:104C50000021818B4FF6F773194011438183704710
:104C60000A460021818B4FF2FF7319404FF6FF7304
:104C700003EA02231943818370470A460021018B0E
:104C80004FF6FB7319401143018370470A46002118
:104C9000018B4FF6FF3319404FF6FF7303EA0223EF
:104CA0001943018370470A460021818B4FF6FB733D
:104CB00019401143818370470A460021818B4FF6CA
:104CC000FF3319404FF6FF7303EA02231943818330
:104CD00070470A460021018B4FF67F73194011433C
:104CE000018370470A460021018BC1F30E014FF684
:104CF000FF7303EA02231943018370470A46002128
:104D0000818B4FF67F7319401143818370470A46A8
:104D10000021818BC1F30E014FF6FF7303EA0223DA
:104D20001943818370470A460021018C4FF6FD73B9
:104D300019401143018470470A460021018C4FF647
:104D4000F77319401143018470470A460021018C12
:104D50004FF6DF7319404FF6FF7303EA021319434E
:104D6000018470470A460021018C4FF67F73194079
:104D70004FF6FF7303EA02131943018470470A4692
:104D80000021018C4FF6FF5319404FF6FF7303EAE1
:104D900002231943018470470A460021018C4FF217
:104DA000FF7319404FF6FF7303EA0223194301848E
:104DB00070470A460021018C4DF6FF7319404FF6EB
:104DC000FF7303EA023319430184704730B50023AF
:104DD00001248C40A3B2048C9C430484048C02FA0A
:104DE00001F5ADB22C43048430BD30B5002304245A
:104DF0008C40A3B2048C9C430484048C02FA01F519
:104E0000ADB22C43048430BD828B4FF2FF331A4085
:104E10008283828B4FF6FF7303EA01231A43828356
:104E20007047F0B50C461546002100220026078C7D
:104E30004EF6FF7C07EA0C070784818B028C4FF645
:104E4000FF7707EA043640F6FF4739404FF6FF7711
:104E500007EA052739434FF6FF7707EA0337394357
:104E600045F6FF773A4046F480573A4381830284FF
:104E7000F0BD828B4FF6F3731A408283828B0A4314
:104E800082837047F0B50C461546002100220026AB
:104E9000078C4FF6FF6C07EA0C070784818B028CA6
:104EA0004FF6FF7707EA04264FF60C7739404FF6A6
:104EB000FF7707EA03172F4339434FF2FF573A4072
:104EC00046F480773A4381830284F0BD028B4FF22F
:104ED000FF331A400283028B4FF6FF7303EA01236C
:104EE0001A4302837047F0B50C4615460021002294
:104EF0000026078C4FF6EF7C07EA0C070784018B2E
:104F0000028C4FF6FF7707EA041640F6FF47394058
:104F10004FF6FF7707EA033739434FF6FF7703E091
:104F2000000001400004014007EA052739434FF61D
:104F30005F773A4046F010073A4301830284F0BDA0
:104F4000028B4FF6F3731A400283028B0A430283EB
:104F50007047F0B50C46154600210022068C4FF62E
:104F6000FE773E400684018B028C4FF60C76314072
:104F70007E1C06EA03162E4331434FF6F576324087
:104F800044F00106324301830284F0BD70B505464A
:104F90000C46208850B92389A28861882846FFF7EB
:104FA000D8FFE1882846FFF7CBFF25E020880428BA
:104FB0000AD12389A28861882846FFF794FFE188F7
:104FC0002846FFF783FF17E0208808280AD12389A5
:104FD000A28861882846FFF755FFE1882846FFF739
:104FE00048FF09E02389A28861882846FFF719FF56
:104FF000E1882846FFF708FF70BD0021018041804D
:10500000012181800021C180018170472DE9F0419B
:1050100005460C4600260127608808B9022600E0F4
:105020000026A088012801D1022700E0012720885E
:10503000A0B92389A28861882846FFF78AFFE18802
:105040002846FFF77DFF23893A4631462846FFF779
:105050004AFFE1882846FFF739FF13E02389A28839
:1050600061882846FFF73FFFE1882846FFF72EFFBB
:1050700023893A4631462846FFF76BFFE1882846E8
:10508000FFF75EFFBDE8F0810146486B70470146BF
:10509000886B70470146C86B70470146086C7047C3
:1050A0000A884B881A438B881A43CB881A430B898A
:1050B0001A434B891A438B891A43A0F8442070473E
:1050C0000021018041808180C180018141818181F5
:1050D000704731B1B0F8442042F40042A0F84420B7
:1050E00005E0B0F84420C2F30E02A0F84420704757
:1050F00021B1828842F00402828004E082884FF667
:10510000FB731A408280704721B1828842F001020D
:10511000828004E082884FF6FE731A4082807047D6
:105120001AB183890B43838102E083898B43838196
:1051300070478182704702460020138A0B400BB1F2
:10514000012000E000207047CA430282704730B55A
:105150000246002000230024158A05EA01039589F0
:1051600005EA010413B10CB1012000E0002030BDBC
:10517000CA430282704741EA0203A0F848307047F0
:105180001AB183890B43838102E083898B43838136
:10519000704721B1828842F00802828004E0828850
:1051A0004FF6F7731A408280704701894FF6F87204
:1051B0001140018170470A46002101894FF68F7323
:1051C000194011430181704730B504460D46294608
:1051D0002046FFF7F0FF208940F00700208130BD16
:1051E0002DE9F04104460D4616461F46602D06D1B6
:1051F0003B46012231462046FFF775FE05E03B465F
:10520000012231462046FFF7A4FE29462046FFF73B
:10521000D2FF208940F007002081BDE8F08130B541
:105220000C4600210189C9B24FF6FF7505EA032536
:10523000154325432943018130BD2DE9F041054641
:105240000E4617469846002443463A4631462846BD
:10525000FFF7E5FF2C894FF6F870044044F007048F
:105260004FF68F70044044F070042C81BDE8F0814B
:10527000F0B504460D4616461F463B4632462946C3
:105280002046FFF7CCFF208940F480402081F0BD0C
:1052900082884FF68F731A40828082880A43828008
:1052A000704702894FF6F8731A40028102890A4357
:1052B0000281704702894FF67F731A40028102898A
:1052C0000A4302817047F0B50C4615461E46002180
:1052D000002200230189028B038C4FF6F8773940B6
:1052E00021434FF6FC473A4040F201173A434FF64C
:1052F000DD773B404FF6FF7707EA06172F433B4326
:10530000018102830384F0BD21B1828842F08002D2
:10531000828004E082884FF67F731A408280704753
:10532000A0F8501070470000002041490860091D96
:105330000860091D0860091D08603E483C49143199
:105340000860704700213A498279002A3AD00A461B
:10535000126803689A430B461A600A1D12680368B4
:105360009A430B1D1A60027911440A6803681A43B4
:105370000A602F4A0832126803689A432C4B08339C
:105380001A601A1D126803689A43294B0C331A607D
:105390004279102A0ED11A1F126803681A43244B4F
:1053A00008331A601A1D126803681A43204B0C3325
:1053B0001A600DE01E49427911440A6803681A43D5
:1053C0000A6005E0027911440A6803689A430A609A
:1053D00070470021016001710C2141710021817130
:1053E00070471349103109680143114A10321160A6
:1053F0007047014600200E4A143212680A400AB172
:10540000012000E00020704709491431086070470E
:1054100001460020064A143212680A400AB10120EF
:1054200000E0002070470249143108607047000016
:10543000003C0140FFFF7F0008B5684602F0E4F938
:1054400008BD08B5684602F029FA08BD38B504461B
:105450006A460821204608F011FD38BD10B54248C3
:105460000078012805D102F015F908F093FF02F049
:1054700022F910BD70B504466FF00400FEF7F8F98C
:105480002046E11704EB5171C1F3C701374A11708F
:10549000E11704EB5171CD10354800683549B1FB77
:1054A000F0F04543324800684FF47A71B1FBF0F0F8
:1054B000314908804FF0E020006940F002004FF0D1
:1054C000E021086108464561006940F0010008617B
:1054D00070BD2DE9F047074600264FF0E020D0F8D8
:1054E00014902248007807FB00F8FFF7A5FF4FF063
:1054F000E020856911E04FF0E0208469AC420CD0D7
:10550000AC4202D2281B064403E0A9EB0400284465
:1055100006442546464500D300E0ECE700BFFFF710
:1055200090FFBDE8F08770B504460F480078A0B141
:105530001248007888B910480088844206DB0E487B
:10554000008894FBF0F52846FFF780FF0A480088A2
:1055500094FBF0F100FB114084B24FF47A7104FB2C
:1055600001F0FFF7B6FF70BD6D0100202C01002097
:105570009C30010840420F002E0100206C010020E9
:1055800000BF704700BFCC4A128802F04002002AD8
:10559000F9D0C2B2C84B9A80704710B588B00446A3
:1055A00001210846FEF7A6FC01211020FEF7FCFCB5
:1055B00007220921C148FEF78AFA07220A21BF48BB
:1055C000FEF785FA4FF4C060069002208DF81C00AB
:1055D0008DF81D0000208DF81E0001208DF81F00A1
:1055E00006A9B648FEF7E8F902940020ADF80C00D1
:1055F000ADF80E00ADF81000ADF814000C20ADF8B9
:10560000120002A9AC48FEF77AFE0121AA48FEF773
:10561000FEFE012240F22551A748FEF7AEFF2520ED
:105620008DF8040003208DF805008DF80600012098
:105630008DF8070001A8FEF7CEF808B010BD0020D5
:1056400004E000219E4A1154411CC8B20D28F8DB29
:1056500000219C4A1170704710B540F225519648C0
:10566000FEF7C6FF58B39448FEF700FF9449954AE9
:105670001278885493480078401C924908709048EA
:10568000007847280BD08E480078562807D08C48E1
:105690000078532803D08A480078502810D18948D0
:1056A0000078401E8649085C0A280BD1854800789E
:1056B000801E085C0D2805D100208349087001E098
:1056C000FFF7BDFF10BD00BF7B49098801F0400115
:1056D0000029F9D078498880704700B502461078D3
:1056E000FFF7F1FF5078FFF7EEFF00BD00B502466F
:1056F00003E01078FFF7E7FF521C10780028F8D17C
:1057000000BD00B5024603E01078FFF7DCFF521C35
:1057100010780028F8D12020FFF7D5FF00BD00B594
:1057200002461046FFF7CFFF2020FFF7CCFF00BD59
:105730001FB503A808F000FE044600200090019069
:105740000290224661A1684609F0D6FC6846FFF740
:10575000CDFF5FA0FFF7CAFF1FBD2DE9F0412DED82
:10576000028B04460025002600270FF268184146E8
:10577000534809F045FD074600BF24E0394656A0CE
:1057800009F044FDC0B1394654A009F03FFD98B17D
:10579000394653A009F03AFD70B138460BF090FD40
:1057A000B0EE408AF0EE608A51EC180B0CF042FC2F
:1057B00044F82600701CC6B24146002009F020FDC6
:1057C0000746681CC5B2042DD8DBBDEC028BBDE8D2
:1057D000F08100B52DED048B85B000200290039080
:1057E000049037480078532808D13E48007808B91B
:1057F000012000E000203B49087059E002A8FFF7B3
:10580000ACFF2F480078472804D0502832D05628C3
:105810004DD11BE09DED020ABDEEC00A10EE100A4C
:1058200000B2314908809DED030ABDEEC00A10EEBA
:10583000100A00B248809DED040A084680ED040A73
:1058400001202A4908702749087030E09DED020ABE
:10585000254880ED010A9DED030A80ED020A9DEDC9
:10586000040A80ED040A00202049087001201D4927
:1058700008701CE09DED020A1D4880ED000A9DEDB8
:10588000030A1C4880ED000A00680DF00FFA41EC95
:10589000190B174800680DF009FA41EC180B8DED53
:1058A000009B53EC182B14A009F01AFC00BF00BF9A
:1058B00005B0BDEC048B00BD0010014000000240AB
:1058C0003515002036010020370100202564000036
:1058D0000D0A0000200000004700000056000000F4
:1058E000500000003E0000201C1400203C0000205E
:1058F000400000204400002025660925660D0A00AE
:105900001FB56846FEF725FA019804B010BD10B522
:10591000FFF7F6FF04461848006840F0807016490B
:1059200008600020154948600846006840F0010002
:105930000860204600F0B7F810BD1049486870476D
:105940002DE9F0478246FFF7DBFF4FF00009804664
:105950000B4A00234046494609F04BFB06463246B7
:105960000B465046002109F044FB04460D462046F4
:105970002946BDE8F0870000FCED00E0001000E0E3
:1059800040420F0010B5002400BF00BF00F052F9E4
:10599000044600BF00BF1021A14800F0D2FA00BFAA
:1059A00000BF204600F04AF900BF00BF10BD10B58F
:1059B000FFF7E8FF10BD10B500209A490860FFF717
:1059C000A6FF10BD10B5FFF7F6FFFFF7F0FF10BD03
:1059D00000BFFEE770B505460C46002614B900BFAF
:1059E000FFF7F6FF15B90A20208070BD00BF00BF89
:1059F00000F020F9064600BF00BF10228849284663
:105A000000F056FF00BF00BF304600F017F900BF9E
:105A100000BF0020208000BFE7E72DE9F0410546E8
:105A20000C46002714B900BFFFF7D2FF1DB90A20AA
:105A30002080BDE8F0811021284600F021FF0646B5
:105A4000102E15D200BF00BF00F0F4F8074600BFCB
:105A500000BF10222946724800F02AFF00BF00BF95
:105A6000384600F0EBF800BF00BF0020208002E0C5
:105A70004FF47A70208000BFDBE710B5FFF75DFFC1
:105A80000446204610BD704700B5014611B900BF5D
:105A9000FFF79EFF634A106808B1002201E04FF44F
:105AA000FA620A8000BD5F490860704770B505461C
:105AB000284600F0CAF80446183C204670BD70B570
:105AC0000546284600F0C1F80446103C204670BD4B
:105AD00070B50546284600F0B8F8044600BF2046D9
