:020000040800F2
:10000000103C00202D340008AD080008AF0800089F
:10001000B3080008B7080008BB080008000000008B
:10002000000000000000000000000000BF08000801
:10003000C10800080000000053090108FD50000835
:1000400047340008473400084734000847340008A4
:10005000473400084734000807240008AF2400088C
:10006000473400084734000891240008473400084A
:100070004734000847340008473400084734000874
:100080004734000847340008473400084734000864
:100090004734000847340008473400088923000823
:1000A0004734000847340008473400084734000844
:1000B00047340008F32D000847340008473400088F
:1000C0004734000847340008473400084734000824
:1000D00047340008F9520008C92E0008AB33000865
:1000E0002724000847340008473400084734000834
:1000F00047340008473400084734000847340008F4
:1001000047340008473400084734000847340008E3
:1001100047340008473400084734000847340008D3
:1001200047340008473400084734000847340008C3
:1001300047340008473400084734000847340008B3
:1001400047340008473400084734000847340008A3
:100150004734000847340008473400084734000893
:100160004734000847340008473400084734000883
:100170004734000847340008473400084734000873
:10018000473400084734000800F002F800F062F835
:100190000AA090E8000C82448344AAF10107DA45E2
:1001A00001D100F057F8AFF2090EBAE80F0013F0D2
:1001B000010F18BFFB1A43F001031847D02C0100B0
:1001C000F02C01000A4410F8014B14F00F0508BF91
:1001D00010F8015B240908BF10F8014B6D1E05D013
:1001E00010F8013B6D1E01F8013BF9D1641E03D0EC
:1001F000641E01F8015BFBD19142E4D3704700001B
:100200000023002400250026103A28BF78C1FBD81F
:10021000520728BF30C148BF0B607047662912F0F3
:10022000B88264290EF0B085002070471FB512F027
:10023000A6FA0FF045F904000020002111F0D0FBD0
:10024000401C60600020002111F0B4FBE0601FBD85
:1002500010B510BD0FF07EFA1146FFF7E7FF00F072
:1002600098FA0FF0F7FC03B4FFF7F2FF03BC04F0B9
:10027000D7FF00000EB50CE001F079FF01F01BFF85
:1002800002A8002105230A46CDE9001008460DF01A
:100290007AFCF1E70EB50024A2E0F94800780028C6
:1002A00048D100BF00BF00BF05F0C4FA044600BF3C
:1002B00000BFF4480078401CF249087000BF00BF3E
:1002C000204605F0BBFA00BF00BF00BF02F0AEFE43
:1002D00000BF00BF00BF05F0ADFA044600BF00BF7D
:1002E000E8480078401EE749087008460078A0B941
:1002F000E5480088002809DD00BF00BF204605F062
:100300009DFA00BF00BF07F041FD0DE000BF00BF38
:10031000204605F093FA00BF06E000BF00BF20466C
:1003200005F08CFA00BF00BF00BF02F0C0FD012045
:10033000D3490870D5480078002848D100BF00BFD5
:1003400000BF05F077FA044600BF00BFCD48007833
:10035000401CCC49087000BF00BF204605F06EFA73
:1003600000BF00BF00BF05F077F800BF00BF00BFAF
:1003700005F060FA044600BF00BFC2480078401E86
:10038000C049087008460078A0B9BF480088002816
:1003900009DD00BF00BF204605F050FA00BF00BFD6
:1003A00007F0F4FC0DE000BF00BF204605F046FA60
:1003B00000BF06E000BF00BF204605F03FFA00BFC7
:1003C00000BF00BF04F08BFF0120B049087002A8F5
:1003D000002102230A46CDE9001008460DF0D3FBA8
:1003E0005BE72DED088B88B0002479E000BF00BFEB
:1003F00000BF05F01FFA044600BF00BFA148007807
:10040000401CA049087000BF00BF204605F016FA46
:1004100000BF00BF00BF9E48006812F03FF941ECEA
:10042000180B9C4890ED040A10EE101A084612F0C2
:1004300035F941EC190B974890ED020A10EE101AAD
:10044000084612F02BF941EC1A0B924890ED010A84
:1004500010EE101A084612F021F941EC1B0B8DED3D
:10046000048B8DED029B8DED00AB53EC1B2B8AA012
:100470000EF036FC00BF00BF00BF05F0DBF90446FC
:1004800000BF00BF7F480078401E7E4908700846C4
:100490000078A0B97C480088002809DD00BF00BFB3
:1004A000204605F0CBF900BF00BF07F06FFC0DE060
:1004B00000BF00BF204605F0C1F900BF06E000BF45
:1004C00000BF204605F0BAF900BF00BF00BF07A873
:1004D000002114230A46CDE9001008460DF053FB15
:1004E00084E70EB50BE001F039FF02A800214FF4BC
:1004F000FA730A46CDE9001008460DF044FBF2E716
:1005000030B58BB00446002500BF05F05BF80AA8A3
:100510000AF0C5FF0AAA0121084607F04EF80AAB07
:10052000002261A1654807F0B2FD00BF00BF00BF17
:1005300005F080F9054600BF00BF52480078401C16
:100540005049087000BF00BF284605F077F900BF8A
:1005500000BF00BF0AA8032100220592CDE90621B1
:100560000890104680210C22554BCDE90132CDE98F
:10057000031006200023AFF2950252A100905448C8
:100580000BF066FB0AA8032100220592CDE90621A3
:10059000089010464FF4807119224E4BCDE901327C
:1005A000CDE9031005200023AFF2C9124AA1009043
:1005B0004C480BF04DFB0AA8032100220592CDE91F
:1005C00006210890104680210C22474BCDE90132CC
:1005D000CDE9031006200023AFF2473243A100907B
:1005E00047480BF035FB0AA8032100220592CDE90C
:1005F0000621089010464FF480711922414BCDE935
:100600000132CDE9031005200023AFF297323EA15D
:10061000009040480BF01CFB00BF00BF00BF05F07E
:1006200009F9054600BF00BF16480078401E15496D
:10063000087008460078A0B913480088002809DD32
:1006400000BF00BF284605F0F9F800BF00BF07F063
:100650009DFB0DE000BF00BF284605F0EFF800BF8E
:1006600006E000BF00BF284605F0E8F800BF00BF65
:1006700000BF0AA900200BF03FFC0BB030BD00000A
:10068000DC000020AC010020700100202F010020C0
:10069000F4000020901400202566092566092566CF
:1006A0000925660D0A0000007573617274325F6679
:1006B0006C6167735F67726F75700000681400206B
:1006C0009C0500206C6564207461736B0000000061
:1006D000D8040020600800207072696E7420746174
:1006E000736B00009C070020240D00204765737485
:1006F0007572655F4368616E67655F7461736B00F7
:10070000600C0020E80F00206374726C2074617329
:100710006B000000240F002010B500BF5148007886
:100720000028FBD102F082FC4F4890ED040A80EDD6
:100730000A0A90ED040AD0ED0A0A30EE600A80ED54
:10074000040A10BD10B5A82004F0E4FC4FF4A0602A
:1007500002F08CFE01F0E4FD4FF4E13004F06DFD99
:10076000424802F053FB4FF4E13002F065FD0521F1
:1007700040F6EF2001F08EFF02F05DF901F0B3FECC
:10078000FFF7CAFF3AA00EF0ABFA01203549087016
:1007900010BD10B58AB00024FFF7D4FF09A806F0F9
:1007A000E3FC00BF00BF00BF05F044F8044600BFF3
:1007B00000BF37480078401C3549087000BF00BFB3
:1007C000204605F03BF800BF00BF00BF09A8032189
:1007D00000220592CDE906210890104680210C22C6
:1007E0002C4BCDE90132CDE9031003200023AFF2F9
:1007F000EF2229A100902B480BF02AFA00BF00BF7E
:1008000000BF05F017F8044600BF00BF204800787D
:10081000401E1F49087008460078A0B92248008889
:10082000002809DD00BF00BF204605F007F800BF23
:1008300000BF07F0ABFA0DE000BF00BF204604F098
:10084000FDFF00BF06E000BF00BF204604F0F6FF3A
:1008500000BF00BF00BF09A806F04FFF00200AB08C
:1008600010BD0000DC0000209014002074B70100CF
:100870007065726970686572616C7320696E697405
:1008800020636F6D706C6574652E2E2E0D0A00004E
:10089000AC010020D802002073746172742074616E
:1008A000736B00001402002070010020704700BF2D
:1008B000FEE700BFFEE700BFFEE700BFFEE77047B0
:1008C000704700000CB50020019000907648006849
:1008D00040F480307449086000BF7348006800F439
:1008E000003000900198401C0190009818B90198C0
:1008F000B0F5A04FF1D16C48006800F4003010B1A1
:100900000120009001E0002000900098012846D1CD
:1009100065484030006840F08050634940310860CD
:100920006248006840F44040604908605E48083012
:1009300000685D49083108600846006840F40040DE
:1009400008600846006840F4A05008605848091F35
:100950000860081F006840F08070091F086000BF31
:100960005148006800F000700028F9D040F205708E
:10097000504908604C480830006820F003004A499C
:10098000083108600846006840F00200086000BFB7
:1009900045480830006800F00C000828F8D10CBD6C
:1009A00010B54548006840F47000434908603E486F
:1009B000006840F001003C49086000203A490831D5
:1009C0000860394800683D490840374908603C489C
:1009D000091D0860081F006820F48020091F0860B6
:1009E000002031490C310860FFF76CFF4FF00060C8
:1009F00031498039086010BD70B500200022022303
:100A000000240221284D08352D6805F00C0020B186
:100A1000042806D0082834D107E02A4D2A4E356034
:100A200033E02A4D284E35602FE01F4D2D1D2D68D7
:100A3000C5F380541C4D2D1D2D6805F03F0154B1A8
:100A4000224DB5FBF1F5184E361D3668C6F38816F3
:100A500005FB06F209E01B4DB5FBF1F5124E361D04
:100A60003668C6F3881605FB06F20F4D2D1D2D685E
:100A7000C5F301456D1C6B00B2FBF3F5124E3560FA
:100A800003E0104D104E356000BF00BF064D083525
:100A90002D68C5F303150E4E705D0B4D2D68C540D6
:100AA000094E356070BD0000003802400070004003
:100AB00019544007003C024088ED00E0FFFFF6FEBD
:100AC000103000240024F4000000002040787D0154
:100AD00004000020B5EEC00AF1EE10FA03D2F1EEE8
:100AE000400AB0EE600A7047F0EE400A9FED130A2C
:100AF00020EE801ADFED121A81EE210A7047F0EE27
:100B0000400A9FED0F0A20EE801ADFED0C1A81EEED
:100B1000210A704730B5024600240023107855782A
:100B200028449578441908784D7828448D784319DD
:100B30009C4201D1002030BD0120FCE7D00F49408C
:100B40000000344310B52DED068B044694ED000AE9
:100B5000DFEDFB0A20EE200ADFEDFA0A80EE201A14
:100B6000B0EE419A94ED010ADFEDF50A20EE200A7D
:100B7000DFEDF40A80EE201AF0EE419A94ED020ABD
:100B8000DFEDEF0A20EE200ADFEDEE0A80EE201AFC
:100B9000B0EE41AAEC4890ED070AF0EE400A0120C1
:100BA000B0EE490A01F055FFF0EE40AAE74890ED9B
:100BB000000A30EE2A0A80ED000AB5EEC09AF1EE86
:100BC00010FA03D19FEDE20A80ED000ADF4890EDB4
:100BD000000ADFEDE00AB4EEE00AF1EE10FA04DDFF
:100BE0009FEDDC0A80ED000A0DE0D84890ED000A88
:100BF000DFEDD90AB4EEE00AF1EE10FA03D29FED70
:100C0000D60A80ED000AD04890ED080AF0EE400ABE
:100C10000220B0EE690A01F01CFFB0EE408ACF4816
:100C200090ED000A30EE080A80ED000AF5EEC09A59
:100C3000F1EE10FA03D19FEDC60A80ED000AC74815
:100C400090ED000ADFEDC30AB4EEE00AF1EE10FA0F
:100C500004DD9FEDC00A80ED000A0DE0BF4890ED75
:100C6000000ADFEDBD0AB4EEE00AF1EE10FA03D29D
:100C70009FEDB90A80ED000AB34890ED090AF0EE45
:100C8000400A0320B0EE4A0A01F0E3FEF0EE408A8B
:100C9000B34890ED000A30EE280A80ED000AB5EE68
:100CA000C0AAF1EE10FA03D19FEDA90A80ED000A67
:100CB000AB4890ED000ADFEDA70AB4EEE00AF1EED2
:100CC00010FA04DD9FEDA30A80ED000A0DE0A448B0
:100CD00090ED000ADFEDA00AB4EEE00AF1EE10FAA2
:100CE00003D29FED9D0A80ED000A0120974991ED06
:100CF000000A01F011FE0220984991ED000A01F06E
:100D00000BFE0320964991ED000A01F005FEBDECB3
:100D1000068B10BD70B52DED108B82B005460C46CC
:100D2000B7EE000AB0EE408A002695ED020ADFED2C
:100D30008D0A20EE200AF0EE000A20EE200A10EEC6
:100D4000101A084611F0AAFC41EC1A0B95ED010AA5
:100D500010EE101A084611F0A1FC41EC1E0B9FED9D
:100D6000820B10F001F98DED000B9FED810B53EC20
:100D7000102B9DED000B51EC100B10F041FF41ECDE
:100D80001F0B53EC1E2B11F093F941EC1C0B95ED4E
:100D9000000AFEEE000A20EE200A10EE101A0846A5
:100DA00011F07CFC41EC1D0B53EC1C2B10F06CFE85
:100DB00041EC1B0B53EC1A2B10F066FE41EC190BA7
:100DC00010F030FE206095ED020ADFED660A20EE9D
:100DD000200AF0EE000A20EE200A10EE101A084653
:100DE00011F05CFC41EC1A0B95ED010A10EE101AA3
:100DF000084611F053FC9FED5C0BCDE9000110F0AB
:100E0000B3F8B0EE40FAF0EE60FA9FED590B53ECF8
:100E1000102B51EC1F0B10F0F3FE41EC1E0B9DED5F
:100E2000000B53EC102B11F043F941EC1C0B95ED2A
:100E3000000AFEEE000A20EE200A10EE101A084604
:100E400011F02CFC41EC1D0B53EC1C2B11F03CFB66
:100E500041EC1B0B53EC1A2B10F016FE41EC190B56
:100E600010F0E0FDA06095ED000AD5ED020A9FEDBF
:100E70003D1A60EE810AB0EE001A00EE810A84EDA0
:100E8000010AD4ED000AB0EE600AFFF723FEDFEDA1
:100E90003A0AB4EEE00AF1EE10FA08DB94ED000A2B
:100EA000DFED350A80EE201AB0EE418A2AE0D4ED5B
:100EB000010AB0EE600AFFF70DFEDFED2F0AB4EE77
:100EC000E00AF1EE10FA08DB94ED010ADFED2A0AE0
:100ED00080EE201AB0EE418A14E0D4ED020AB0EEA2
:100EE000600AFFF7F7FDDFED240AB4EEE00AF1EE49
:100EF00010FA07DB94ED020ADFED1F0A80EE201ADC
:100F0000B0EE418AB5EEC08AF1EE10FA03D2B1EE2E
:100F1000480AB0EE408A00260BE004EB860090ED14
:100F2000000AC0EE080A04EB8600C0ED000A701C3F
:100F3000C6B2032EF1DB02B0BDEC108B70BD000019
:100F40000060DB46543636439014002040000020F9
:100F5000000000000000AF440000AFC444000020C7
:100F6000480000208FC2F53D00000000000008404E
:100F700000000000000000400080224400B52DED7C
:100F80000A8B81B0B0EE409A9FEDFC0AF0EE40AAC9
:100F90001FED110AB0EE40BA9FEDF90AF0EE40BA2B
:100FA0001FED150AF0EE409A1FED170AB0EE40CA89
:100FB0001FED190AF0EE40CA1FED1B0AB0EE40AA61
:100FC00068460CF0B9FF00EE100AB8EE400AF1EEE8
:100FD000040A20EE200ADFEDEB0A80EE201AB0EEC4
:100FE00041AAE94890ED000A3AEE400AF0EE40CA04
:100FF00080ED00AAE54890ED040A39EE400AB0EE13
:10100000408A39EE880AF0EE409AE14890ED000AF5
:1010100038EE400AB0EE40CA2BEE8C0AC0EE2C0A25
:101020002AEE880A0BEE290A30EE800AF0EE408A9A
:101030009FEDD80AF4EEC08AF1EE10FA04DB9FEDC2
:10104000D50AF0EE408A0AE09FEDD30AF4EEC08A9A
:10105000F1EE10FA03D29FEDD00AF0EE408ACC48B0
:1010600080ED008AB1EE680A01B0BDEC0A8B00BDCC
:10107000F0B52DED108B89B004460D46B0EE408AD8
:101080001FED4D0A10EE106A1FED4F0AB0EE409AA8
:101090001FED510AF0EE409A1FED530A8DED010A43
:1010A0001FED550A8DED000A1FED570AB0EE40DA2C
:1010B0001FED590AF0EE40DA08A80CF03DFF00EEF3
:1010C000100AB8EE400AF1EE040A20EE200ADFED25
:1010D000AD0A80EE201AF0EE41DAB04890ED000A39
:1010E0003DEEC00AB0EE40DAC0ED00DA94ED000A41
:1010F000B8EEC00ADFEDAA0A20EE200AB0EE40AA40
:1011000094ED010AB8EEC00ADFEDA50A20EE200A30
:10111000F0EE40AAB1EE4A0ADFEDA20A20EE200A64
:101120008DED070A9FED9F0A2AEE000A8DED060A53
:101130009FED9C0A2AEE800A8DED050A9FED990A23
:101140002AEE800A8DED040A9DED070ADDED050A01
:1011500030EE200A8DED020A9DED060ADDED040A4F
:1011600030EE200A8DED030A9DED030ADDED020A43
:1011700080EE201A11EE107A384611F08FFA41EC09
:101180001C0BB0EE4C0AF0EE6C0A0FF035FCB0EE22
:1011900040BAF0EE60BA51EC1B0B10F043FC08EEC5
:1011A000900A9FED810A28EE000ADFED800A80EEAA
:1011B000201AB0EE418A9DED020A20EE000ADDED14
:1011C000030A9DED031A00EE810A10EE101A08467C
:1011D00011F064FA41EC1C0BB0EE4C0AF0EE6C0A14
:1011E0000FF0C2FEB0EE40BAF0EE60BA51EC1B0B4D
:1011F00010F018FC06469DED030AB5EEC00AF1EEAC
:1012000010FA0DDB9DED020AB5EEC00AF1EE10FA00
:1012100006D29FED670A38EE800AF0EE408A39E088
:101220009DED030AB5EEC00AF1EE10FA0DD29DED68
:10123000020AB5EEC00AF1EE10FA06D29FED5D0A81
:1012400038EEC00AF0EE408A24E09DED020AB5EEC9
:10125000C00AF1EE10FA0BD19DED030AB5EEC00AFB
:10126000F1EE10FA04DB9FED540AF0EE408A11E033
:101270009DED020AB5EEC00AF1EE10FA0AD19DED1D
:10128000030AB5EEC00AF1EE10FA03D29FED4B0A45
:10129000F0EE408A38EE880A10EE101A084611F077
:1012A000FDF941EC1C0BB0EE4C0AF0EE6C0A0FF0AD
:1012B0002BFDB0EE40EAF0EE60EA304611F0EEF9B8
:1012C00041EC1B0B53EC1E2B10F0F2FE41EC1F0BFC
:1012D00010F0A8FB09EE900A38EE880A10EE101AFA
:1012E000084611F0DBF941EC1C0BB0EE4C0AF0EEB5
:1012F0006C0A0FF0D5FDB0EE40BAF0EE60BA3046A1
:1013000011F0CCF941EC1E0B53EC1B2B10F0D0FE6E
:1013100041EC1F0B10F086FB09EE100A89EE8D0AD6
:101320001A4880ED010A89EE0D0A80ED020A244870
:1013300090ED000A30EE290A224880ED000A22488A
:1013400090ED000A30EE090A1E4880ED010A90ED8A
:10135000000A85ED000A90ED010A85ED010A90ED85
:10136000000A174880ED000A164890ED010A164859
:1013700080ED000A09B0BDEC108BF0BD00008C427E
:101380003333C34000007A44500000209014002002
:101390004C00002000004844000048C46C000020BD
:1013A000C37DF43D2905353FC3F548400000344373
:1013B000DA0F4940D00F4940C3F5C83FC3F5C8BF55
:1013C00054000020640000205800002070B52DED6E
:1013D000108B82B0B0EE408A04469FEDFE0A10EEFC
:1013E000105A9FEDFC0AF0EE408A9FEDFA0AB0EE2B
:1013F00040FA9FEDF80A10EE106A9FEDF60AF0EE43
:1014000040FA9FEDF40A8DED010A9FEDF20A8DED91
:10141000000A5FED180A88EE200A5FED1C0A20EE34
:10142000200AB0EE408AB5EEC08AF1EE10FA36DB43
:1014300014B1012C32D118E09FEDE70A10EE105ADA
:101440009FEDE60AF0EE408A9FEDE50AB0EE40FA25
:101450009FEDE40A10EE106A9FEDE30AF0EE40FA09
:101460009FEDE20A8DED010A18E09FEDE10A10EE12
:10147000105A9FEDE00AF0EE408A9FEDDF0AB0EED1
:1014800040FA9FEDDE0A10EE106A9FEDDD0AF0EEE5
:1014900040FA9FEDDC0A8DED010A00BF36E014B181
:1014A000012C32D118E09FEDD80A10EE105A9FEDB2
:1014B000D70AF0EE408A9FEDD60AB0EE40FA9FEDD3
:1014C000D50A10EE106A9FEDD40AF0EE40FA9FEDB7
:1014D000D30A8DED010A18E09FEDD10A10EE105AE3
:1014E0009FEDD00AF0EE408A9FEDCF0AB0EE40FAB1
:1014F0009FEDCE0A10EE106A9FEDCD0AF0EE40FA95
:101500009FEDCC0A8DED010A00BF00BF9DED010AE1
:101510000FEE880A10EE101A084611F0BFF841ECE1
:101520001E0BB0EE4E0AF0EE6E0A0FF0B9FCB0EEF4
:1015300040CAF0EE60CA304611F0B0F841EC1D0B25
:1015400053EC1C2B10F0B4FD41EC1A0BB0EE4F0A1B
:1015500008EE880A10EE101A084611F09FF841ECC8
:101560001E0BB0EE4E0AF0EE6E0A0FF099FCB0EED4
:1015700040CAF0EE60CA284611F090F841EC1D0B0D
:1015800053EC1C2B10F094FD41EC1B0B53EC1A2B6D
:1015900010F07AFA41EC190B10F044FA00909DED2E
:1015A000000A02B0BDEC108B70BD2DE9F0432DEDAB
:1015B000108B8BB0B0EE408A04469FED860A10EE89
:1015C000105A9FED840A10EE106A9FED820A10EE09
:1015D000107A9FED800AF0EE408A9FED7E0A10EEB1
:1015E000108A9FED7C0A10EE109A9FED7A0A8DED1D
:1015F0000A0AB5EEC08AF1EE10FA2EDB14B1012C06
:101600002AD110E09FED8C0A10EE105A9FED8B0A44
:1016100010EE106A9FED8A0A10EE107A9FED890A8B
:10162000F0EE408A18E09FED880A10EE105A9FED08
:10163000870A10EE106A9FED860A10EE107A9FED71
:10164000850A10EE108A9FED840A10EE109A9FED25
:10165000830AF0EE408A00BF2EE014B1012C2AD19B
:1016600010E09FED7F0A10EE105A9FED7E0A10EEFB
:10167000106A9FED7D0A10EE107A9FED7C0AF0EE65
:10168000408A18E09FED7A0A10EE105A9FED790A11
:1016900010EE106A9FED780A10EE107A9FED770A2F
:1016A00010EE108A9FED760A10EE109A9FED750AE3
:1016B000F0EE408A00BF00BF14B1012C7DD150E094
:1016C00028EE880A10EE101A084610F0E7FF41ECE9
:1016D0001E0BB0EE4E0AF0EE6E0A0FF0E1FBB0EE1C
:1016E00040CAF0EE60CA384610F0D8FF41EC1D0B3E
:1016F00053EC1C2B10F0DCFC41EC1A0B28EE880A92
:1017000010EE101A084610F0C9FF41EC1F0BB0EEA6
:101710004F0AF0EE6F0A0FF0F7FA8DED080B304626
:1017200010F0BCFF41EC1E0B9DED080B53EC102B91
:1017300010F0BEFC41EC1C0B284610F0AFFF41EC52
:101740001D0B53EC1C2B10F09FF941EC1B0B53ECC1
:101750001A2B10F099F941EC190B10F063F90A906B
:1017600000BFB0EE000A28EE000A20EE280A10EEB4
:10177000101A084610F092FF41EC1C0BB0EE4C0A18
:10178000F0EE6C0A0FF08CFBB0EE40AAF0EE60AA0F
:10179000484610F083FF41EC1B0B53EC1A2B10F062
:1017A00087FC41EC190BB0EE000A28EE000A20EE8F
:1017B000280A10EE101A084600E0E3E010F06EFF71
:1017C00041EC1C0BB0EE4C0AF0EE6C0A0FF09CFAE8
:1017D0005AE0000000000000F628624280608E3C63
:1017E000D34D42C06666D0425F48E238CBA1454047
:1017F00052B8AA423718EA3B871631C0AE470842B2
:101800005D8AAB3C5C8F923F295C6E42C2A38D3CEB
:10181000A24546C04A0C08416002B73BB81E5DC0F5
:101820003D0A9042B3EF8A393B015DBF33336142D9
:101830006492913C9EEF8FC03D0A6740D12287C0E1
:10184000E17A5DC29CC4803F295C12C233337F4180
:1018500048E15CC2D7A3A4418FC26D4133C4213F8C
:10186000355EDE40FCA9B5C014AE69C25BB17F3FF6
:10187000A4705FC2F2D20D40508DF73F9A99574243
:10188000000044C1AAF1023FB0EE40AAF0EE60AA07
:10189000404610F003FF41EC1B0B53EC1A2B10F0E9
:1018A00007FC28EE880ACDE9040110EE101A08465C
:1018B00010F0F4FE41EC1D0BB0EE4D0AF0EE6D0A97
:1018C0000FF0EEFAB0EE40BAF0EE60BA384610F023
:1018D000E5FE41EC1C0B53EC1B2B10F0E9FB41EC3B
:1018E0001A0B28EE880A10EE101A084610F0D6FEE1
:1018F00041EC1E0BB0EE4E0AF0EE6E0A0FF004FA49
:10190000B0EE40DAF0EE60DA304610F0C7FE41EC9F
:101910001F0B53EC1D2B10F0CBFB41EC1B0B28468F
:1019200010F0BCFE41EC1C0B53EC1B2B10F0ACF880
:1019300053EC1A2BCDE900019DED000B51EC100B7F
:1019400010F0A2F8CDE902019DED040B53EC102B31
:101950009DED020B51EC100B10F096F853EC192B87
:10196000CDE906019DED060B51EC100B10F08CF843
:10197000CDE908019DED080B51EC100B10F052F869
:101980000A9000BF00BF9DED0A0A0BB0BDEC108BA2
:10199000BDE8F08310B52DED108B82B00446B0EE9B
:1019A000000AB0EE40BA1FED750AF0EE40BA9FEDA6
:1019B000FE0AB0EE40CAB0EE000AF0EE40CA1FEDDB
:1019C0007B0AB0EE40DA9FEDF80AF0EE40DA1FED48
:1019D0007F0AB0EE409A1FED810AB0EE40EA1FED9B
:1019E000830AF0EE40EA1FED850AB0EE40FA1FEDE3
:1019F000870AF0EE40FA1FED890A8DED000A1FED0F
:101A00008B0AB0EE40AA1FED8D0AF0EE40AA14B189
:101A1000012C72D138E001A80CF08EFA00EE100A09
:101A2000B8EE400AF1EE040A20EE200ADFEDDF0AEC
:101A300080EE201AB0EE41AADD4890ED000A3AEEA1
:101A4000400A8DED000A80ED00AADA48B0F90000E6
:101A500000EE100AF8EEC00AD748B0F9000000EE18
:101A6000100AB8EEC00A70EEC08AD44890ED000AA1
:101A700078EEC09AF0EE4BEAB0EE6BFAF0EE4CFA6C
:101A8000CF4890ED008A38E001A80CF055FA00EE3E
:101A9000100AB8EE400AF1EE040A20EE200ADFED4B
:101AA000C30A80EE201AF0EE41AAC64890ED000A63
:101AB0003AEEC00A8DED000AC0ED00AABD48B0F9AB
:101AC000020000EE100AF8EEC00ABB48B0F90200AE
:101AD00000EE100AB8EEC00A70EEC08ABA4890ED67
:101AE000000A78EEC09AF0EE6CEAB0EE4DFAF0EE35
:101AF0006DFAB64890ED008A00BF00BF38EE280AA4
:101B0000B0EE408A9FEDB20AB4EEC08AF1EE10FA50
:101B100004DD9FEDAF0AB0EE408A0AE09FEDAD0A0A
:101B2000B4EEC08AF1EE10FA03D29FEDAA0AB0EE2D
:101B3000408AB0EE680AFEF7CDFFB0EE40EAB2EEA2
:101B4000040AB4EEC0EAF1EE10FA24D814B1012C64
:101B50001CD10DE01FEDE10A994880ED000AB6EEB8
:101B6000000AB0EE40BA1FEDE50AB0EE40CA0DE043
:101B70001FEDE80A954880ED000AB6EE000AF0EE87
:101B800040CA1FEDEC0AF0EE40DA00BF00BF1FEDC7
:101B9000EF0AB0EE409A2FEEA91A9DED000AC1EEB1
:101BA000000A2EEEA80A0FEE480A30EE600AB0EEE8
:101BB000409A14B1012C08D103E0814880ED008ADD
:101BC00003E0824880ED008A00BF00BF9FED820ADB
:101BD000B4EEC09AF1EE10FA04DD9FED7F0AB0EE8C
:101BE000409A0AE09FED7D0AB4EEC09AF1EE10FA39
:101BF00003D29FED7A0AB0EE409AB0EE490A02B0E5
:101C0000BDEC108B10BDDFED766AB0EE661ADFED2D
:101C1000756AF0EE661ADFED746AB0EE662ADFEDE3
:101C2000706AF0EE662ADFED6F6AB0EE663ADFEDBD
:101C30006E6AF0EE663ADFED6D6AB0EE660ADFEDD1
:101C40006B6AF0EE660ADFED696AB0EE664ADFEDB8
:101C5000676AF0EE664ADFED656AB0EE665ADFED60
:101C6000636AF0EE665ADFED616AB0EE666A10B143
:101C7000012854D129E04F49D1ED016A4E4991ED37
:101C8000017A76EEC76AF0EE660A594991ED007A5C
:101C9000F0EE007AF0EE606A47EEC76A554991EDC2
:101CA000007A76EE876AF0EE664AB0EE415AF0EEC0
:101CB000615AB0EE426A4E49D1ED006A4D49C1ED1C
:101CC000006A4B49C1ED000A29E03A49D1ED026AA8
:101CD000394991ED027A76EEC76AF0EE660A464916
:101CE00091ED007AF0EE007AF0EE606A47EEC76A96
:101CF000424991ED007A76EE876AF0EE664AB0EEE0
:101D0000625AF0EE435AB0EE636A3B49D1ED006A85
:101D10003A49C1ED006A3849C1ED000A00BF00BF71
:101D200070EEC46A66EE856A45EEA06A46EE246AE5
:101D3000B0EE660AF3EE046AB4EEE60AF1EE10FACB
:101D400004DDF3EE046AB0EE660A0AE0FBEE046A14
:101D5000B4EEE60AF1EE10FA03D2FBEE046AB0EE3E
:101D6000660A704770B52DED108B82B00020FFF72A
:101D70004AFF10EE105A0120FFF745FF10EE106ADF
:101D80000D48D0ED040AB0EE600AFEF7ADFE10EE8D
:101D9000104A304610F082FC41EC1D0B204610F03A
:101DA0007DFC41EC1F0B2BE0ACC5273700007A44CB
:101DB00080000020BC140020901400207800002037
:101DC00070000020840000207C00002074000020AF
:101DD0000000FA440000FAC40000E1430000E1C33F
:101DE000A69B443C6F12033A0AD7A33D00000000B3
:101DF00088000020900000208C000020940000202B
:101E0000B0EE4F0AF0EE6F0A0FF04AF8B0EE40EA7B
:101E1000F0EE60EA53EC1D2B51EC1E0B10F048F96C
:101E200041EC1B0B284610F039FC41EC1D0B204601
:101E300010F034FC41EC1F0BB0EE4F0AF0EE6F0ACD
:101E40000EF062FFB0EE40EAF0EE60EA53EC1D2BBC
:101E500051EC1E0B10F02CF941EC1C0B53EC1B2B1E
:101E60000FF012FE41EC190BFE4890ED000A10EE47
:101E7000101A084610F012FC41EC1A0B53EC192B07
:101E80000FF002FE41EC180B0FF0CCFDF549086095
:101E9000304610F003FC41EC1D0B204610F0FEFB19
:101EA00041EC1F0BB0EE4F0AF0EE6F0A0EF02CFF64
:101EB000B0EE40EAF0EE60EA53EC1D2B51EC1E0B45
:101EC00010F0F6F841EC1B0B284610F0E7FB41EC54
:101ED0001D0B204610F0E2FB41EC1F0BB0EE4F0A49
:101EE000F0EE6F0A0EF0DCFF8DED000B9DED000BA8
:101EF00051EC100B0FF08AFD41EC1E0B53EC1D2B27
:101F000010F0D6F841EC1C0B53EC1B2B0FF0BCFD72
:101F100041EC190BD34890ED010A10EE101A084657
:101F200010F0BCFB41EC1A0B53EC192B0FF0ACFD7D
:101F300041EC180B0FF076FDCA494860CA4800888A
:101F4000CA490880C8484088488002B0BDEC108B60
:101F500070BD70B52DED108BC348D0ED040AB0EE06
:101F6000600AFEF7C1FD10EE104A0020FFF712FDD7
:101F700010EE105A0120FFF70DFD10EE106ABA485E
:101F800090ED010AB94880ED010AB74890ED020AC8
:101F9000B64880ED020A304610F080FB41EC1C0B85
:101FA000204610F07BFB41EC1E0BB0EE4E0AF0EE2B
:101FB0006E0A0EF075FFB0EE40DAF0EE60DA53EC28
:101FC0001C2B51EC1D0B10F073F841EC1A0B28463A
:101FD00010F064FB41EC1C0B204610F05FFB41EC61
:101FE0001E0BB0EE4E0AF0EE6E0A0EF08DFEB0EE55
:101FF00040DAF0EE60DA53EC1C2B51EC1D0B10F0C4
:1020000057F841EC1B0B53EC1A2B0FF03DFD41EC44
:10201000190B0FF007FD08EE100A304610F03EFBDA
:1020200041EC1C0B204610F039FB41EC1E0BB0EECE
:102030004E0AF0EE6E0A0EF067FEB0EE40DAF0EEF9
:1020400060DA53EC1C2B51EC1D0B10F031F841EC15
:102050001A0B284610F022FB41EC1C0B204610F016
:102060001DFB41EC1F0BB0EE4F0AF0EE6F0A0EF0B5
:1020700017FFB0EE40EAF0EE60EA51EC1E0B0FF0F5
:10208000C5FC41EC1D0B53EC1C2B10F011F841EC7E
:102090001B0B53EC1A2B0FF0F7FC41EC190B0FF054
:1020A000C1FC08EE900A6F4880ED008AC0ED018AFD
:1020B000BDEC108B70BD0EB5002000900190029019
:1020C0006B480078012802D1FFF743FF04E068481D
:1020D000007808B9FFF746FE6448D0ED040AB0EE78
:1020E000600AFEF74BFF5F4880ED020A90ED010A9F
:1020F000DFED600AB4EEE00AF1EE10FA04DB9FEDCA
:102100005D0A80ED010A0DE0564890ED010ADFED11
:102110005A0AB4EEE00AF1EE10FA03D89FED560A1F
:1021200080ED010A4F4890ED000ADFED520AB4EE4F
:10213000E00AF1EE10FA04DB9FED4E0A80ED000A92
:102140000DE0484890ED000ADFED4B0AB4EEE00ADE
:10215000F1EE10FA03D89FED480A80ED000A6946B7
:102160004048FEF7D7FD6846FEF7ECFC0EBD00B513
:102170002DED088B83B01FEDE30AB0EE408A1FED12
:10218000E50AB0EE40AA02A80BF0D6FE00EE100A57
:10219000B8EE400AF1EE040A20EE200A5FEDFD0AD7
:1021A00080EE201AB0EE41AA344890ED000A3AEED3
:1021B000400AB0EE408A80ED00AA314890ED000A56
:1021C000B8EEC00A2F48D0ED000A30EE600ABDEE2E
:1021D000C00A8DED000A2C4890ED000AB8EEC00A46
:1021E0002A48D0ED000A30EE600ABDEEC00A8DED3F
:1021F000010A1D48D0ED040AB0EE600A2449684681
:10220000FEF736FF1E4890ED000AB8EEC00A1D48E2
:1022100080ED000A1C4890ED000AB8EEC00A1B4889
:1022200080ED000A1A4890ED000ABDEEC00A10EEDB
:10223000100A00B20C490880154890ED010ABDEE65
:10224000C00A10EE100A00B24880124890ED000A51
:10225000B8EEC00AF0EE408A0F4890ED000AB8EEE2
:10226000C00A1BE0E814002090140020BC140020D9
:102270003C0000200000FA430000FAC3B400002034
:1022800024000020A400002028000020A800002036
:10229000AC0000201400002018000020B0EE409A8E
:1022A0001B4890ED000AB8EEC00AF0EE409A1948BB
:1022B00090ED000A38EEC00AF0EE40AA164890ED04
:1022C000000A39EE400AB0EE40BA144890ED000A18
:1022D00039EEC00AF0EE40BA8AEE880A084680ED70
:1022E000070A8BEE080A80ED080A8BEE880A80ED5B
:1022F000090A0848C0ED008A074880ED009A07489F
:10230000C0ED009A03B0BDEC088B00BD7047000023
:102310001C000020980000209C000020A00000204D
:102320001CB50121022001F035FC4FF40070009033
:1023300001208DF8040000208DF8060003208DF8A0
:10234000050001208DF8070069460D4801F084F969
:102350004FF400710A4801F0FBF91CBD0948006800
:1023600008B9012000E000200649086070470020FD
:102370000449086070470120024908607047000066
:1023800000040240A482404210B504F083FF4020C4
:1023900002F08EFE88B1A848006828B1A7480068FE
:1023A000401CA649086004E0A4480068401EA349F8
:1023B0000860402002F087FE22E04FF4007002F037
:1023C00077FE98B19C48001D006828B19C480068C1
:1023D000401E9B49086004E099480068401C9849E9
:1023E00008604FF4007002F06EFE09E0202002F059
:1023F0005FFE28B193A00CF073FC202002F063FE76
:1024000004F059FF10BD10B504F044FF012002F0A4
:102410004FFE28B190A00CF063FC012002F053FEA7
:1024200004F049FF10BD10B504F034FF4FF4006014
:1024300002F03EFE90B18D48006828B18C480068DB
:10244000401C8B49086004E089480068401E8849A8
:1024500008604FF4006002F036FE16E04FF4804052
:1024600002F026FE88B18348006828B182480068DF
:10247000401E8149086004E07F480068401C7E4996
:1024800008604FF4804002F01EFE04F014FF10BDFF
:1024900010B504F0FFFE102002F00AFE20B17748CC
:1024A0000068102002F00FFE04F005FF10BD10B50B
:1024B00004F0F0FE022002F0FBFD88B16D480C38FC
:1024C000006828B16E480068401C6D49086004E04F
:1024D0006B480068401E6A490860022002F0F3FD64
:1024E00004F0E9FE10BD00B585B001210E2001F019
:1024F00051FB44F2F130009000208DF804000320DD
:102500008DF8050001208DF8070069465D4801F04F
:10251000A3F84FF44060009000208DF804000320E1
:102520008DF8050001208DF807006946564801F036
:1025300093F8012000906946544801F08DF84A2034
:1025400000906946524801F087F84FF470714D4889
:1025500001F0FEF84FF440614B4801F0F9F8012119
:102560004A4801F0F5F84A21494801F0F1F8012103
:10257000880301F069FB0621022001F070FC0921AB
:10258000022001F06CFC0021022001F068FC052112
:10259000022001F064FC0B21032001F060FC042107
:1025A000022001F05CFC0E21022001F058FC012108
:1025B000042001F054FC44F67320029000208DF8B2
:1025C0000C000C208DF80D0001208DF80E0002A8E3
:1025D00002F008FD17208DF8100000208DF8110082
:1025E00002208DF8120001208DF8130004A800F0DD
:1025F00042FF0A208DF8100004A800F03CFF0720DD
:102600008DF8100004A800F036FF06208DF81000A9
:1026100004A800F030FF28208DF8100000208DF86D
:10262000110002208DF8120001208DF8130004A87B
:1026300000F021FF05B000BD1C024142180000203F
:10264000140000206F6E2074686520746F70206E17
:102650006F77210D0A0000006F6E20626F74746F37
:102660006D206E6F77210D0A000000002882414224
:102670001C00002018024242280000200082404234
:102680002400002000080240000C02400004024028
:102690000010024030B58BB004460D4601210846BB
:1026A00001F0D2FA0121102001F074FA012209216F
:1026B000FE4801F05CF801220B21FC4801F057F8BC
:1026C0004FF42060099002208DF8280003208DF837
:1026D000290000208DF82A0001208DF82B0009A97F
:1026E000F24800F0B9FFA720ADF818000020ADF8BF
:1026F0001A0044F61F6007900020ADF8200006A9DC
:10270000EB4801F0BCFE7020ADF804000120ADF8EC
:1027100006000220ADF8100001A9E54801F044FFD1
:1027200001A9E34801F079FF0121E14802F021FB12
:102730000821DF4802F0C5F80821DD4802F0CAF898
:102740000121DB4801F006FF0121D94801F020FFFB
:102750000121082001F067FA0121052001F01AFA91
:1027600002220021D34801F002F802220121D148BF
:1027700000F0FDFF02221146CE4800F0F8FF0222D1
:102780000321CC4800F0F3FF0F20099002208DF8C0
:10279000280003208DF8290000208DF82A00012050
:1027A0008DF82B0009A9C34800F056FF0C200990B2
:1027B00001208DF8280009A9BF4800F04DFF302006
:1027C000099009A9BB4800F047FF0220ADF81800A6
:1027D0000020ADF81A0040F2775007900020ADF8C5
:1027E000200006A9B54801F04AFE7020ADF80400AB
:1027F0000120ADF806000220ADF8100001A9AF4895
:1028000001F0D2FE01A9AD4801F007FF01A9AB48D4
:1028100001F050FF01A9A94801F0B2FF0121A7482A
:1028200002F0A7FA0821A54802F04BF80821A348B6
:1028300002F050F80821A14802F059F808219F48F9
:1028400002F05EF801219D4801F084FE01219B48C1
:1028500001F09EFE0BB030BD70B504460D463DB98B
:102860002146964801F0FBFF00209549086009E0E9
:10287000012D07D1C4F5AF61904801F0F0FF0120B0
:102880008F49086070BD70B504460D46012D07D113
:1028900021468A4801F0E7FF00208A49086008E0E5
:1028A0003DB9C4F5AF61854801F0DDFF01208549E0
:1028B000086070BD70B504460D464DB9C4F5AF61F2
:1028C0007E4801F0CEFF01207E49091F086009E023
:1028D000012D07D12146794801F0C3FF0020794935
:1028E000091F086070BD70B504460D4645B9214604
:1028F000724801F0B2FF00207149091F08600AE028
:10290000012D08D1C4F5AF616C4801F0A6FF01208C
:102910006B49091F086070BD10B52DED028BB0EE3C
:10292000408A0446F0EE488AB5EEC08AF1EE10FA0D
:1029300003D2B1EE680AF0EE408A012C04D0022CDA
:102940001ED0032C54D137E0B5EEC08AF1EE10FA58
:1029500008DBBCEEE80A10EE101A88B20121FFF77E
:10296000C2FF0CE0B5EEC08AF1EE10FA07D2BCEE61
:10297000E80A10EE101A88B20021FFF7B4FF37E022
:10298000B5EEC08AF1EE10FA08DBBCEEE80A10EEF4
:10299000101A88B20121FFF75FFF0CE0B5EEC08A84
:1029A000F1EE10FA07D2BCEEE80A10EE101A88B267
:1029B0000021FFF751FF1BE0B5EEC08AF1EE10FADF
:1029C00008DBBCEEE80A10EE101A88B20121FFF70E
:1029D00071FF0CE0B5EEC08AF1EE10FA07D2BCEE42
:1029E000E80A10EE101A88B20021FFF763FF00BF5B
:1029F00000BFBDEC028B10BD012806D0022809D013
:102A000003280CD0042814D10EE000212B4A3432C4
:102A100011600EE00021294A3832116009E00021DE
:102A2000264A3C32116004E00021244A4032116001
:102A300000BF00BF704700B50120FFF7DDFF022097
:102A4000FFF7DAFF0320FFF7D7FF0420FFF7D4FFDB
:102A500000BD2DE9F0412DED108B90B0F0EE40BAA5
:102A6000F0EE60DA05469FED180AF0EE40FA9FEDB1
:102A7000170A10EE106A9FED160A8DED0E0A9FEDF3
:102A8000120A8DED0D0A9FED110A10EE107A9FEDDE
:102A9000100A8DED0C0A9FED0C0A8DED0B0A9FEDCF
:102AA0000B0A10EE108A9FED0A0A13E00010024094
:102AB000000001400000024000080240000C0040FD
:102AC0008C024142940240426C09793A95BFD63358
:102AD00082A8FB378DED0A0A9FEDA20AB0EE40DA1C
:102AE0009FEDA00AB0EE40EA9FED9E0AF0EE40EAAC
:102AF0009FED9C0AB0EE40FA9FED9B0AF4EEC0BA3F
:102B0000F1EE10FA0ED29FED970A984880ED000A78
:102B10009FED940A964880ED000A9FED920A954831
:102B200080ED000A3BEEED8A012D04D0022D2FD05E
:102B3000032D2CD159E00FA80BF0FEF900EE100A7E
:102B4000B8EE400AF1EE040A20EE200ADFED8A0A10
:102B500080EE201AB0EE41EA884890ED000A3EEE81
:102B6000400AB0EE40DA80ED00EA854890ED000AB8
:102B700038EE400A80EE0DAAF0EE6FAA34469DEDC5
:102B80000EBA7A4800680FF089FD41EC190B59E044
:102B90000FA80BF0D1F900EE100AB8EE400AF1EEE2
:102BA000040A20EE200ADFED740A80EE201AF0EE0F
:102BB00041EA744890ED000A3EEEC00AB0EE40DAF9
:102BC000C0ED00EA704890ED000A38EE400A80EE51
:102BD0000DAADDED0DAA3C469DED0CBA64480068D7
:102BE0000FF05CFD41EC190B2CE00FA80BF0A4F9E1
:102BF00000EE100AB8EE400AF1EE040A20EE200AB8
:102C0000DFED5D0A80EE201AB0EE41FA5F4890EDEC
:102C1000000A3FEE400AB0EE40DA80ED00FA5C4870
:102C200090ED000A38EE400A80EE0DAADDED0BAA09
:102C300044469DED0ABA4F4800680FF02FFD41EC65
:102C4000190B00BF00BF18EE100A0FF027FD41EC72
:102C50001C0B53EC192B0EF017FF41EC190B2BEE4C
:102C60000A0A10EE101A08460FF018FDCDE9060109
:102C700020460FF013FD53EC192BCDE900019DED1B
:102C8000000B51EC100B0FF013FA41EC1C0B2AEE69
:102C9000880A10EE101A08460FF000FD53EC1C2BAA
:102CA000CDE902019DED020B51EC100B0EF0ECFE94
:102CB000CDE904019DED060B53EC102B9DED040BAB
:102CC00051EC100B0EF0E0FECDE908019DED080B74
:102CD00051EC100B0EF0A6FE08EE900A012D04D068
:102CE000022D0CD0032D1ED113E051EC190B0EF068
:102CF00099FE1E490860224880ED008A13E051ECDD
:102D0000190B0EF08FFE1A4908601F4880ED008AEB
:102D100009E051EC190B0EF085FE164908601C48BD
:102D200080ED008A00BF00BF9FED1A0AF4EEC08A52
:102D3000F1EE10FA04DD9FED170AF0EE408A0AE08A
:102D40009FED150AF4EEC08AF1EE10FA03D29FED62
:102D5000120AF0EE408AB0EE680A10B0BDEC108B9B
:102D6000BDE8F081000000000000C842B80000206B
:102D7000BC000020C000002000007A44D0000020E9
:102D8000C4000020D4000020C8000020D80000208B
:102D9000CC0000200000AF440000AFC47FB5054662
:102DA0000C460121022000F03EFF0295ADF80440E0
:102DB0000020ADF80600ADF80C0001A9124801F0A2
:102DC0005EFB01221146104801F0FAFF01210E4876
:102DD00001F0DEFB1D208DF8000000208DF80100C1
:102DE0008DF8020001208DF80300684600F043FBD7
:102DF0007FBD10B50121044801F0F9FF012102480F
:102E000002F006F810BD00000004004010B588B0C4
:102E100004460121082000F0BDFE0121480400F015
:102E200002FF07220521ED4800F0A1FC0722062140
:102E3000EA4800F09CFC6020069002208DF81C00FF
:102E40008DF81D0000208DF81E0001208DF81F0058
:102E500006A9E24800F000FC02940020ADF80C0046
:102E6000ADF80E00ADF81000ADF814000C20ADF870
:102E7000120002A9DA4801F092F80121D84801F0C5
:102E800016F9012240F22551D54801F0C6F9262055
:102E90008DF8040000208DF805008DF80600012053
:102EA0008DF8070001A800F0E6FA08B010BD002078
:102EB00004E00021CB4A1154411CC8B20B28F8DBB6
:102EC0000021C94A1170704710B504F0E3F940F2CF
:102ED0002551C34801F0DCF9F8B1C448007800B3CB
:102EE000BF48001D0088BF49BF4A12788854BE48B9
:102EF0000078401CBC490870BA480078552801D0B9
:102F0000FFF7D5FFB84800780B2812D1B5480078F4
:102F1000552803D10020B54908700AE0FFF7C7FF24
:102F200007E0AF48001D0088C1B2AE48AE4A127833
:102F3000815404F0C0F910BD00BFA949098801F00F
:102F400040010029F9D0A649091D0880704700B545
:102F500002461078FFF7F0FF5078FFF7EDFF00BD55
:102F600000B5024603E01078FFF7E6FF521C107828
:102F70000028F8D100BD00B50246002305E0107816
:102F8000FFF7DAFF521C581CC3B20B2BF7DB00BD56
:102F900010B52DED028B9FED960AB0EE408A954854
:102FA00090ED000A944880ED000A90ED000A9348E5
:102FB000D0ED000A30EE600AB0EE408AB0EE480A6A
:102FC000FDF788FDDFED8E0AB4EEE00AF1EE10FAAF
:102FD0001CDD894890ED000AB5EEC00AF1EE10FA4A
:102FE0000AD2B0EE480AFDF775FDDFED860A30EE35
:102FF000C00AB0EE408A09E0B0EE480AFDF76AFD6B
:10300000DFED800A30EE600AB0EE408A7E4890ED37
:10301000000A30EE080A80ED000A774890ED000AB9
:10302000764880ED000ABDEC028B10BD10B56D48EE
:103030004078512802D0532864D164E06948C078B0
:10304000000200B267498978084300EE100AB8EE22
:10305000C00ADFED6E0A80EE201AB1EE000A21EE02
:10306000000ADFED6B0A20EE200A6A4880ED000AB4
:103070005C484079000200B25A490979084300EEE1
:10308000100AB8EEC00ADFED610A80EE201AB1EE38
:10309000000A21EE000ADFED5E0A20EE200A5E48FB
:1030A00080ED000A4F48C079000200B24D4989798D
:1030B000084300EE100AB8EEC00ADFED540A80EEB5
:1030C000201AB1EE000A21EE000ADFED510A20EECF
:1030D000200A524880ED000A4248407A000200B2BD
:1030E0004049097A084300EE100AB8EEC00ADFED45
:1030F0004C0A80EE201AB3EE050A31EE000A494868
:1031000080ED000A65E03748C078000200B235491A
:103110008978084300EE100AB8EEC00A9FED3B1A0A
:10312000C0EE010A9FED400A20EE800A3F4880ED84
:10313000000A2C484079000200B22A490979084364
:1031400000EE100AB8EEC00ADFED300A80EE201A59
:103150009FED350A21EE000A354880ED000A21482E
:10316000C079000200B21F498979084300EE100AB5
:10317000B8EEC00ADFED250A80EE201A9FED2A0A7C
:1031800021EE000A1B4880ED000A1648407A000232
:1031900000B21449097A084300EE100AF8EEC00A9A
:1031A0009FED1F1A80EE810AF3EE050A30EE200A29
:1031B0001C4880ED000AFFF7EBFE1E4890ED0A0A5E
:1031C0001148D0ED000A30EEC00A1A4880ED040A1A
:1031D00000BF00BF01200549087010BD000C02406F
:1031E00000440040F4140020DD000020DC0000203A
:1031F00000000000F4000020040100200001002075
:10320000000096430000B443FC000020000000478B
:10321000CDCC1C41E0000020E4000020E8000020AC
:103220000000AA43F800002000003443F000002012
:10323000EC0000209014002010B588B00446012155
:10324000022000F0A7FC0121880400F0ECFC07221A
:103250000A216E4800F08BFA07220B216B4800F020
:1032600086FA4FF44060069002208DF81C008DF81D
:103270001D0000208DF81E0001208DF81F0006A9FA
:10328000624800F0E9F902940020ADF80C00ADF8B6
:103290000E00ADF81000ADF814000C20ADF81200CF
:1032A00002A95B4800F07BFE0121594800F0FFFEB7
:1032B000012240F22551564800F0AFFF27208DF83B
:1032C000040001208DF805008DF806008DF8070038
:1032D00001A800F0D0F808B010BD002004E00021E3
:1032E0004C4A1154411CC8B20E28F8DB00214A4A4E
:1032F0001170704710B52DED028B84B00020039043
:1033000002900190002400BF06E04249A01C085C26
:1033100003A90855601CC4B2032CF6DB03A80DF00A
:10332000D7FCB0EE408AF0EE608A51EC180B0EF03C
:103330002BFE3A490880002406E03649A01D085CAF
:1033400002A90855601CC4B2032CF6DB02A80DF0DC
:10335000BFFCB0EE408AF0EE608A51EC180B0EF024
:1033600013FE2E494880002407E02A4904F10A0090
:10337000085C01A90855601CC4B2032CF5DB01A848
:103380000DF0A6FCB0EE408AF0EE608A51EC180B0E
:103390000EF0FAFD224908800120224908702249D6
:1033A000087004B0BDEC028B10BD10B503F072FFC5
:1033B00040F22551164800F06BFFC8B11448001DBB
:1033C00000881449144A1278885413480078401C25
:1033D000114908700F480078502801D0FFF77DFF91
:1033E0000D4800780E2803D1FFF784FFFFF775FF23
:1033F00003F061FF10BD00BF0549098801F04001DD
:103400000029F9D00249091D0880704700040240D4
:1034100000480040FF140020080100200A0100209D
:103420000E010020120100201101002009488047F0
:1034300009480047FEE7FEE7FEE7FEE7FEE7FEE796
:10344000FEE7FEE7FEE7FEE704480549054A064BAE
:1034500070470000A109000889010008103600200B
:10346000103C002010380020103800203249014361
:10347000324A1160704770B5002100230F22C478D2
:103480001CB32E4C246804F4E064C4F5E064C4F377
:103490000721C1F10404E3B20A4144789C40E1B23F
:1034A0008478144021430C07210E254C0578615582
:1034B000047804F01F050124AC4005786D11AD00BF
:1034C00005F1E025C5F8004109E0047804F01F0586
:1034D0000124AC401B4D0678761145F8264070BD9E
:1034E000194A0A400243154B1B1F1A60704739B135
:1034F000124A121D12680243104B1B1D1A6006E08F
:103500000E4A121D126882430C4B1B1D1A60704735
:10351000042808D14FF0E021096941F004014FF07F
:10352000E022116107E04FF0E021096921F0040178
:103530004FF0E022116170470000FA050CED00E049
:1035400000E400E080E100E080FFFF1F10B50446CA
:103550009848844208D10121084600F086FB0021EA
:10356000012000F082FB76E09348844208D10121DB
:10357000022000F07AFB0021022000F076FB6AE0D6
:103580008E48844208D10121042000F06EFB002106
:10359000042000F06AFB5EE08948844208D10121E2
:1035A000082000F062FB0021082000F05EFB52E0E2
:1035B0008448844208D10121102000F056FB0021EC
:1035C000102000F052FB46E07F48844208D10121E0
:1035D000202000F04AFB0021202000F046FB3AE0CA
:1035E0007A48844208D10121402000F03EFB0021AE
:1035F000402000F03AFB2EE07548844208D10121BA
:10360000802000F032FB0021802000F02EFB22E021
:103610007048844208D10121801500F026FB00216A
:10362000A01500F022FB16E06B48844208D101216E
:10363000401500F01AFB0021601500F016FB0AE0AF
:103640006648844207D10121001500F00EFB0021DD
:10365000201500F00AFB10BDF0B50A46002100233A
:10366000002400BF3DE0012505FA01F3156805EAD5
:1036700003049C4234D105684F000326BE40B54385
:10368000056015794E00B54006683543056015792B
:10369000012D02D01579022D16D185684F00032621
:1036A000BE40B543856055794E00B54086683543C8
:1036B0008560456801268E40B5434560456896792A
:1036C0008E40B6B235434560C5684F000326BE4004
:1036D000B543C560D5794E00B540C6683543C56071
:1036E000491C1029BFD3F0BD4FF6FF7101600021C6
:1036F000017141718171C171704708B54FF4803219
:103700000092009A0A430092009AC261C161009A35
:10371000C261C2690092C269009208BD02460020DF
:1037200013690B400BB1012000E0002070470146F7
:10373000086980B270470246002053690B400BB104
:10374000012000E0002070470146486980B27047C0
:1037500001837047418370470AB1018300E04183D0
:1037600070474161704742694A4042617047F0B515
:10377000002300244D07ED0E02FA05F3CE1000F1F0
:10378000200555F826504E07F70E0F26BE40B543CC
:10379000CF1000F1200646F82750CE1000F120058A
:1037A00055F8265045EA0304CE1000F1200545F8EF
:1037B0002640F0BD00000240000402400008024024
:1037C000000C0240001002400014024000180240A9
:1037D000001C024000200240002402400028024059
:1037E000F948006840F00100F74908600020F649F8
:1037F00008310860F4480068F4490840F24908605C
:10380000F348091D0860F348EF4984310860F04827
:103810001038091D0860EC48006820F48020EA494F
:1038200008600020E8490C310860E7498C310860E5
:1038300070470021E44A921C1170114608707047CD
:1038400010B501460022002300204A11012A02D1AE
:10385000DD4C236808E0022A03D1DB4C7034236876
:1038600002E0D94C7434236801F01F020124944013
:103870001C400CB1012000E0002010BD38B5002034
:1038800000900024002500BF3120FFF7D9FF054636
:103890000098401C00900098B0F5A04F01D0002D7A
:1038A000F2D03120FFF7CCFF08B1012400E0002462
:1038B000204638BD01460020C34A106820F0F800B9
:1038C00040EAC10010607047C3490860704700219A
:1038D000BD4A703211701170012802D004280AD13B
:1038E00004E00121B84A7032117005E00521B64AA2
:1038F0007032117000E000BF00BF7047B749086028
:10390000704770B5049C41EA82150126C6EB530648
:1039100045EA0645054345EA0465AB4E361D35606C
:1039200070BDAD4908667047820142EA0172A64B3C
:1039300084331A607047A8498866704710B58301C0
:1039400043EA016343EA02739F4C8834236010BD4D
:10395000A14908677047A049C86470470246002023
:10396000994B0833186820F0EC6042EA01031843D1
:10397000954B08331860704702460020924B08337D
:10398000186820F0784042EA010318438E4B083350
:1039900018607047014600208B4A0832106820F0FA
:1039A000030008431060704787480830006800F043
:1039B0000C00704701460020834A0832106820F04E
:1039C000F000084310607047014600207E4A08322C
:1039D000106820F4E0500843106070470146002052
:1039E000794A0832106820F4604040EAC100106053
:1039F0007047F0B500210022002402250026022392
:103A0000714F08373F6807F00C0121B1042905D038
:103A1000082937D105E0724F076036E0714F076023
:103A200033E0694F3F1D3F68C7F38056664F3F1D27
:103A30003F6807F03F036EB16A4FB7FBF3F7DFF85B
:103A400088C10CF1040CDCF800C0CCF3881C07FB27
:103A50000CF40CE0624FB7FBF3F7DFF86CC10CF12C
:103A6000040CDCF800C0CCF3881C07FB0CF4564FA8
:103A70003F1D3F68C7F301477F1C7D00B4FBF5F78E
:103A8000076002E0564F076000BF00BF4E4F083787
:103A90003F6807F0F0010909534F7A5C0768D74087
:103AA0004760494F08373F6807F4E051890A4E4F95
:103AB0007A5C4768D7408760434F08373F6807F410
:103AC0006041490B484F7A5C4768D740C760F0BDFA
:103AD000002100F44072B2F5407F0AD13A4A083220
:103AE000116821F4F811414A02401143364A083264
:103AF0001160354A70321268C0F30B031A43324B1F
:103B000070331A607047354944390860704733494B
:103B10004039086070473649086070470146002008
:103B2000294A8C32106820F01F004A1E1043264A92
:103B30008C321060704701460020234A8C32106896
:103B400020F4F8504A1E40EA02201F4A8C321060CE
:103B50007047014600201C4A8C32106820F4401047
:103B600008431060704701460020174A8C321068E5
:103B700020F4400008431060704701460020124ABC
:103B80008C32106820F440300843106070471949A7
:103B90000860704739B10C4A3032126802430A4B50
:103BA00030331A6006E0084A303212688243064B0E
:103BB00030331A607047F9B1034A34321268024355
:103BC000014B34331A601CE000380240FFFFF6EA74
:103BD000103000240030002000004742800E474291
:103BE0000024F40040787D0113010020FFFCFF0F4A
:103BF0005C014742E01147428F4A126882438E4B74
:103C00001A60704739B18C4A121D126802438A4B00
:103C10001B1D1A6006E0884A121D12688243864BFB
:103C20001B1D1A60704739B1834A0C321268024377
:103C3000814B0C331A6006E07F4A0C3212688243D3
:103C40007D4B0C331A60704739B17B4A10321268D1
:103C50000243794B10331A6006E0774A103212683B
:103C60008243754B10331A60704739B1724A243A57
:103C700012680243704B243B1A6006E06E4A243AF5
:103C8000126882436C4B243B1A60704739B16A4A10
:103C9000203A12680243684B203B1A6006E0664AED
:103CA000203A12688243644B203B1A60704739B156
:103CB000614A1C3A126802435F4B1C3B1A6006E0E3
:103CC0005D4A1C3A126882435B4B1C3B1A6070478A
:103CD00039B1594A143A12680243574B143B1A60DF
:103CE00006E0554A143A12688243534B143B1A605B
:103CF000704739B1504A103A126802434E4B103B9C
:103D00001A6006E04C4A103A126882434A4B103B54
:103D10001A60704739B1484A1C3212680243464B58
:103D20001C331A6006E0444A1C3212688243424B3C
:103D30001C331A60704739B13F4A2032126802437F
:103D40003D4B20331A6006E03B4A20321268824322
:103D5000394B20331A60704739B1374A2432126820
:103D60000243354B24331A6006E0334A243212688A
:103D70008243314B24331A60704739B12E4A2C32BA
:103D8000126802432C4B2C331A6006E02A4A2C326C
:103D900012688243284B2C331A60704739B1264A87
:103DA000303212680243244B30331A6006E0224A54
:103DB000303212688243204B30331A60704701283A
:103DC00008D11D493C31096841F008011A4A3C32CA
:103DD000116007E018493C31096821F00801164AD2
:103DE0003C321160704739B1134A273A12780243C6
:103DF000114B273B1A7006E00F4A273A127882438C
:103E00000D4B273B1A7070470B484030006840F05C
:103E10008070094940310860704701460020064A19
:103E2000283A12680A400AB1012000E000207047D9
:103E300001492639087070473438024010B5012115
:103E40008803FFF756FF00214FF48040FFF751FF32
:103E500010BD1C49086070471B490862704730B5A7
:103E600000228B071C0F0F2303FA04F2154B0833B3
:103E70008C1053F824309343124C08348D1044F8BE
:103E8000253023468C1053F824308C07240F00FA79
:103E900004F423430B4C08348D1044F8253030BD16
:103EA0000949DC3108607047084908607047002004
:103EB00004492031096801F4807109B1012000E052
:103EC00000207047003801400000274200042742CC
:103ED00010B50446FA48844208D101211020FFF7AA
:103EE00008FF00211020FFF704FF57E0F548844247
:103EF00009D101214804FFF7EBFE00214FF4003007
:103F0000FFF7E6FE4AE0F048844209D10121880427
:103F1000FFF7DEFE00214FF48020FFF7D9FE3DE0E1
:103F2000EA48844209D10121C804FFF7D1FE0021EB
:103F30004FF40020FFF7CCFE30E0E548844209D181
:103F400001210805FFF7C4FE00214FF48010FFF7A0
:103F5000BFFE23E0DF48844208D101212020FFF783
:103F6000C8FE00212020FFF7C4FE17E0DA48844293
:103F700009D101218807FFF7ABFE00214FF08040F7
:103F8000FFF7A6FE0AE0D548844207D1012140058B
:103F9000FFF79EFE00216005FFF79AFE10BD2DE998
:103FA000FF4705460E460024A14600BFA046B08943
:103FB00000B100BF2C8A24F44054F08804432C82C2
:103FC000AC8941F20C608443B0883189084371891F
:103FD00008430443AC81AC8A24F44074B0890443A0
:103FE000AC826846FFF705FDB548854202D0B94866
:103FF000854202D1DDF80C9001E0DDF80890A88937
:1040000000F4004040B109EBC90000EB0910316831
:104010004900B0FBF1F707E009EBC90000EB09101C
:1040200031688900B0FBF1F76420B7FBF0F00401C0
:104030002009642101FB1078A88900F4004040B1F8
:10404000322000EBC800B0FBF1F000F007000443A1
:1040500008E0322000EB08106421B0FBF1F000F022
:104060000F0004432C81BDE8FF874FF41651016017
:1040700000218180C18001810C2141810021818149
:10408000704710B502460020108A20F470600B883B
:104090004C8823438C882343CC88234318431082C5
:1040A00010BD0021018041808180C180704721B115
:1040B000828942F40052828104E082894DF6FF73C6
:1040C0001A4082817047028B02F47F420283028B86
:1040D0000A430283704721B1828942F400428281FF
:1040E00003E08289C2F30E028281704721B1828A85
:1040F00042F40062828204E0828A4FF2FF731A4027
:1041000082827047C1F30802828070470146888826
:10411000C0F308007047028A4FF6F0731A4002821B
:10412000028A0A430282704721B1828942F0020268
:10413000828104E082894FF6FD731A4082817047C4
:1041400082894FF2FF731A40828182890A438281F9
:104150007047028A4FF6DF731A400282028A0A43CE
:104160000282704721B1028A42F48042028204E056
:10417000028A4BF6FF731A4002827047818941F030
:1041800001018181704721B1828A42F00802828256
:1041900004E0828A4FF6F7731A4082827047028BDE
:1041A000D2B20283028B42EA01220283704721B11C
:1041B000828A42F02002828204E0828A4FF6DF7314
:1041C0001A408282704721B1828A42F010028282B4
:1041D00004E0828A4FF6EF731A4082827047828A27
:1041E0004FF6FB731A408282828A0A4382827047AA
:1041F00021B1828A42F00202828204E0828A4FF672
:10420000FD731A40828270471AB1838A0B438382FE
:1042100002E0838A8B4383827047F0B50346002413
:1042200000260025002040F66A17B94200D100BFE1
:104230001846C1F3421401F01F06012707FA06F5DC
:10424000012C01D10C3004E0022C01D1103000E02F
:1042500014301AB107682F43076002E00768AF43C4
:104260000760F0BD02460020B1F5007F00D100BF1D
:1042700013880B400BB1012000E00020704701F4CF
:104280000072B2F5007F00D100BFCA4302807047C0
:1042900070B50246002400230025002040F66A166F
:1042A000B14200D100BFC1F3421501F01F03012646
:1042B00006FA03F3012D13D19689334017E000006D
:1042C000001001400044004000480040004C004005
:1042D000005000400014014000780040007C004085
:1042E000022D02D1168A334001E0968A33400C1227
:1042F000012606FA04F41688344013B10CB10120EB
:1043000000E0002070BD10B50022002340F66A14C2
:10431000A14200D100BF0A1201249440A3B2DC43A1
:10432000048010BD10B50446FE48844208D1012126
:104330000846FFF7DEFC00210120FFF7DAFC9DE0D4
:10434000B4F1804F08D101210846FFF7C1FC0021DC
:104350000120FFF7BDFC91E0F348844208D1012120
:104360000220FFF7B5FC00210220FFF7B1FC85E039
:10437000EE48844208D101210420FFF7A9FC002166
:104380000420FFF7A5FC79E0E948844208D1012127
:104390000820FFF79DFC00210820FFF799FC6DE045
:1043A000E448844208D101211020FFF791FC00214C
:1043B0001020FFF78DFC61E0DF48844208D1012125
:1043C0002020FFF785FC00212020FFF781FC55E02D
:1043D000DA48844208D101210220FFF78AFC00213B
:1043E0000220FFF786FC49E0D548844209D101212B
:1043F0000804FFF77EFC00214FF48030FFF779FCC2
:104400003CE0D048844209D101214804FFF771FC07
:1044100000214FF40030FFF76CFC2FE0CA488442C3
:1044200009D101218804FFF764FC00214FF48020AA
:10443000FFF75FFC22E0C548844208D101214020FB
:10444000FFF746FC00214020FFF742FC16E0C04881
:10445000844208D101218020FFF73AFC002180200E
:10446000FFF736FC0AE0BB48844207D101218015E2
:10447000FFF72EFC0021A015FFF72AFC10BD00223B
:104480000288A84B98420ED0AC4B98420BD0B0F1AA
:10449000804F08D0A44B984205D0A44B984202D03C
:1044A000A34B984204D14FF68F731A404B881A439E
:1044B000A04B984207D0A04B984204D04FF6FF4340
:1044C0001A400B891A4302804B68C3620B8803852C
:1044D000944B984202D0994B984201D18B7A038633
:1044E0000123838270474FF0FF314160002101803A
:1044F00001814180817270470185828270470A463E
:10450000002101884FF68F731940114301807047D5
:1045100041627047C16270470146486A7047014670
:10452000088D704721B1028842F00202028004E047
:1045300002884FF6FD731A400280704721B102884D
:1045400042F00402028004E002884FF6FB731A4036
:104550000280704721B1028842F08002028004E0AC
:1045600002884FF67F731A400280704702884FF628
:10457000F7731A40028002880A430280704702885B
:104580004FF6FF431A40028002880A4302807047B8
:1045900021B1028842F00102028004E002884FF655
:1045A000FE731A400280704770B500240022002379
:1045B000058C4FF6FE7635400584028C8388048B8B
:1045C0004FF68F752C40B51E2C400D882C43751E60
:1045D0002A408D892A434D882A43524DA84202D051
:1045E000564DA84213D14FF6F7752A40CD892A437C
:1045F0004FF6FB752A408D882A434FF6FF652B4006
:104600004FF6FF552B400D8A2B434D8A2B43838059
:1046100004838D684563028470BD70B50024002258
:104620000023058C4FF6EF7635400584028C838895
:10463000048B48F6FF752C404FF6FF452C400D8843
:104640004FF6FF7606EA05252C434FF6DF752A4024
:104650008D8906EA05152A434D8806EA05152A4381
:10466000304DA84202D0354DA8421DD14FF67F757E
:104670002A40CD894FF6FF7606EA05152A434FF604
:10468000BF752A408D8806EA05152A434FF6FF3587
:104690002B404FF2FF752B400D8A06EA85052B4310
:1046A0004D8A06EA85052B43838004838D688563E4
:1046B000028470BD70B5002400220023058C4FF6E3
:1046C000FF6635400584028C8388848B4FF68F7596
:1046D0002C404FF6FC752C400D882C434FF6FF55AF
:1046E0002A408D894FF6FF7606EA05252A434D8834
:1046F00006EA05252A430B4DA84202D00F4DA842D9
:1047000038D14FF2FF752A40CD894FF6FF7606EA81
:1047100005252A434FF6FF352A408D8806EA0525F0
:104720002A4319E000000140000400400008004056
:10473000000C004000100040001400400004014044
:104740000040014000440140004801400018004082
:10475000001C0040002000404EF6FF752B404DF637
:10476000FF752B400D8A06EA05152B434D8A06EA94
:1047700005152B43838084838D68C563028470BDD7
:1047800070B5002200230024058C4EF6FF763540DC
:104790000584038C8488828B48F6FF752A404FF687
:1047A000FF452A400D884FF6FF7606EA05252A4385
:1047B0004DF6FF752B408D8906EA05352B434D8854
:1047C00006EA05352B43FE4DA84202D0FD4DA84216
:1047D00008D14BF6FF752C400D8A4FF6FF7606EA9E
:1047E00085152C43848082838D680564038470BDA5
:1047F000002101804180818081608181C1810182AD
:104800004182704770B503460020002418461830D6
:1048100001258D40ACB21D8CA5431D8409B108292A
:104820000AD100EB610005684FF68F7635400560D0
:104830000568154305600FE00D1FC5F34E052844BC
:10484000056848F6FF763540056005684FF6FF7647
:1048500006EA02263543056070BD416370478163F7
:104860007047C1637047016470470A460021018B9D
:104870004FF68F7319401143018370470A46002198
:10488000018B48F6FF7319404FF6FF7303EA0223CA
:104890001943018370470A460021818B4FF68F73BD
:1048A00019401143818370470A460021818B48F6E5
:1048B000FF7319404FF6FF7303EA02231943818304
:1048C00070470A460021018B4FF6F77319401143D8
:1048D000018370470A460021018B4FF2FF73194094
:1048E0004FF6FF7303EA02231943018370470A4618
:1048F0000021818B4FF6F773194011438183704774
:104900000A460021818B4FF2FF7319404FF6FF7367
:1049100003EA02231943818370470A460021018B71
:104920004FF6FB7319401143018370470A4600217B
:10493000018B4FF6FF3319404FF6FF7303EA022352
:104940001943018370470A460021818B4FF6FB73A0
:1049500019401143818370470A460021818B4FF62D
:10496000FF3319404FF6FF7303EA02231943818393
:1049700070470A460021018B4FF67F73194011439F
:10498000018370470A460021018BC1F30E014FF6E7
:10499000FF7303EA02231943018370470A4600218B
:1049A000818B4FF67F7319401143818370470A460C
:1049B0000021818BC1F30E014FF6FF7303EA02233E
:1049C0001943818370470A460021018C4FF6FD731D
:1049D00019401143018470470A460021018C4FF6AB
:1049E000F77319401143018470470A460021018C76
:1049F0004FF6DF7319404FF6FF7303EA02131943B2
:104A0000018470470A460021018C4FF67F731940DC
:104A10004FF6FF7303EA02131943018470470A46F5
:104A20000021018C4FF6FF5319404FF6FF7303EA44
:104A300002231943018470470A460021018C4FF27A
:104A4000FF7319404FF6FF7303EA022319430184F1
:104A500070470A460021018C4DF6FF7319404FF64E
:104A6000FF7303EA023319430184704730B5002312
:104A700001248C40A3B2048C9C430484048C02FA6D
:104A800001F5ADB22C43048430BD30B500230424BD
:104A90008C40A3B2048C9C430484048C02FA01F57C
:104AA000ADB22C43048430BD828B4FF2FF331A40E9
:104AB0008283828B4FF6FF7303EA01231A438283BA
:104AC0007047F0B50C461546002100220026078CE1
:104AD0004EF6FF7C07EA0C070784818B028C4FF6A9
:104AE000FF7707EA043640F6FF4739404FF6FF7775
:104AF00007EA052739434FF6FF7707EA03373943BB
:104B000045F6FF773A4046F480573A438183028462
:104B1000F0BD828B4FF6F3731A408283828B0A4377
:104B200082837047F0B50C4615460021002200260E
:104B3000078C4FF6FF6C07EA0C070784818B028C09
:104B40004FF6FF7707EA04264FF60C7739404FF609
:104B5000FF7707EA03172F4339434FF2FF573A40D5
:104B600046F480773A4381830284F0BD028B4FF292
:104B7000FF331A400283028B4FF6FF7303EA0123CF
:104B80001A4302837047F0B50C46154600210022F7
:104B90000026078C4FF6EF7C07EA0C070784018B91
:104BA000028C4FF6FF7707EA041640F6FF473940BC
:104BB0004FF6FF7707EA033739434FF6FF7703E0F5
:104BC000000001400004014007EA052739434FF681
:104BD0005F773A4046F010073A4301830284F0BD04
:104BE000028B4FF6F3731A400283028B0A4302834F
:104BF0007047F0B50C46154600210022068C4FF692
:104C0000FE773E400684018B028C4FF60C763140D5
:104C10007E1C06EA03162E4331434FF6F5763240EA
:104C200044F00106324301830284F0BD70B50546AD
:104C30000C46208850B92389A28861882846FFF74E
:104C4000D8FFE1882846FFF7CBFF25E0208804281D
:104C50000AD12389A28861882846FFF794FFE1885A
:104C60002846FFF783FF17E0208808280AD1238908
:104C7000A28861882846FFF755FFE1882846FFF79C
:104C800048FF09E02389A28861882846FFF719FFB9
:104C9000E1882846FFF708FF70BD002101804180B0
:104CA000012181800021C180018170472DE9F041FF
:104CB00005460C4600260127608808B9022600E058
:104CC0000026A088012801D1022700E001272088C2
:104CD000A0B92389A28861882846FFF78AFFE18866
:104CE0002846FFF77DFF23893A4631462846FFF7DD
:104CF0004AFFE1882846FFF739FF13E02389A2889D
:104D000061882846FFF73FFFE1882846FFF72EFF1E
:104D100023893A4631462846FFF76BFFE18828464B
:104D2000FFF75EFFBDE8F0810146486B7047014622
:104D3000886B70470146C86B70470146086C704726
:104D40000A884B881A438B881A43CB881A430B89ED
:104D50001A434B891A438B891A43A0F844207047A1
:104D60000021018041808180C18001814181818158
:104D7000704731B1B0F8442042F40042A0F844201A
:104D800005E0B0F84420C2F30E02A0F844207047BA
:104D900021B1828842F00402828004E082884FF6CA
:104DA000FB731A408280704721B1828842F0010271
:104DB000828004E082884FF6FE731A40828070473A
:104DC0001AB183890B43838102E083898B438381FA
:104DD00070478182704702460020138A0B400BB156
:104DE000012000E000207047CA430282704730B5BE
:104DF0000246002000230024158A05EA0103958954
:104E000005EA010413B10CB1012000E0002030BD1F
:104E1000CA430282704741EA0203A0F84830704753
:104E20001AB183890B43838102E083898B43838199
:104E3000704721B1828842F00802828004E08288B3
:104E40004FF6F7731A408280704701894FF6F87267
:104E50001140018170470A46002101894FF68F7386
:104E6000194011430181704730B504460D4629466B
:104E70002046FFF7F0FF208940F00700208130BD79
:104E80002DE9F04104460D4616461F46602D06D119
:104E90003B46012231462046FFF775FE05E03B46C2
:104EA000012231462046FFF7A4FE29462046FFF79F
:104EB000D2FF208940F007002081BDE8F08130B5A5
:104EC0000C4600210189C9B24FF6FF7505EA03259A
:104ED000154325432943018130BD2DE9F0410546A5
:104EE0000E4617469846002443463A463146284621
:104EF000FFF7E5FF2C894FF6F870044044F00704F3
:104F00004FF68F70044044F070042C81BDE8F081AE
:104F1000F0B504460D4616461F463B463246294626
:104F20002046FFF7CCFF208940F480402081F0BD6F
:104F300082884FF68F731A40828082880A4382806B
:104F4000704702894FF6F8731A40028102890A43BA
:104F50000281704702894FF67F731A4002810289ED
:104F60000A4302817047F0B50C4615461E460021E3
:104F7000002200230189028B038C4FF6F877394019
:104F800021434FF6FC473A4040F201173A434FF6AF
:104F9000DD773B404FF6FF7707EA06172F433B4389
:104FA000018102830384F0BD21B1828842F0800236
:104FB000828004E082884FF67F731A4082807047B7
:104FC000A0F8501070470000002041490860091DFA
:104FD0000860091D0860091D08603E483C491431FD
:104FE0000860704700213A498279002A3AD00A467F
:104FF000126803689A430B461A600A1D1268036818
:105000009A430B1D1A60027911440A6803681A4317
:105010000A602F4A0832126803689A432C4B0833FF
:105020001A601A1D126803689A43294B0C331A60E0
:105030004279102A0ED11A1F126803681A43244BB2
:1050400008331A601A1D126803681A43204B0C3388
:105050001A600DE01E49427911440A6803681A4338
:105060000A6005E0027911440A6803689A430A60FD
:1050700070470021016001710C2141710021817193
:1050800070471349103109680143114A1032116009
:105090007047014600200E4A143212680A400AB1D5
:1050A000012000E000207047094914310860704772
:1050B00001460020064A143212680A400AB1012053
:1050C00000E000207047024914310860704700007A
:1050D000003C0140FFFF7F0008B5684602F094F9EC
:1050E00008BD08B5684602F0D9F908BD38B50446D0
:1050F0006A460821204608F0C1FC38BD10B5424878
:105100000078012805D102F0C5F808F043FF02F04D
:10511000D2F810BD70B504466FF00400FEF7F8F940
:105120002046E11704EB5171C1F3C701374A1170F2
:10513000E11704EB5171CD10354800683549B1FBDA
:10514000F0F04543324800684FF47A71B1FBF0F05B
:10515000314908804FF0E020006940F002004FF034
:10516000E021086108464561006940F001000861DE
:1051700070BD2DE9F047074600264FF0E020D0F83B
:1051800014902248007807FB00F8FFF7A5FF4FF0C6
:10519000E020856911E04FF0E0208469AC420CD03A
:1051A000AC4202D2281B064403E0A9EB04002844C9
:1051B00006442546464500D300E0ECE700BFFFF774
:1051C00090FFBDE8F08770B504460F480078A0B1A5
:1051D0001248007888B910480088844206DB0E48DF
:1051E000008894FBF0F52846FFF780FF0A48008806
:1051F00094FBF0F100FB114084B24FF47A7104FB90
:1052000001F0FFF7B6FF70BD65010020240100200A
:105210008C2A010840420F00260100206401002072
:1052200000BF704700BFAA4A128802F04002002A5D
:10523000F9D0C2B2A64B9A80704710B588B0044628
:1052400001210846FEF7A6FC01211020FEF7FCFC18
:10525000072209219F48FEF78AFA07220A219D4862
:10526000FEF785FA4FF4C060069002208DF81C000E
:105270008DF81D0000208DF81E0001208DF81F0004
:1052800006A99448FEF7E8F902940020ADF80C0056
:10529000ADF80E00ADF81000ADF814000C20ADF81C
:1052A000120002A98A48FEF77AFE01218848FEF71B
:1052B000FEFE012240F225518548FEF7AEFF252073
:1052C0008DF8040003208DF805008DF806000120FC
:1052D0008DF8070001A8FEF7CEF808B010BD002039
:1052E00004E000217C4A1154411CC8B20D28F8DBAF
:1052F00000217A4A1170704710B540F22551744868
:10530000FEF7C6FF18B37248FEF700FF7249734AF2
:105310001278885471480078401C704908706E48B3
:105320000078472803D06C480078562810D16B4885
:105330000078401E6849085C0A280BD1674800784D
:10534000801E085C0D2805D100206549087001E029
:10535000FFF7C5FF10BD00BF5D49098801F040019E
:105360000029F9D05A498880704700B50246107864
:10537000FFF7F1FF5078FFF7EEFF00BD00B50246E2
:1053800003E01078FFF7E7FF521C10780028F8D1EF
:1053900000BD00B5024603E01078FFF7DCFF521CA9
:1053A00010780028F8D12020FFF7D5FF00BD00B508
:1053B00002461046FFF7CFFF2020FFF7CCFF00BDCD
:1053C0001FB503A808F0B8FD044600200090019026
:1053D0000290224643A1684609F08EFC6846FFF71A
:1053E000CDFF41A0FFF7CAFF1FBD2DE9F0412DED14
:1053F000028B04460025002600270FF2F0084146E4
:10540000354809F0FDFC074600BF1FE0394638A0CB
:1054100009F0FCFC98B1394636A009F0F7FC70B1F0
:1054200038460BF055FCB0EE408AF0EE608A51EC45
:10543000180B0CF0F7FA44F82600701CC6B241466F
:10544000002009F0DDFC0746681CC5B2042DDDDB39
:10545000BDEC028BBDE8F0810EB5002000900190FC
:1054600002906846FFF7C1FF1B480078472802D02A
:1054700056282BD119E09DED000ABDEEC00A10EEB2
:10548000100A00B21C4908809DED010ABDEEC00A59
:1054900010EE100A00B248809DED020A084680ED29
:1054A000040A01201549087010E09DED000A124819
:1054B00080ED010A9DED010A80ED020A9DED020AD0
:1054C00080ED040A00200D49087000BF00BF0EBD2A
:1054D0000010014000000240D51500202E010020E0
:1054E0002F010020256400000D0A000020000000AC
:1054F0004700000056000000BC1400203C000020C3
:105500001FB56846FEF775FA019804B010BD10B5D6
:10551000FFF7F6FF04461848006840F0807016490F
:1055200008600020154948600846006840F0010006
:105530000860204600F0B7F810BD10494868704771
:105540002DE9F0478246FFF7DBFF4FF00009804668
:105550000B4A00234046494609F04BFB06463246BB
:105560000B465046002109F044FB04460D462046F8
:105570002946BDE8F0870000FCED00E0001000E0E7
:1055800040420F0010B5002400BF00BF00F052F9E8
:10559000044600BF00BF1021A14800F0D2FA00BFAE
:1055A00000BF204600F04AF900BF00BF10BD10B593
:1055B000FFF7E8FF10BD10B500209A490860FFF71B
:1055C000A6FF10BD10B5FFF7F6FFFFF7F0FF10BD07
:1055D00000BFFEE770B505460C46002614B900BFB3
:1055E000FFF7F6FF15B90A20208070BD00BF00BF8D
:1055F00000F020F9064600BF00BF10228849284667
:1056000000F056FF00BF00BF304600F017F900BFA2
:1056100000BF0020208000BFE7E72DE9F0410546EC
:105620000C46002714B900BFFFF7D2FF1DB90A20AE
:105630002080BDE8F0811021284600F021FF0646B9
:10564000102E15D200BF00BF00F0F4F8074600BFCF
:1056500000BF10222946724800F02AFF00BF00BF99
:10566000384600F0EBF800BF00BF0020208002E0C9
:105670004FF47A70208000BFDBE710B5FFF75DFFC5
:105680000446204610BD704700B5014611B900BF61
:10569000FFF79EFF634A106808B1002201E04FF453
:1056A000FA620A8000BD5F490860704770B5054620
:1056B000284600F0CAF80446183C204670BD70B574
:1056C0000546284600F0C1F80446103C204670BD4F
:1056D00070B50546284600F0B8F8044600BF2046DD
:1056E00070BD30B502460B460024D2F1FF359C4117
:1056F00026D24FF6FF74D2F1FF359C410FD26FF0E6
:105700007F44D2F1FF359C4103D2190E464C605CB8
:1057100044E0190C444C645C04F108003EE0FF24B2
:10572000D2F1FF359C4105D2190A3F4C645C04F16B
:10573000100033E019463C4C645C04F118002DE085
:105740004FF6FF750024AD1A9C4115D26FF07F45CE
:105750000024AD1A9C4107D2140E44EA0321324CB6
:10576000645C04F1200019E0140C44EA03412E4C5F
:10577000645C04F1280011E00024D2F1FF059C4193
:1057800007D2140A44EA0361274C645C04F1300038
:1057900004E01146244C645C04F1380030BD70B55F
:1057A00004460CB9082070BD204600F051F80546AB
:1057B0002846F8E770B504460CB9102070BD2046A5
:1057C00000F046F805462846F8E770B504460CB9DF
:1057D000202070BD204600F03BF805462846F8E73B
:1057E0002DE9F04304460D46002184EA010069409A
:1057F000084302D14020BDE8F083E243E843521C55
:1058000040F1000102EA040601EA05073046394684
:10581000FFF767FF8046C8F13F094846EBE7000005
:10582000E2150020340100209428010872B6704768
:1058300062B67047EFF3108072B6704780F310883D
:10584000704730BF704720BF7047B0FA80F0704794
:1058500090FAA0F0B0FA80F0704790FAA0F070478C
:105860000146412903DB5A2901DC012200E0002224
:10587000012A08D0612903DB7A2901DC012200E03A
:105880000022012A01D1012200E0002210467047C7
:105890000146412903DB5A2901DC012200E00022F4
:1058A000012A08D0612903DB7A2901DC012200E00A
:1058B0000022012A01D1012200E00022012A08D0A1
:1058C000302903DB392901DC012200E00022012A12
:1058D00001D1012200E000221046704701466129F3
:1058E00003DB7A2901DC012200E000221046704728
:1058F0000146412903DB5A2901DC012200E0002294
:10590000104670470146302903DB392901DC0122AA
:1059100000E00022104670470146302903DB37299A
:1059200001DC012200E000221046704701463029C8
:1059300001DB392907DD412901DB462903DD612926
:1059400003DB662901DC012200E0002210467047DB
:105950000146202901D0092901D1012200E00022BD
:10596000104670470146202909D00D2907D00A2981
:1059700005D00C2903D0092901D00B2901D101221E
:1059800000E00022104670470146202903DB7E29F3
:1059900001DC012200E00022104670470146212967
:1059A00003DB7E2901DC012200E000221046704763
:1059B0000146202903DB7E2901DC012200E00022D0
:1059C000012A35D1202909D00D2907D00A2905D06F
:1059D0000C2903D0092901D00B2901D1012200E0B3
:1059E00000222ABB412903DB5A2901DC012200E005
:1059F0000022012A08D0612903DB7A2901DC012277
:105A000000E00022012A01D1012200E00022012A47
:105A100008D0302903DB392901DC012200E0002213
:105A2000012A01D1012200E000220AB9012200E08E
:105A300000221046704701464AB2002A01DB1F29A6
:105A400001DD7F2901D1012200E0002210467047CC
:105A50000146412903DB5A2901DC012200E0002232
:105A6000012A02D101F1200200E00A46D0B27047BB
:105A70000146612903DB7A2901DC012200E00022D2
:105A8000012A02D1A1F1200200E00A46D0B27047FB
:105A9000F0B504460B462046FFF7EAFF05461846D8
:105AA000FFF7E6FF0646B54201D1012000E00020E5
:105AB00007463846F0BD0000FC48FD49016001463C
:105AC000416000218160C160016141618161C1610A
:105AD00001620163C1624162F6498163C1634FF4AF
