:020000040800F2
:10000000983B0020193B0008D5080008D7080008D5
:10001000DB080008DF080008E30800080000000013
:10002000000000000000000000000000E7080008D9
:10003000E908000800000000E7100108E95700087F
:10004000333B0008333B0008333B0008333B0008D8
:10005000333B0008333B00087B2A0008232B0008B1
:10006000333B0008333B0008052B0008333B0008F6
:10007000333B0008333B0008333B0008333B0008A8
:10008000333B0008333B0008333B0008333B000898
:10009000333B0008333B0008333B0008FD290008D0
:1000A000333B0008333B0008333B0008333B000878
:1000B000333B00087B340008333B0008333B000827
:1000C000333B0008333B0008333B0008333B000858
:1000D000333B0008E559000851350008973A0008FD
:1000E0009B2A0008333B0008333B0008333B0008E1
:1000F000333B0008333B0008333B0008333B000828
:10010000333B0008333B0008333B0008333B000817
:10011000333B0008333B0008333B0008333B000807
:10012000333B0008333B0008333B0008333B0008F7
:10013000333B0008333B0008333B0008333B0008E7
:10014000333B0008333B0008333B0008333B0008D7
:10015000333B0008333B0008333B0008333B0008C7
:10016000333B0008333B0008333B0008333B0008B7
:10017000333B0008333B0008333B0008333B0008A7
:10018000333B0008333B000800F002F800F062F84F
:100190000AA090E8000C82448344AAF10107DA45E2
:1001A00001D100F057F8AFF2090EBAE80F0013F0D2
:1001B000010F18BFFB1A43F00103184780360100F6
:1001C000A03601000A4410F8014B14F00F0508BFD7
:1001D00010F8015B240908BF10F8014B6D1E05D013
:1001E00010F8013B6D1E01F8013BF9D1641E03D0EC
:1001F000641E01F8015BFBD19142E4D3704700001B
:100200000023002400250026103A28BF78C1FBD81F
:10021000520728BF30C148BF0B607047662912F0F3
:100220008C8764290FF07A81002070471FB512F087
:100230007AFF0FF00FFD04000020002112F0A4F857
:10024000401C60600020002112F088F8E0601FBDB3
:1002500010B510BD0FF048FE1146FFF7E7FF00F0A4
:10026000ADFA10F0C1F803B4FFF7F2FF03BC05F0DC
:100270004DFB00000EB50CE002F031F902F0ACF8D5
:1002800002A8002105230A46CDE9001008460EF019
:1002900044F8F1E70EB50024A2E0FA4800780028FF
:1002A00048D100BF00BF00BF05F08EFE044600BF6E
:1002B00000BFF5480078401CF349087000BF00BF3C
:1002C000204605F085FE00BF00BF00BF03F01BFA0B
:1002D00000BF00BF00BF05F077FE044600BF00BFAF
:1002E000E9480078401EE849087008460078A0B93F
:1002F000E6480088002809DD00BF00BF204605F061
:1003000067FE00BF00BF08F00BF90DE000BF00BFA3
:10031000204605F05DFE00BF06E000BF00BF20469E
:1003200005F056FE00BF00BF00BF03F004F9012036
:10033000D4490870D6480078002848D100BF00BFD3
:1003400000BF05F041FE044600BF00BFCE48007864
:10035000401CCD49087000BF00BF204605F038FEA4
:1003600000BF00BF00BF05F0FAFB00BF00BF00BF29
:1003700005F02AFE044600BF00BFC3480078401EB7
:10038000C149087008460078A0B9C0480088002814
:1003900009DD00BF00BF204605F01AFE00BF00BF08
:1003A00008F0BEF80DE000BF00BF204605F010FECB
:1003B00000BF06E000BF00BF204605F009FE00BFF9
:1003C00000BF00BF05F001FB0120B149087002A881
:1003D000002102230A46CDE9001008460DF09DFFDA
:1003E0005BE72DED0C8B8CB0002495E000BF00BFC7
:1003F00000BF05F0E9FD044600BF00BFA248007839
:10040000401CA149087000BF00BF204605F0E0FD78
:1004100000BF00BF00BF9F4890ED020A10EE101A07
:10042000084612F00FFE41EC180B9A4890ED010AB5
:1004300010EE101A084612F005FE41EC190B954813
:1004400090ED000A10EE101A084612F0FBFD41EC88
:100450001A0B914890ED040A10EE101A084612F09B
:10046000F1FD41EC1B0B8C4890ED020A10EE101AC6
:10047000084612F0E7FD41EC1C0B874890ED010A9D
:1004800010EE101A084612F0DDFD41EC1D0B8DED4B
:10049000088B8DED069B8DED04AB8DED02BB8DEDD4
:1004A00000CB53EC1D2B7DA00EF0E4FF00BF00BF7E
:1004B00000BF05F089FD044600BF00BF7248007808
:1004C000401E7149087008460078A0B96F4800883E
:1004D000002809DD00BF00BF204605F079FD00BF00
:1004E00000BF08F01DF80DE000BF00BF204605F07A
:1004F0006FFD00BF06E000BF00BF204605F068FDAD
:1005000000BF00BF00BF0BA8002114230A46CDE99D
:10051000001008460DF001FF68E70EB50BE002F091
:1005200057FA02A800214FF4FA730A46CDE90010E9
:1005300008460DF0F2FEF2E730B58BB00446002518
:1005400000BF05F009FC0AA80BF073FB0AAA012101
:10055000084607F0FCFB00BF00BF00BF05F034FDFC
:10056000054600BF00BF48480078401C4649087057
:1005700000BF00BF284605F02BFD00BF00BF00BF35
:100580000AA8032100220592CDE906210890104611
:1005900080210C22464BCDE90132CDE90310062023
:1005A0000023AFF2890243A1009045480BF01AFFE7
:1005B0000AA8032100220592CDE9062108901046E1
:1005C0004FF4807119223F4BCDE90132CDE9031080
:1005D00005200023AFF2F5123BA100903D480BF03F
:1005E00001FF0AA8032100220592CDE90621089007
:1005F000104680210C22384BCDE90132CDE90310A1
:1006000005200023AFF2733234A1009038480BF07C
:10061000E9FE0AA8032100220592CDE906210890EF
:1006200010464FF480711922324BCDE90132CDE9E9
:10063000031005200023AFF2C3322FA100903148F0
:100640000BF0D0FE00BF00BF00BF05F0BDFC0546AB
:1006500000BF00BF0C480078401E0B4908700846D8
:10066000007868B90948008800284DDD00BF00BF48
:10067000284605F0ADFC00BF00BF07F051FF51E078
:1006800049E00000F4000020C80100208C01002097
:100690004B0100205C14002004140020256609256D
:1006A000660925660925660925660925660D0A007D
:1006B000B80500206C6564207461736B0000000055
:1006C000F40400207C0800207072696E742074614C
:1006D000736B0000B8070020400D0020476573745D
:1006E0007572655F4368616E67655F7461736B0007
:1006F0007C0C0020041000206374726C2074617301
:100700006B000000400F002000BF00BF284605F02E
:100710005FFC00BF06E000BF00BF284605F058FCA4
:1007200000BF00BF00BF0AA900200BF0AFFF0BB055
:1007300030BD10B500BF554800780028FBD102F04D
:10074000E2FF534890ED040A80ED0A0A90ED040A96
:10075000D0ED0A0A30EE600A80ED040A10BD10B533
:10076000A82005F04DF84FF4A06003F0F5F902F071
:1007700011F94FF4E13005F0D6F8464802F08AFE50
:100780004FF4E13003F0CEF8022140F2775002F04E
:10079000BBFA02F094FC02F0E0F94FF4FA6005F0C5
:1007A00088F8FFF7C6FF3CA00EF064FE0120374931
:1007B00008704FF47A7005F07CF810BD10B58AB05F
:1007C0000024FFF7CCFF09A807F098F800BF00BF8E
:1007D00000BF05F0F9FB044600BF00BF36480078B3
:1007E000401C3549087000BF00BF204605F0F0FBF3
:1007F00000BF00BF00BF09A8032100220592CDE978
:1008000006210890104680210C222C4BCDE90132A4
:10081000CDE9031003200023AFF2E32228A10090CA
:100820002A480BF0DFFD00BF00BF00BF05F0CCFB86
:10083000044600BF00BF20480078401E1E490870D3
:1008400008460078A0B922480088002809DD00BFCA
:1008500000BF204605F0BCFB00BF00BF07F060FEF4
:100860000DE000BF00BF204605F0B2FB00BF06E070
:1008700000BF00BF204605F0ABFB00BF00BF00BFBC
:1008800009A807F004FB00200AB010BDF400002006
:100890000414002074B70100706572697068657295
:1008A000616C7320696E697420636F6D706C657420
:1008B000652E2E2E0D0A0000C8010020F402002033
:1008C0007374617274207461736B000030020020D5
:1008D0008C010020704700BFFEE700BFFEE700BFAD
:1008E000FEE700BFFEE77047704700000CB5002030
:1008F000019000907648006840F4803074490860A8
:1009000000BF7348006800F4003000900198401C5C
:100910000190009818B90198B0F5A04FF1D16C483A
:10092000006800F4003010B10120009001E00020C8
:1009300000900098012846D165484030006840F09A
:1009400080506349403108606248006840F440408C
:10095000604908605E48083000685D4908310860F9
:100960000846006840F4004008600846006840F40B
:10097000A05008605848091F0860081F006840F030
:100980008070091F086000BF5148006800F00070C7
:100990000028F9D040F20570504908604C480830F2
:1009A000006820F003004A490831086008460068E2
:1009B00040F00200086000BF45480830006800F0C1
:1009C0000C000828F8D10CBD10B54548006840F46B
:1009D0007000434908603E48006840F001003C490F
:1009E000086000203A4908310860394800683D49EC
:1009F0000840374908603C48091D0860081F006826
:100A000020F48020091F0860002031490C31086063
:100A1000FFF76CFF4FF0006031498039086010BD6E
:100A200070B500200022022300240221284D083541
:100A30002D6805F00C0020B1042806D0082834D118
:100A400007E02A4D2A4E356033E02A4D284E3560A6
:100A50002FE01F4D2D1D2D68C5F380541C4D2D1DFD
:100A60002D6805F03F0154B1224DB5FBF1F5184E4C
:100A7000361D3668C6F3881605FB06F209E01B4DE5
:100A8000B5FBF1F5124E361D3668C6F3881605FB28
:100A900006F20F4D2D1D2D68C5F301456D1C6B0031
:100AA000B2FBF3F5124E356003E0104D104E356089
:100AB00000BF00BF064D08352D68C5F303150E4E67
:100AC000705D0B4D2D68C540094E356070BD00004E
:100AD000003802400070004019544007003C0240BA
:100AE00088ED00E0FFFFF6FE103000240024F40043
:100AF0000000002040787D0104000020B5EEC00A0F
:100B0000F1EE10FA03D2F1EE400AB0EE600A70473F
:100B1000F0EE400A9FEDB60A20EE801ADFEDB51A1E
:100B200081EE210A7047F0EE400A9FEDB20A20EEF6
:100B3000801ADFEDAF1A81EE210A704730B5024608
:100B400000240023107855782844957844190878B3
:100B50004D7828448D7843199C4201D1002030BD46
:100B60000120FCE770B52DED108B86B005460E46D2
:100B70009FEDA10A10EE104AA048D0ED040AB0EE95
:100B8000600AFFF7C5FF10EE104A204612F05AFA2D
:100B900041EC1D0BB0EE4D0AF0EE6D0A10F044FE74
:100BA000B0EE40BAF0EE60BA9449B1F9020011F02B
:100BB000ECFE41EC1C0B53EC1B2B11F04DFF41ECF8
:100BC000190B204612F03EFA41EC1E0BB0EE4E0A15
:100BD000F0EE6E0A10F05CFDB0EE40CAF0EE60CAB6
:100BE0008649B1F9000011F0D0FE41EC1D0B53EC29
:100BF0001C2B11F031FF41EC1B0B95ED010A10EE9F
:100C0000101A084612F01EFA41EC1D0B204612F095
:100C100019FA41EC1F0BB0EE4F0AF0EE6F0A10F01C
:100C200003FEB0EE40EAF0EE60EA53EC1D2B51EC0F
:100C30001E0B11F011FFCDE9020195ED000A10EE37
:100C4000101A084612F0FEF941EC1D0B204612F076
:100C5000F9F941EC1F0BB0EE4F0AF0EE6F0A10F0FD
:100C600017FDB0EE40EAF0EE60EA53EC1D2B51ECBC
:100C70001E0B11F0F1FE41EC1C0B9DED020B53EC31
:100C8000102B11F0D5FB53EC1B2BCDE904019DED8E
:100C9000040B51EC100B12F0EBF841EC1A0B53EC77
:100CA000192B12F0E5F841EC180B11F08FFB3060B6
:100CB000204612F0C7F941EC1A0BB0EE4A0AF0EEEA
:100CC0006A0A10F0B1FDB0EE408AF0EE608A4B493E
:100CD000B1F9000011F059FE41EC190B53EC182B3F
:100CE00011F0BAFECDE90201204612F0ABF941EC59
:100CF0001C0BB0EE4C0AF0EE6C0A10F0C9FCB0EE22
:100D000040AAF0EE60AA3D49B1F9020011F03DFEA3
:100D100041EC1B0B53EC1A2B11F09EFE41EC180B0F
:100D200095ED010A10EE101A084612F08BF941EC0D
:100D30001C0B204612F086F941EC1E0BB0EE4E0A59
:100D4000F0EE6E0A10F0A4FCB0EE40DAF0EE60DADD
:100D500053EC1C2B51EC1D0B11F07EFE41EC1A0BD9
:100D600095ED000A10EE101A084612F06BF941ECEE
:100D70001C0B204612F066F941EC1F0BB0EE4F0A37
:100D8000F0EE6F0A10F050FDB0EE40EAF0EE60EACF
:100D900051EC1E0B11F00EFB41EC1D0B53EC1C2B08
:100DA00011F05AFE41EC1B0B53EC1A2B11F040FBD7
:100DB00041EC190B53EC182B12F05AF8CDE9000155
:100DC0009DED020B53EC102B9DED000B51EC100B25
:100DD00011F02EFBCDE904019DED040B51EC100B3D
:100DE00011F0F4FA706006B0BDEC108B70BD00001D
:100DF000D00F4940000034430000000004140020DC
:100E000010B52DED068B044694ED000ADFEDF90ACE
:100E100020EE200ADFEDF80A80EE201AB0EE419AAB
:100E200094ED010ADFEDF30A20EE200ADFEDF20A6D
:100E300080EE201AF0EE419A94ED020ADFEDED0A01
:100E400020EE200ADFEDEC0A80EE201AB0EE41AA77
:100E5000EA4890ED070AF0EE400A0120B0EE490A98
:100E600002F03BF9F0EE40AAE54890ED000A30EEC2
:100E70002A0A80ED000AB5EEC09AF1EE10FA03D10D
:100E80009FEDE00A80ED000ADD4890ED000ADFEDFD
:100E9000DE0AB4EEE00AF1EE10FA04DD9FEDDA0AA4
:100EA00080ED000A0DE0D64890ED000ADFEDD70A8C
:100EB000B4EEE00AF1EE10FA03D29FEDD40A80ED11
:100EC000000ACE4890ED080AF0EE400A0220B0EE8B
:100ED000690A02F002F9B0EE408ACD4890ED000AAE
:100EE00030EE080A80ED000AF5EEC09AF1EE10FA35
:100EF00003D19FEDC40A80ED000AC54890ED000AB9
:100F0000DFEDC10AB4EEE00AF1EE10FA04DD9FED68
:100F1000BE0A80ED000A0DE0BD4890ED000ADFED4D
:100F2000BB0AB4EEE00AF1EE10FA03D29FEDB70A65
:100F300080ED000AB14890ED090AF0EE400A032066
:100F4000B0EE4A0A02F0C9F8F0EE408AB14890EDDE
:100F5000000A30EE280A80ED000AB5EEC0AAF1EED4
:100F600010FA03D19FEDA70A80ED000AA94890ED81
:100F7000000ADFEDA50AB4EEE00AF1EE10FA04DD96
:100F80009FEDA10A80ED000A0DE0A24890ED000A55
:100F9000DFED9E0AB4EEE00AF1EE10FA03D29FED07
:100FA0009B0A80ED000A0120954991ED000A01F0AD
:100FB000EDFF0220964991ED000A01F0E7FF0320C2
:100FC000944991ED000A01F0E1FFBDEC068B10BDE4
:100FD00070B52DED108B82B005460C46B7EE000AB9
:100FE000B0EE408A002695ED020ADFED8B0A20EE76
:100FF000200AF0EE000A20EE200A10EE101A084631
:1010000012F020F841EC1A0B95ED010A10EE101ABF
:10101000084612F017F841EC1E0B9FED800B10F004
:1010200067FC8DED000B9FED7F0B53EC102B9DEDBE
:10103000000B51EC100B11F0B7FA41EC1F0B53EC05
:101040001E2B11F009FD41EC1C0B95ED000AFEEE84
:10105000000A20EE200A10EE101A084611F0F2FFE6
:1010600041EC1D0B53EC1C2B11F0E2F941EC1B0B76
:1010700053EC1A2B11F0DCF941EC190B11F0A6F925
:10108000206095ED020ADFED640A20EE200AF0EE02
:10109000000A20EE200A10EE101A084611F0D2FFC6
:1010A00041EC1A0B95ED010A10EE101A084611F0EA
:1010B000C9FF9FED5A0BCDE9000110F019FCB0EE0D
:1010C00040FAF0EE60FA9FED570B53EC102B51EC09
:1010D0001F0B11F069FA41EC1E0B9DED000B53EC58
:1010E000102B11F0B9FC41EC1C0B95ED000AFEEE43
:1010F000000A20EE200A10EE101A084611F0A2FF96
:1011000041EC1D0B53EC1C2B11F0B2FE41EC1B0B00
:1011100053EC1A2B11F08CF941EC190B11F056F924
:10112000A06095ED000AD5ED020A9FED3B1A60EE36
:10113000810AB0EE001A00EE810A84ED010AD4EDB6
:10114000000AB0EE600AFFF7D9FCDFED380AB4EE12
:10115000E00AF1EE10FA08DB94ED000ADFED330A45
:1011600080EE201AB0EE418A2AE0D4ED010AB0EEFA
:10117000600AFFF7C3FCDFED2D0AB4EEE00AF1EEE2
:1011800010FA08DB94ED010ADFED280A80EE201A40
:10119000B0EE418A14E0D4ED020AB0EE600AFFF727
:1011A000ADFCDFED220AB4EEE00AF1EE10FA07DB47
:1011B00094ED020ADFED1D0A80EE201AB0EE418A9E
:1011C000B0EE480AFFF79AFCB0EE408A00260BE02A
:1011D00004EB860090ED000AC0EE080A04EB8600DE
:1011E000C0ED000A701CC6B2032EF1DB02B0BDECEC
:1011F000108B70BD0060DB4654363643041400206B
:1012000048000020000000000000AF440000AFC410
:101210004C000020500000208FC2F53D000000006F
:101220000000084000000000000000400080224450
:1012300000B52DED0A8B81B0B0EE409A9FEDFE0A0D
:10124000F0EE40AA1FED110AB0EE40BA9FEDFB0A86
:10125000F0EE40BA1FED150AF0EE409A1FED170AA6
:10126000B0EE40CA1FED190AF0EE40CA1FED1B0A8E
:10127000B0EE40AA68460DF029FA00EE100AB8EE6A
:10128000400AF1EE040A20EE200ADFEDED0A80EEBE
:10129000201AB0EE41AAEB4890ED000A3AEE400A5F
:1012A000F0EE40CA80ED00AAE74890ED040A39EE5E
:1012B000400AB0EE408A39EE880AF0EE409AE348E0
:1012C00090ED000A38EE400AB0EE40CA2BEE8C0AD0
:1012D000C0EE2C0A2AEE880A0BEE290A30EE800AAC
:1012E000F0EE408A9FEDDA0AF4EEC08AF1EE10FAD1
:1012F00004DB9FEDD70AF0EE408A0AE09FEDD50AA5
:10130000F4EEC08AF1EE10FA03D29FEDD20AF0EEAD
:10131000408ACE4880ED008AB1EE680A01B0BDEC8B
:101320000A8B00BD70B52DED108B88B004460D46BC
:10133000F0EE408A1FED4D0A10EE106A1FED4F0AC5
:10134000B0EE409A1FED510AF0EE409A1FED530A9D
:10135000B0EE408A1FED550AF0EE40EA07A80DF006
:10136000B5F900EE100AB8EE400AF1EE040A20EEDC
:10137000200ADFEDB30A80EE201AF0EE41EAB6480B
:1013800090ED000A3EEEC00AB0EE408AC0ED00EAE1
:1013900094ED000AB8EEC00ADFEDB00A20EE200A94
:1013A000F0EE40AA94ED010AB8EEC00ADFEDAB0AF8
:1013B00020EE200AB0EE40EAB1EE6A0ADFEDA80A9C
:1013C00020EE200A8DED060A9FEDA50A2AEE800A7E
:1013D0008DED050A9FEDA20A2EEE000A8DED040A9E
:1013E0009FED9F0A2EEE000A8DED030A9DED060A81
:1013F000DDED040A30EE200A8DED010A9DED050AAF
:10140000DDED030A30EE200A8DED020A9DED010AA2
:10141000C0EE080A9348C0ED000A9DED020AC0EE36
:10142000080AC0ED010A9DED010A10EE101A0846E7
:1014300011F008FE41EC1C0B9DED020A10EE101A93
:10144000084611F0FFFD41EC1D0BB0EE4C1AF0EE1A
:101450006C1AB0EE4D0AF0EE6D0A10F005F8B0EE21
:1014600040BAF0EE60BA51EC1B0B10F0AFFF0AEE81
:10147000100AB0EE680AFFF74BFBF0EE408A9DEDD4
:10148000010A20EE000ADDED020A9DED021A00EECF
:10149000810A10EE101A084611F0D4FD41EC1C0B25
:1014A000B0EE4C0AF0EE6C0A10F022FAB0EE40BA40
:1014B000F0EE60BA51EC1B0B10F088FF06463AEED6
:1014C000280A10EE101A084611F0BCFD41EC1C0B66
:1014D000B0EE4C0AF0EE6C0A10F0DAF8B0EE40BA5A
:1014E000F0EE60BA304611F0ADFD41EC1D0B53EC4F
:1014F0001B2B11F0B1FA41EC1F0B10F067FF09EE46
:10150000900A3AEE280A10EE101A084611F09AFDD9
:1015100041EC1C0BB0EE4C0AF0EE6C0A10F084F9B2
:10152000B0EE40BAF0EE60BA304611F08BFD41ECFF
:101530001D0B53EC1B2B11F08FFA41EC1F0B10F01D
:1015400045FF09EE100A89EE880A3F4880ED010A3E
:1015500089EE080A80ED020A434890ED000A30EE59
:10156000290A424880ED000A414890ED000A30EE19
:10157000090A3E4880ED010A90ED000A85ED000A57
:1015800090ED010A85ED010A90ED000A364880EDE4
:10159000000A364890ED010A354880ED000A08B08F
:1015A000BDEC108B70BD70B52DED108B82B0B0EE20
:1015B000408A04461FEDED0A10EE105A1FEDEF0AA7
:1015C000F0EE408A1FEDF10AB0EE40FA1FEDF30A8B
:1015D00010EE106A1FEDF50AF0EE40FA1FEDF70A63
:1015E0008DED010A1FEDF90A8DED000ADFED210AEC
:1015F00088EE200ADFED200A20EE200AB0EE408AB5
:10160000B5EEC08AF1EE10FA63DB14B1012C5FD1A4
:1016100045E09FED1A0A10EE105A9FED190AF0EE00
:10162000408A9FED180AB0EE40FA9FED170A10EEBF
:10163000106A9FED160A2BE000008C423333C34042
:1016400000007A44580000200414002054000020B8
:1016500000004844000048C46C000020C37DF43DF5
:101660002905353F5C1400205C0000206400002048
:1016700060000020D00F494000003443F628624249
:1016800080608E3CD34D42C06666D0425F48E238EF
:10169000F0EE40FA9FEDFE0A8DED010A18E09FED95
:1016A000FD0A10EE105A9FEDFC0AF0EE408A9FED05
:1016B000FB0AB0EE40FA9FEDFA0A10EE106A9FEDB9
:1016C000F90AF0EE40FA9FEDF80A8DED010A00BF2D
:1016D00036E014B1012C32D118E09FEDF40A10EE7F
:1016E000105A9FEDF30AF0EE408A9FEDF20AB0EE39
:1016F00040FA9FEDF10A10EE106A9FEDF00AF0EE4D
:1017000040FA9FEDEF0A8DED010A18E09FEDED0A1A
:1017100010EE105A9FEDEC0AF0EE408A9FEDEB0AB6
:10172000B0EE40FA9FEDEA0A10EE106A9FEDE90A6A
:10173000F0EE40FA9FEDE80A8DED010A00BF00BF10
:101740009DED010A0FEE880A10EE101A084611F0FE
:1017500079FC41EC1E0BB0EE4E0AF0EE6E0A10F072
:1017600063F8B0EE40CAF0EE60CA304611F06AFC91
:1017700041EC1D0B53EC1C2B11F06EF941EC1A0BD4
:10178000B0EE4F0A08EE880A10EE101A084611F063
:1017900059FC41EC1E0BB0EE4E0AF0EE6E0A10F052
:1017A00043F8B0EE40CAF0EE60CA284611F04AFC99
:1017B00041EC1D0B53EC1C2B11F04EF941EC1B0BB3
:1017C00053EC1A2B10F034FE41EC190B10F0FEFD17
:1017D00000909DED000A02B0BDEC108B70BD2DE9AC
:1017E000F0432DED108B8BB0B0EE408A04469FED98
:1017F000BB0A10EE105A9FEDB90A10EE106A9FED69
:10180000B70A10EE107A9FEDB50AF0EE408A9FED10
:10181000B30A10EE108A9FEDB10A10EE109A9FEDF8
:10182000AF0A8DED0A0AB5EEC08AF1EE10FA2EDB92
:1018300014B1012C2AD110E09FEDA90A10EE105A24
:101840009FEDA80A10EE106A9FEDA70A10EE107A1D
:101850009FEDA60AF0EE408A18E09FEDA50A10EE73
:10186000105A9FEDA40A10EE106A9FEDA30A10EE25
:10187000107A9FEDA20A10EE108A9FEDA10A10EED9
:10188000109A9FEDA00AF0EE408A00BF2EE014B13E
:10189000012C2AD110E09FED9C0A10EE105A9FED0A
:1018A0009B0A10EE106A9FED9A0A10EE107A9FEDD7
:1018B000990AF0EE408A18E09FED970A10EE105A50
:1018C0009FED960A10EE106A9FED950A10EE107AC1
:1018D0009FED940A10EE108A9FED930A10EE109A75
:1018E0009FED920AF0EE408A00BF00BF14B1012CB8
:1018F0007DD150E028EE880A10EE101A084611F04B
:10190000A1FB41EC1E0BB0EE4E0AF0EE6E0A0FF09A
:101910008BFFB0EE40CAF0EE60CA384611F092FB81
:1019200041EC1D0B53EC1C2B11F096F841EC1A0BFB
:1019300028EE880A10EE101A084611F083FB41ECDD
:101940001F0BB0EE4F0AF0EE6F0A0FF0A1FE8DED07
:10195000080B304611F076FB41EC1E0B9DED080B99
:1019600053EC102B11F078F841EC1C0B284611F0C9
:1019700069FB41EC1D0B53EC1C2B10F059FD41ECA5
:101980001B0B53EC1A2B10F053FD41EC190B10F00C
:101990001DFD0A9000BFB0EE000A28EE000A20EEFE
:1019A000280A10EE101A084611F04CFB41EC1C0BF3
:1019B000B0EE4C0AF0EE6C0A0FF036FFB0EE40AA23
:1019C000F0EE60AA484611F03DFB41EC1B0B53ECD6
:1019D0001A2B11F041F841EC190BB0EE000A28EE79
:1019E000000A20EE280A10EE101A084600E0D8E09F
:1019F00011F028FB41EC1C0BB0EE4C0AF0EE6C0A27
:101A00000FF046FEB0EE40AAF0EE60AA404611F09C
:101A100019FB41EC1B0B53EC1A2B11F01DF828EEAF
:101A2000880ACDE9040110EE101A084611F00AFBED
:101A300041EC1D0BB0EE4D0AF0EE6D0A0FF0F4FE16
:101A4000B0EE40BAF0EE60BA384611F0FBFA41EC65
:101A50001C0B53EC1B2B10F0FFFF41EC1A0B28EE74
:101A6000880A10EE101A084611F0ECFA41EC1E0B31
:101A7000B0EE4E0AF0EE6E0A0FF00AFEB0EE40DA5B
:101A8000F0EE60DA304611F0DDFA41EC1F0B4FE06A
:101A9000CBA1454052B8AA423718EA3B871631C05D
:101AA000AE4708425D8AAB3C5C8F923F295C6E4238
:101AB000C2A38D3CA24546C04A0C08416002B73B18
:101AC000B81E5DC03D0A9042B3EF8A393B015DBF4D
:101AD000333361426492913C9EEF8FC0000000005E
:101AE0003D0A6740D12287C0E17A5DC29CC4803F35
:101AF000295C12C233337F4148E15CC2D7A3A441C1
:101B00008FC26D4133C4213F355EDE40FCA9B5C0B4
:101B100014AE69C25BB17F3FA4705FC2F2D20D40C8
:101B2000508DF73F9A995742000044C1AAF1023FF5
:101B300053EC1D2B10F090FF41EC1B0B284611F0CD
:101B400081FA41EC1C0B53EC1B2B10F071FC53EC95
:101B50001A2BCDE900019DED000B51EC100B10F09C
:101B600067FCCDE902019DED040B53EC102B9DEDBC
:101B7000020B51EC100B10F05BFC53EC192BCDE970
:101B800006019DED060B51EC100B10F051FCCDE958
:101B900008019DED080B51EC100B10F017FC0A909A
:101BA00000BF00BF9DED0A0A0BB0BDEC108BBDE875
:101BB000F08310B52DED108B82B00446B0EE000A14
:101BC000B0EE40BA1FED3B0AF0EE40BA9FEDFE0AC0
:101BD000B0EE40CAB0EE000AF0EE40CA1FED410A76
:101BE000B0EE40DA9FEDF80AF0EE40DA1FED450A5C
:101BF000B0EE409A1FED470AB0EE40EA1FED490AE9
:101C0000F0EE40EA1FED4B0AB0EE40FA1FED4D0A30
:101C1000F0EE40FA1FED4F0A8DED000A1FED510A5C
:101C2000B0EE40AA1FED530AF0EE40AA14B1012C09
:101C300072D138E001A80CF049FD00EE100AB8EEB0
:101C4000400AF1EE040A20EE200ADFEDE00A80EE01
:101C5000201AB0EE41AADE4890ED000A3AEE400AA2
:101C60008DED000A80ED00AADA48B0F9000000EE20
:101C7000100AF8EEC00AD848B0F9000000EE100AC9
:101C8000B8EEC00A70EEC08AD44890ED000A78EE33
:101C9000C09AF0EE4BEAB0EE6BFAF0EE4CFAD04898
:101CA00090ED008A38E001A80CF010FD00EE100A5B
:101CB000B8EE400AF1EE040A20EE200ADFEDC30A76
:101CC00080EE201AF0EE41AAC64890ED000A3AEEE6
:101CD000C00A8DED000AC0ED00AABE48B0F90200AE
:101CE00000EE100AF8EEC00ABB48B0F9020000EEA0
:101CF000100AB8EEC00A70EEC08ABB4890ED000A28
:101D000078EEC09AF0EE6CEAB0EE4DFAF0EE6DFAB5
:101D1000B64890ED008A00BF00BF38EE280AB0EE4A
:101D2000408A9FEDB30AB4EEC08AF1EE10FA04DDEA
:101D30009FEDAF0AB0EE408A0AE09FEDAE0AB4EE26
:101D4000C08AF1EE10FA03D29FEDAA0AB0EE408AE3
:101D5000B0EE680AFEF7D2FEB0EE40EAB2EE040A38
:101D6000B4EEC0EAF1EE10FA24D814B1012C1CD163
:101D70000DE01FEDA60A9A4880ED000AB6EE000AB3
:101D8000B0EE40BA1FEDAB0AB0EE40CA0DE01FED59
:101D9000AD0A964880ED000AB6EE000AF0EE40CAA1
:101DA0001FEDB20AF0EE40DA00BF00BF1FEDB50A2A
:101DB000B0EE409A2FEEA91A9DED000AC1EE000A7E
:101DC0002EEEA80A0FEE480A30EE600AB0EE409AF6
:101DD00014B1012C08D103E0814880ED008A03E0B2
:101DE000824880ED008A00BF00BF9FED830AB4EEF9
:101DF000C09AF1EE10FA04DD9FED7F0AB0EE409A32
:101E00000AE09FED7E0AB4EEC09AF1EE10FA03D21A
:101E10009FED7A0AB0EE409AB0EE490A02B0BDECEE
:101E2000108B10BDDFED766AB0EE661ADFED756AD5
:101E3000F0EE661ADFED746AB0EE662ADFED706AC6
:101E4000F0EE662ADFED6F6AB0EE663ADFED6E6A9D
:101E5000F0EE663A5FEDDF6AB0EE660A5FEDE16ACA
:101E6000F0EE660A5FEDE36AB0EE664A5FEDE56AA2
:101E7000F0EE664A5FEDE76AB0EE665A5FEDE96A3A
:101E8000F0EE665A5FEDEB6AB0EE666A10B10128BB
:101E900054D129E04F49D1ED016A4F4991ED017AC2
:101EA00076EEC76AF0EE660A584991ED007AF0EED8
:101EB000007AF0EE606A47EEC76A554991ED007A04
:101EC00076EE876AF0EE664AB0EE415AF0EE615A5D
:101ED000B0EE426A4D49D1ED006A4D49C1ED006A4C
:101EE0004A49C1ED000A29E03A49D1ED026A3A496E
:101EF00091ED027A76EEC76AF0EE660A454991EDF9
:101F0000007AF0EE007AF0EE606A47EEC76A424966
:101F100091ED007A76EE876AF0EE664AB0EE625A8C
:101F2000F0EE435AB0EE636A3A49D1ED006A3A499D
:101F3000C1ED006A3749C1ED000A00BF00BF70EE75
:101F4000C46A66EE856A45EEA06A46EE246AB0EE83
:101F5000660AF3EE046AB4EEE60AF1EE10FA04DD66
:101F6000F3EE046AB0EE660A0AE0FBEE046AB4EE31
:101F7000E60AF1EE10FA03D2FBEE046AB0EE660A4E
:101F80007047DFED1F6AB0EE661ADFED1E6AF0EEF5
:101F9000661ADFED1D6AB0EE662ADFED196AF0EE13
:101FA000662ADFED186AB0EE663ADFED176AF0EEEA
:101FB000663ADFED1A6AB0EE660ADFED186AF0EEF7
:101FC000660ADFED166A2BE0ACC5273700007A44BD
:101FD000800000203014002004140020780000202D
:101FE00070000020840000207C000020740000208D
:101FF0000000FA440000FAC40000E1430000E1C31D
:10200000A69B443C6F12033A0AD7A33D88000020E8
:10201000900000208C0000209400002000000000B0
:10202000B0EE664A5FED036AF0EE664A5FED056A60
:10203000B0EE665A5FED076AF0EE665A5FED096A28
:10204000B0EE666A10B1012854D129E0F749D1ED0C
:10205000006AF74991ED007A76EEC76AF0EE660AFB
:10206000F44991ED007AF0EE007AF0EE606A47EE06
:10207000C76AF14991ED007A76EE876AF0EE664A1A
:10208000B0EE415AF0EE615AB0EE426AE949D1ED44
:10209000006AE949C1ED006AE649C1ED000A29E09C
:1020A000E249D1ED016AE24991ED017A76EEC76A23
:1020B000F0EE660AE14991ED007AF0EE007AF0EE7A
:1020C000606A47EEC76ADE4991ED007A76EE876A6C
:1020D000F0EE664AB0EE625AF0EE435AB0EE636A32
:1020E000D649D1ED006AD649C1ED006AD349C1EDA8
:1020F000000A00BF00BF70EEC46A66EE856A45EE56
:10210000A06A46EE246AB0EE660AF3EE046AB4EE04
:10211000E60AF1EE10FA04DDF3EE046AB0EE660AA8
:102120000AE0FBEE046AB4EEE60AF1EE10FA03D21E
:10213000FBEE046AB0EE660A704700B52DED028B27
:102140000020FFF71EFFB0EE408A0120FFF719FFC5
:10215000F0EE408ABB4890ED000A30EE080A80EDB0
:10216000000A90ED010A30EE280A80ED010ABDEC6C
:10217000028B00BD10B52DED0A8B82B004461FED19
:10218000590AB0EE40AA1FED5B0AF0EE408A01A8A2
:102190000CF09CFA00EE100AB8EE400AF1EE040AC8
:1021A00020EE200A5FED770A80EE201AF0EE418AD9
:1021B000A54890ED000A38EEC00AB0EE40AAC0ED86
:1021C000008A94ED000A20EE000AD4ED010A94ED95
:1021D000011A00EE810A10EE101A084610F032FFC4
:1021E00041EC1C0BB0EE4C0AF0EE6C0A0FF080FBD9
:1021F000B0EE40BAF0EE60BA51EC1B0B10F0E6F80E
:1022000008EE100A914890ED000A38EE400AC0EE40
:102210000A0AB0EE609A8E4890ED000A20EE080A95
:102220008C48D0ED000A00EE890AF0EE409A87480B
:1022300080ED008AB1EE040AB4EEC08AF1EE10FA25
:1022400003D81FED8A0AF0EE409AB0EE690A02B098
:10225000BDEC0A8B10BD10B52DED068B82B0044687
:102260007D48B0F9000000EE100AB8EEC00A8DED0E
:10227000000A7948B0F9020000EE100AB8EEC00A70
:102280008DED010A21466846FEF76CFC94ED000ACC
:1022900010EE101A084610F0D5FE41EC190B94ED23
:1022A000010A10EE101A084610F0CCFE41EC1A0B91
:1022B000B0EE491AF0EE691AB0EE4A0AF0EE6A0A78
:1022C0000FF0D2F8B0EE408AF0EE608A51EC180BB5
:1022D00010F07CF800EE100A02B0BDEC068B10BDC9
:1022E00010B52DED0A8B82B01FEDB40A10EE104A26
:1022F0001FEDB60AB0EE408A0020009001906846BB
:10230000FFF7A9FF10EE104A6846FFF733FFB0EE63
:10231000408A9FED520AB4EEC08AF1EE10FA04DB57
:102320009FED4E0AB0EE408A0AE09FED4D0AB4EEF2
:10233000C08AF1EE10FA03D89FED490AB0EE408A48
:1023400018EE100A10F07EFE41EC1A0B204610F039
:1023500079FE41EC1C0BB0EE4C0AF0EE6C0A0FF06B
:1023600097F9B0EE40BAF0EE60BA53EC1A2B51EC8C
:102370001B0B10F071FB41EC190B10F027F82B49E7
:10238000086018EE100A10F05DFE41EC1A0B2046B2
:1023900010F058FE41EC1C0BB0EE4C0AF0EE6C0A4B
:1023A0000FF042FAB0EE40BAF0EE60BA53EC1A2BDE
:1023B00051EC1B0B10F050FB41EC190B10F006F820
:1023C0001A49486002B0BDEC0A8B10BD10B5FFF78A
:1023D00087FFFFF7B2FE10BD0EB500200090019000
:1023E000029020480078012802D1FFF7EFFF04E0B7
:1023F0001C48007808B9FFF7A0FE1748D0ED040A82
:10240000B0EE600AFEF714FF0E4880ED020A90ED70
:10241000010ADFED150AB4EEE00AF1EE10FA25DB51
:102420009FED110A80ED010A2EE0000068140020E3
:102430005C14002098000020A00000209C000020D8
:10244000A400002074140020CC000020C80000204C
:102450004000002044000020301400200000C84349
:102460000000C8C33C0000200000FA43FE4890ED85
:10247000010ADFEDFE0AB4EEE00AF1EE10FA03D82D
:102480009FEDFA0A80ED010AF74890ED000A5FED32
:102490000A0AB4EEE00AF1EE10FA04DB1FED0E0AB0
:1024A00080ED000A0DE0F04890ED000ADFEDEF0A44
:1024B000B4EEE00AF1EE10FA03D89FEDEC0A80EDDD
:1024C000000A6946E848FEF783FDE948007818B13C
:1024D0006846FEF795FC01E000F0F1FD0EBD00B589
:1024E0002DED068B83B09FEDE30AB0EE408A9FEDA1
:1024F000E10AF0EE408A02A80CF0E8F800EE100ABB
:10250000B8EE400AF1EE040A20EE200ADFEDDA0A06
:1025100080EE201AF0EE418AD84890ED000A38EE9D
:10252000C00AB0EE408AC0ED008AD54890ED000A9E
:10253000B8EEC00AD348D0ED000A30EE600ABDEE16
:10254000C00A8DED000AD04890ED000AB8EEC00A2E
:10255000CE48D0ED000A30EE600ABDEEC00A8DED27
:10256000010ACB48D0ED040AB0EE600AC9496846BA
:10257000FEF7D8FEC24890ED000AB8EEC00AC14886
:1025800080ED000AC04890ED000AB8EEC00ABF48CE
:1025900080ED000ABF4890ED000ABDEEC00A10EEC3
:1025A000100A00B2BA490880BA4890ED010ABDEE9F
:1025B000C00A10EE100A00B24880B74890ED000A39
:1025C000B8EEC00AB548D0ED000A30EE600AB0EEB1
:1025D000409AB34890ED000AB8EEC00AB148D0ED79
:1025E000000A30EE600AF0EE409AAF4890ED000A23
:1025F000B8EEC00AAD48D0ED000A30EE600AB0EE89
:1026000040AA89EE080A084680ED070A89EE880A82
:1026100080ED080A8AEE080A80ED090A9E4890EDCE
:10262000000AB8EEC00A9D4880ED000A9C4890ED73
:10263000000AB8EEC00A9B4880ED000A9A4890ED67
:10264000000AB8EEC00A994880ED000A03B0BDEC5C
:10265000068B00BD70B52DED108B8D48D0ED040AB2
:10266000B0EE600AFEF754FA10EE104A0020FFF7B1
:10267000A0FA10EE105A0120FFF79BFA10EE106A34
:10268000834890ED010A8A4880ED010A804890ED68
:10269000020A874880ED020A304610F0D3FC41EC74
:1026A0001C0B204610F0CEFC41EC1E0BB0EE4E0A87
:1026B000F0EE6E0A0FF0B8F8B0EE40DAF0EE60DA45
:1026C00053EC1C2B51EC1D0B10F0C6F941EC1A0B0E
:1026D000284610F0B7FC41EC1C0B204610F0B2FC71
:1026E00041EC1E0BB0EE4E0AF0EE6E0A0EF0D0FF7B
:1026F000B0EE40DAF0EE60DA53EC1C2B51EC1D0B1F
:1027000010F0AAF941EC1B0B53EC1A2B0FF090FEC2
:1027100041EC190B0FF05AFE08EE100A304610F08B
:1027200091FC41EC1C0B204610F08CFC41EC1E0B84
:10273000B0EE4E0AF0EE6E0A0EF0AAFFB0EE40DAEE
:10274000F0EE60DA53EC1C2B51EC1D0B10F084F909
:1027500041EC1A0B284610F075FC41EC1C0B20468E
:1027600010F070FC41EC1F0BB0EE4F0AF0EE6F0A58
:102770000FF05AF8B0EE40EAF0EE60EA51EC1E0BB2
:102780000FF018FE41EC1D0B53EC1C2B10F064F9FC
:1027900041EC1B0B53EC1A2B0FF04AFE41EC190BCA
:1027A0000FF014FE08EE900A2F4880ED008AC0ED6D
:1027B000018ABDEC108B70BD70B52DED108B82B011
:1027C0000020FFF72FFB10EE105A0120FFF72AFB25
:1027D00010EE106A2E48D0ED040AB0EE600AFEF743
:1027E00097F910EE104A304610F02CFC41EC1D0B0E
:1027F000204610F027FC41EC1F0BB0EE4F0AF0EE24
:102800006F0A0FF011F8B0EE40EAF0EE60EA53EC18
:102810001D2B51EC1E0B10F01FF941EC1B0B284631
:1028200010F010FC41EC1D0B204610F00BFC41ECAD
:102830001F0BB0EE4F0AF0EE6F0A0EF029FFB0EE5C
:1028400040EAF0EE60EA53EC1D2B51EC1E0B10F049
:1028500003F941EC1C0B53EC1B2B0FF0E9FD41EC91
:10286000190B014826E00000741400200000FAC390
:102870003E0000200000000000007A44C400002058
:1028800024000020B400002028000020B800002010
:1028900004140020BC00002014000020A800002028
:1028A00018000020AC0000201C000020B000002018
:1028B0003014002090ED000A10EE101A084610F0B7
:1028C000C1FB41EC1A0B53EC192B0FF0B1FD41EC9D
:1028D000180B0FF07BFD2E490860304610F0B2FB5C
:1028E00041EC1D0B204610F0ADFB41EC1F0BB0EE90
:1028F0004F0AF0EE6F0A0EF0CBFEB0EE40EAF0EEBB
:1029000060EA53EC1D2B51EC1E0B10F0A5F841ECC6
:102910001B0B284610F096FB41EC1D0B204610F0D7
:1029200091FB41EC1F0BB0EE4F0AF0EE6F0A0EF078
:102930007BFF8DED000B9DED000B51EC100B0FF0AC
:1029400039FD41EC1E0B53EC1D2B10F085F841ECCA
:102950001C0B53EC1B2B0FF06BFD41EC190B0C48BF
:1029600090ED010A10EE101A084610F06BFB41ECD6
:102970001A0B53EC192B0FF05BFD41EC180B0FF009
:1029800025FD0349486002B0BDEC108B70BD00000E
:10299000741400201CB50121022001F071FC4FF4D9
:1029A0000070009001208DF8040000208DF80600D2
:1029B00003208DF8050001208DF8070069460D48B9
:1029C00001F0C0F94FF400710A4801F037FA1CBD5C
:1029D0000948006808B9012000E0002006490860A5
:1029E00070470020044908607047012002490860D0
:1029F0007047000000040240A482404210B505F078
:102A000013F8402002F0CAFE88B1A848006828B137
:102A1000A7480068401CA649086004E0A448006874
:102A2000401EA3490860402002F0C3FE22E04FF49C
:102A3000007002F0B3FE98B19C48001D006828B1F8
:102A40009C480068401E9B49086004E09948006863
:102A5000401C984908604FF4007002F0AAFE09E09B
:102A6000202002F09BFE28B193A00CF003FD202053
:102A700002F09FFE04F0E9FF10BD10B504F0D4FF92
:102A8000012002F08BFE28B190A00CF0F3FC012095
:102A900002F08FFE04F0D9FF10BD10B504F0C4FFA2
:102AA0004FF4006002F07AFE90B18D48006828B1C2
:102AB0008C480068401C8B49086004E08948006825
:102AC000401E884908604FF4006002F072FE16E074
:102AD0004FF4804002F062FE88B18348006828B15C
:102AE00082480068401E8149086004E07F48006811
:102AF000401C7E4908604FF4804002F05AFE04F00A
:102B0000A4FF10BD10B504F08FFF102002F046FEA8
:102B100020B177480068102002F04BFE04F095FFCA
:102B200010BD10B504F080FF022002F037FE88B11E
:102B30006D480C38006828B16E480068401C6D492B
:102B4000086004E06B480068401E6A490860022083
:102B500002F02FFE04F079FF10BD00B585B0012111
:102B60000E2001F08DFB44F2F130009000208DF832
:102B7000040003208DF8050001208DF80700694648
:102B80005D4801F0DFF84FF44060009000208DF8C0
:102B9000040003208DF8050001208DF80700694628
:102BA000564801F0CFF8012000906946544801F0E2
:102BB000C9F84A2000906946524801F0C3F84FF422
:102BC00070714D4801F03AF94FF440614B4801F003
:102BD00035F901214A4801F031F94A21494801F00B
:102BE0002DF90121880301F0A5FB0621022001F047
:102BF000ACFC0921022001F0A8FC0021022001F018
:102C0000A4FC0521022001F0A0FC0B21032001F00F
:102C10009CFC0421022001F098FC0E21022001F00E
:102C200094FC0121042001F090FC44F673200290F2
:102C300000208DF80C000C208DF80D0001208DF87F
:102C40000E0002A802F044FD17208DF810000020AD
:102C50008DF8110002208DF8120001208DF813006C
:102C600004A800F07EFF0A208DF8100004A800F0F0
:102C700078FF07208DF8100004A800F072FF0620EE
:102C80008DF8100004A800F06CFF28208DF81000CB
:102C900000208DF8110002208DF8120001208DF81F
:102CA000130004A800F05DFF05B000BD1C02414206
:102CB00018000020140000206F6E207468652074D6
:102CC0006F70206E6F77210D0A0000006F6E20621A
:102CD0006F74746F6D206E6F77210D0A0000000015
:102CE000288241421C000020180242422800002095
:102CF000008240422400002000080240000C0240F4
:102D0000000402400010024030B58BB004460D466E
:102D10000121084601F00EFB0121102001F0B0FA5C
:102D200001220921FE4801F098F801220B21FC48FC
:102D300001F093F84FF42060099002208DF82800EC
:102D400003208DF8290000208DF82A0001208DF83D
:102D50002B0009A9F24800F0F5FFA720ADF81800F4
:102D60000020ADF81A0044F61F6007900020ADF86F
:102D7000200006A9EB4801F0F8FE7020ADF8040031
:102D80000120ADF806000220ADF8100001A9E548C9
:102D900001F080FF01A9E34801F0B5FF0121E148FE
:102DA00002F05DFB0821DF4802F001F90821DD484F
:102DB00002F006F90121DB4801F042FF0121D94868
:102DC00001F05CFF0121082001F0A3FA0121052098
:102DD00001F056FA02220021D34801F03EF8022207
:102DE0000121D14801F039F802221146CE4801F004
:102DF00034F802220321CC4801F02FF80F2009906B
:102E000002208DF8280003208DF8290000208DF87D
:102E10002A0001208DF82B0009A9C34800F092FF79
:102E20000C20099001208DF8280009A9BF4800F066
:102E300089FF3020099009A9BB4800F083FF0220D8
:102E4000ADF818000020ADF81A0040F27750079056
:102E50000020ADF8200006A9B54801F086FE7020DC
:102E6000ADF804000120ADF806000220ADF8100016
:102E700001A9AF4801F00EFF01A9AD4801F043FFE1
:102E800001A9AB4801F08CFF01A9A94801F0EEFFB0
:102E90000121A74802F0E3FA0821A54802F087F8CB
:102EA0000821A34802F08CF80821A14802F095F807
:102EB00008219F4802F09AF801219D4801F0C0FEC8
:102EC00001219B4801F0DAFE0BB030BD70B504461D
:102ED0000D463DB92146964802F037F80020954945
:102EE000086009E0012D07D1C4F5AF61904802F0F8
:102EF0002CF801208F49086070BD70B504460D465E
:102F0000012D07D121468A4802F023F800208A4982
:102F1000086008E03DB9C4F5AF61854802F019F8D2
:102F200001208549086070BD70B504460D464DB955
:102F3000C4F5AF617E4802F00AF801207E49091FFE
:102F4000086009E0012D07D12146794801F0FFFF13
:102F500000207949091F086070BD70B504460D4610
:102F600045B92146724801F0EEFF00207149091F62
:102F700008600AE0012D08D1C4F5AF616C4801F08A
:102F8000E2FF01206B49091F086070BD10B52DEDEF
:102F9000028BB0EE408A0446F0EE488AB5EEC08A55
:102FA000F1EE10FA03D2B1EE680AF0EE408A012C7D
:102FB00004D0022C1ED0032C54D137E0B5EEC08AC9
:102FC000F1EE10FA08DBBCEEE80A10EE101A88B237
:102FD0000121FFF7C2FF0CE0B5EEC08AF1EE10FA56
:102FE00007D2BCEEE80A10EE101A88B20021FFF7F3
:102FF000B4FF37E0B5EEC08AF1EE10FA08DBBCEEA4
:10300000E80A10EE101A88B20121FFF75FFF0CE00A
:10301000B5EEC08AF1EE10FA07D2BCEEE80A10EE67
:10302000101A88B20021FFF751FF1BE0B5EEC08AED
:10303000F1EE10FA08DBBCEEE80A10EE101A88B2C6
:103040000121FFF771FF0CE0B5EEC08AF1EE10FA36
:1030500007D2BCEEE80A10EE101A88B20021FFF782
:1030600063FF00BF00BFBDEC028B10BD012806D07E
:1030700002280CD0032811D004281ED116E000210C
:103080002B4A343211602B4A121F116015E00021C7
:10309000274A38321160274A11600EE00021244A85
:1030A0003C321160244A121F116006E00021204AC0
:1030B00040321160204A116000BF00BF704700B568
:1030C0000120FFF7D3FF0220FFF7D0FF0320FFF717
:1030D000CDFF0420FFF7CAFF00BD2DE9F0412DED23
:1030E000108B90B0F0EE40BAF0EE60DA05469FED3E
:1030F000130AF0EE40FA9FED120A10EE106A9FEDEF
:10310000110A8DED0E0A9FED0D0A8DED0D0A9FED52
:103110000C0A10EE107A9FED0B0A8DED0C0A13E0ED
:103120000010024000000140000002400008024080
:10313000000C00408C024142940240426C09793AF2
:1031400095BFD63382A8FB371FED040A8DED0B0A1D
:103150001FED050A10EE108A1FED060A8DED0A0A12
:103160009FEDA20AB0EE40DA9FEDA00AB0EE40EA71
:103170009FED9E0AF0EE40EA9FED9C0AB0EE40FA09
:103180009FED9B0AF4EEC0BAF1EE10FA0ED29FED5D
:10319000970A984880ED000A9FED940A964880EDC2
:1031A000000A9FED920A954880ED000A3BEEED8AF9
:1031B000012D04D0022D2FD0032D2CD159E00FA8C2
:1031C0000BF084FA00EE100AB8EE400AF1EE040AA1
:1031D00020EE200ADFED8A0A80EE201AB0EE41EAE6
:1031E000884890ED000A3EEE400AB0EE40DA80EDED
:1031F00000EA854890ED000A38EE400A80EE0DAAFC
:10320000F0EE6FAA34469DED0EBA7A4800680FF0D2
:1032100019FF41EC190B59E00FA80BF057FA00EE1B
:10322000100AB8EE400AF1EE040A20EE200ADFEDA3
:10323000740A80EE201AF0EE41EA744890ED000A1C
:103240003EEEC00AB0EE40DAC0ED00EA704890ED04
:10325000000A38EE400A80EE0DAADDED0DAA3C46CC
:103260009DED0CBA644800680FF0ECFE41EC190BC0
:103270002CE00FA80BF02AFA00EE100AB8EE400A74
:10328000F1EE040A20EE200ADFED5D0A80EE201A3E
:10329000B0EE41FA5F4890ED000A3FEE400AB0EE12
:1032A00040DA80ED00FA5C4890ED000A38EE400A02
:1032B00080EE0DAADDED0BAA44469DED0ABA4F48FB
:1032C00000680FF0BFFE41EC190B00BF00BF18EE05
:1032D000100A0FF0B7FE41EC1C0B53EC192B0FF04A
:1032E000A7F841EC190B2BEE0A0A10EE101A08464B
:1032F0000FF0A8FECDE9060120460FF0A3FE53EC27
:10330000192BCDE900019DED000B51EC100B0FF0D6
:10331000A3FB41EC1C0B2AEE880A10EE101A08469B
:103320000FF090FE53EC1C2BCDE902019DED020B3A
:1033300051EC100B0FF07CF8CDE904019DED060B6C
:1033400053EC102B9DED040B51EC100B0FF070F8AB
:10335000CDE908019DED080B51EC100B0FF036F88C
:1033600008EE900A012D04D0022D0CD0032D1ED1A1
:1033700013E051EC190B0FF029F81E4908602248A0
:1033800080ED008A13E051EC190B0FF01FF81A4979
:1033900008601F4880ED008A09E051EC190B0FF01E
:1033A00015F8164908601C4880ED008A00BF00BF70
:1033B0009FED1A0AF4EEC08AF1EE10FA04DD9FEDDB
:1033C000170AF0EE408A0AE09FED150AF4EEC08A73
:1033D000F1EE10FA03D29FED120AF0EE408AB0EE41
:1033E000680A10B0BDEC108BBDE8F0810000000051
:1033F0000000C842D0000020D4000020D8000020E7
:1034000000007A44E8000020DC000020EC000020EE
:10341000E0000020F0000020E40000200000AF44A5
:103420000000AFC47FB505460C460121022000F024
:1034300070FF0295ADF804400020ADF80600ADF82D
:103440000C0001A9124801F090FB0122114610481E
:1034500002F02CF801210E4801F010FC1D208DF81F
:10346000000000208DF801008DF8020001208DF889
:103470000300684600F075FB7FBD10B501210448CC
:1034800002F02BF80121024802F038F810BD0000CC
:103490000004004010B588B004460121082000F067
:1034A000EFFE0121480400F034FF07220521FE4809
:1034B00000F0D3FC07220621FB4800F0CEFC602080
:1034C000069002208DF81C008DF81D0000208DF85C
:1034D0001E0001208DF81F0006A9F34800F032FC01
:1034E00002940020ADF80C00ADF80E00ADF810000D
:1034F000ADF814000C20ADF8120002A9EB4801F061
:10350000C4F80121E94801F048F9012240F22551AF
:10351000E64801F0F8F926208DF8040000208DF827
:1035200005008DF8060001208DF8070001A800F0C5
:1035300018FB08B010BD002004E00021DC4A115443
:10354000411CC8B20B28F8DB0021DA4A1170704721
:1035500010B504F069FA40F22551D44801F00EFA92
:10356000F8B1D548007800B3D048001D0088D04994
:10357000D04A12788854CF480078401CCD49087052
:10358000CB480078552801D0FFF7D5FFC94800780F
:103590000B2812D1C6480078552803D10020C6490F
:1035A00008700AE0FFF7C7FF07E0C048001D008869
:1035B000C1B2BF48BF4A1278815404F046FA10BD28
:1035C00000BFBA49098801F040010029F9D0B74984
:1035D000091D0880704700B502461078FFF7F0FF1C
:1035E0005078FFF7EDFF00BD00B5024603E010780C
:1035F000FFF7E6FF521C10780028F8D100BD00B597
:103600000246002305E01078FFF7DAFF521C581C31
:10361000C3B20B2BF7DB00BD00B52DED048B81B0E1
:103620009FEDA60AB0EE408A9FEDA40AB0EE409A44
:103630009FEDA20AF0EE408A68460BF047F800EED4
:10364000100AB8EE400AF1EE040A20EE200ADFED7F
:103650009C0A80EE201AF0EE418A9A4890ED000A0A
:1036600038EEC00AB0EE409AC0ED008A964890ED60
:10367000000A964880ED000A90ED000A9448D0EDCB
:10368000000A30EE600AB0EE408AB0EE480AFDF75C
:1036900035FADFED900AB4EEE00AF1EE10FA1CDD27
:1036A0008A4890ED000AB5EEC00AF1EE10FA0AD28F
:1036B000B0EE480AFDF722FADFED870A30EEC00AC5
:1036C000B0EE408A09E0B0EE480AFDF717FADFEDE8
:1036D000820A30EE600AB0EE408A804890ED000A1F
:1036E00030EE080A80ED000A88EE090A7C4880ED79
:1036F000020A764890ED000A754880ED000A01B094
:10370000BDEC048B00BD10B569484078512802D04B
:10371000532864D164E06648C078000200B264496E
:103720008978084300EE100AB8EEC00ADFED6D0A92
:1037300080EE201AB1EE000A21EE000ADFED6A0ADF
:1037400020EE200A694880ED000A594840790002BD
:1037500000B257490979084300EE100AB8EEC00AD2
:10376000DFED600A80EE201AB1EE000A21EE000AB9
:10377000DFED5D0A20EE200A5D4880ED000A4C482E
:10378000C079000200B24A498979084300EE100A64
:10379000B8EEC00ADFED530A80EE201AB1EE000A3F
:1037A00021EE000ADFED500A20EE200A514880ED9C
:1037B000000A3F48407A000200B23D49097A0843B6
:1037C00000EE100AB8EEC00ADFED4B0A80EE201AB8
:1037D000B3EE050A31EE000A484880ED000A9AE08F
:1037E0003348C078000200B231498978084300EEBE
:1037F000100AB8EEC00A9FED3B1AC0EE010A9FED19
:10380000400A20EE800A3F4880ED000A28484079AF
:10381000000200B226490979084300EE100AB8EE0A
:10382000C00ADFED300A80EE201A9FED350A21EE46
:10383000000A354880ED000A1D48C079000200B238
:103840001B498979084300EE100AB8EEC00ADFED83
:10385000250A80EE201A9FED2A0A21EE000A1A4856
:1038600080ED000A1248407A000200B21049097A3D
:10387000084300EE100AF8EEC00A9FED1F1A80EE12
:10388000810AF3EE050A30EE200A1C4880ED000A9A
:10389000FFF7C2FE1D4890ED0A0A1048D0ED000A5D
:1038A00030EEC00A194833E0000C024000440040EA
:1038B00080140020F5000020F4000020000000002B
:1038C00000007A44200100200C0100201C0100208F
:1038D00018010020000096430000B44314010020AA
:1038E0005C14002000000047CDCC1C41F8000020F3
:1038F000FC000020000100200000AA43100100206D
:1039000000003443080100200401002004140020BA
:1039100080ED040A00BF00BF01200149087010BDFE
:10392000F400002010B588B004460121022000F008
:10393000A7FC0121880400F0ECFC07220A216E4854
:1039400000F08BFA07220B216B4800F086FA4FF447
:103950004060069002208DF81C008DF81D000020AC
:103960008DF81E0001208DF81F0006A9624800F0A6
:10397000E9F902940020ADF80C00ADF80E00ADF8A6
:103980001000ADF814000C20ADF8120002A95B483D
:1039900000F07BFE0121594800F0FFFE012240F2B9
:1039A0002551564800F0AFFF27208DF80400012074
:1039B0008DF805008DF806008DF8070001A800F0CD
:1039C000D0F808B010BD002004E000214C4A11548A
:1039D000411CC8B20E28F8DB00214A4A117070471A
:1039E00010B52DED028B84B0002003900290019061
:1039F000002400BF06E04249A01C085C03A908554A
:103A0000601CC4B2032CF6DB03A80DF025FEB0EE5B
:103A1000408AF0EE608A51EC180B0EF089FF3A49AB
:103A20000880002406E03649A01D085C02A908555C
:103A3000601CC4B2032CF6DB02A80DF00DFEB0EE44
:103A4000408AF0EE608A51EC180B0EF071FF2E499F
:103A50004880002407E02A4904F10A00085C01A913
:103A60000855601CC4B2032CF5DB01A80DF0F4FD71
:103A7000B0EE408AF0EE608A51EC180B0EF058FF61
:103A8000224908800120224908702249087004B0A8
:103A9000BDEC028B10BD10B503F0C6FF40F22551FE
:103AA000164800F06BFFC8B11448001D0088144987
:103AB000144A1278885413480078401C1149087041
:103AC0000F480078502801D0FFF77DFF0D4800789F
:103AD0000E2803D1FFF784FFFFF775FF03F0B5FF52
:103AE00010BD00BF0549098801F040010029F9D047
:103AF0000249091D08807047000402400048004048
:103B00008B14002024010020260100202A0100201F
:103B10002E0100202D010020094880470948004758
:103B2000FEE7FEE7FEE7FEE7FEE7FEE7FEE7FEE76D
:103B3000FEE7FEE704480549054A064B70470000CA
:103B4000C90900088901000898350020983B002029
:103B5000983700209837002032490143324A1160DB
:103B6000704770B5002100230F22C4781CB32E4C7F
:103B7000246804F4E064C4F5E064C4F30721C1F1EF
:103B80000404E3B20A4144789C40E1B284781440D2
:103B900021430C07210E254C05786155047804F06B
:103BA0001F050124AC4005786D11AD0005F1E0253D
:103BB000C5F8004109E0047804F01F050124AC4079
:103BC0001B4D0678761145F8264070BD194A0A400B
:103BD0000243154B1B1F1A60704739B1124A121D60
:103BE00012680243104B1B1D1A6006E00E4A121D9C
:103BF000126882430C4B1B1D1A607047042808D1C1
:103C00004FF0E021096941F004014FF0E022116119
:103C100007E04FF0E021096921F004014FF0E022B4
:103C2000116170470000FA050CED00E000E400E0CF
:103C300080E100E080FFFF1F10B5044698488442F1
:103C400008D10121084600F086FB0021012000F088
:103C500082FB76E09348844208D10121022000F0E3
:103C60007AFB0021022000F076FB6AE08E48844255
:103C700008D10121042000F06EFB0021042000F097
:103C80006AFB5EE08948844208D10121082000F0E7
:103C900062FB0021082000F05EFB52E08448844271
:103CA00008D10121102000F056FB0021102000F067
:103CB00052FB46E07F48844208D10121202000F0D9
:103CC0004AFB0021202000F046FB3AE07A4884427B
:103CD00008D10121402000F03EFB0021402000F0EF
:103CE0003AFB2EE07548844208D10121802000F083
:103CF00032FB0021802000F02EFB22E0704884423D
:103D000008D10121801500F026FB0021A01500F04C
:103D100022FB16E06B48844208D10121401500F0D7
:103D20001AFB0021601500F016FB0AE06648844289
:103D300007D10121001500F00EFB0021201500F035
:103D40000AFB10BDF0B50A4600210023002400BF85
:103D50003DE0012505FA01F3156805EA03049C42DC
:103D600034D105684F000326BE40B5430560157980
:103D70004E00B5400668354305601579012D02D027
:103D80001579022D16D185684F000326BE40B54334
:103D9000856055794E00B540866835438560456835
:103DA00001268E40B5434560456896798E40B6B28F
:103DB00035434560C5684F000326BE40B543C56026
:103DC000D5794E00B540C6683543C560491C1029F9
:103DD000BFD3F0BD4FF6FF71016000210171417149
:103DE0008171C171704708B54FF480320092009A1A
:103DF0000A430092009AC261C161009AC261C2691D
:103E00000092C269009208BD0246002013690B406F
:103E10000BB1012000E0002070470146086980B224
:103E200070470246002053690B400BB1012000E0AF
:103E3000002070470146486980B27047018370478F
:103E4000418370470AB1018300E0418370474161BB
:103E5000704742694A4042617047F0B50023002430
:103E60004D07ED0E02FA05F3CE1000F1200555F8CE
:103E700026504E07F70E0F26BE40B543CF1000F177
:103E8000200646F82750CE1000F1200555F82650A0
:103E900045EA0304CE1000F1200545F82640F0BDA8
:103EA000000002400004024000080240000C0240F2
:103EB000001002400014024000180240001C0240A2
:103EC000002002400024024000280240F948006817
:103ED00040F00100F74908600020F6490831086009
:103EE000F4480068F4490840F2490860F348091DA5
:103EF0000860F348EF4984310860F0481038091D24
:103F00000860EC48006820F48020EA49086000203E
:103F1000E8490C310860E7498C310860704700219E
:103F2000E44A921C117011460870704710B50146A2
:103F30000022002300204A11012A02D1DD4C23680F
:103F400008E0022A03D1DB4C7034236802E0D94C2C
:103F50007434236801F01F02012494401C400CB10A
:103F6000012000E0002010BD38B5002000900024A2
:103F7000002500BF3120FFF7D9FF05460098401CFF
:103F800000900098B0F5A04F01D0002DF2D0312064
:103F9000FFF7CCFF08B1012400E00024204638BD23
:103FA00001460020C34A106820F0F80040EAC10032
:103FB00010607047C349086070470021BD4A7032E5
:103FC00011701170012802D004280AD104E00121E7
:103FD000B84A7032117005E00521B64A703211708E
:103FE00000E000BF00BF7047B7490860704770B578
:103FF000049C41EA82150126C6EB530645EA0645B4
:10400000054345EA0465AB4E361D356070BDAD49CC
:1040100008667047820142EA0172A64B84331A6037
:104020007047A8498866704710B5830143EA016369
:1040300043EA02739F4C8834236010BDA14908678E
:104040007047A049C864704702460020994B083366
:10405000186820F0EC6042EA01031843954B0833DE
:104060001860704702460020924B0833186820F011
:10407000784042EA010318438E4B083318607047BA
:10408000014600208B4A0832106820F003000843E4
:104090001060704787480830006800F00C007047D7
:1040A00001460020834A0832106820F0F0000843DF
:1040B00010607047014600207E4A0832106820F4E4
:1040C000E05008431060704701460020794A0832EA
:1040D000106820F4604040EAC10010607047F0B5FD
:1040E000002100220024022500260223714F0837F8
:1040F0003F6807F00C0121B1042905D0082937D108
:1041000005E0724F076036E0714F076033E0694F9A
:104110003F1D3F68C7F38056664F3F1D3F6807F05D
:104120003F036EB16A4FB7FBF3F7DFF888C10CF1BC
:10413000040CDCF800C0CCF3881C07FB0CF40CE08A
:10414000624FB7FBF3F7DFF86CC10CF1040CDCF83D
:1041500000C0CCF3881C07FB0CF4564F3F1D3F6892
:10416000C7F301477F1C7D00B4FBF5F7076002E051
:10417000564F076000BF00BF4E4F08373F6807F03B
:10418000F0010909534F7A5C0768D7404760494FEF
:1041900008373F6807F4E051890A4E4F7A5C476858
:1041A000D7408760434F08373F6807F46041490BA9
:1041B000484F7A5C4768D740C760F0BD002100F4E3
:1041C0004072B2F5407F0AD13A4A0832116821F4B0
:1041D000F811414A02401143364A08321160354A0B
:1041E00070321268C0F30B031A43324B70331A60FB
:1041F0007047354944390860704733494039086091
:10420000704736490860704701460020294A8C32C1
:10421000106820F01F004A1E1043264A8C3210609E
:10422000704701460020234A8C32106820F4F85071
:104230004A1E40EA02201F4A8C3210607047014635
:1042400000201C4A8C32106820F440100843106093
:10425000704701460020174A8C32106820F4400055
:1042600008431060704701460020124A8C321068E3
:1042700020F44030084310607047194908607047C7
:1042800039B10C4A3032126802430A4B30331A609B
:1042900006E0084A303212688243064B30331A6017
:1042A0007047F9B1034A343212680243014B343388
:1042B0001A601CE000380240FFFFF6EA10300024CC
:1042C0000030002000004742800E47420024F400E6
:1042D00040787D012F010020FFFCFF0F5C01474269
:1042E000E01147428F4A126882438E4B1A60704732
:1042F00039B18C4A121D126802438A4B1B1D1A6089
:1043000006E0884A121D12688243864B1B1D1A6004
:10431000704739B1834A0C3212680243814B0C3327
:104320001A6006E07F4A0C32126882437D4B0C33E0
:104330001A60704739B17B4A103212680243794BD8
:1043400010331A6006E0774A103212688243754BC8
:1043500010331A60704739B1724A243A1268024326
:10436000704B243B1A6006E06E4A243A126882437E
:104370006C4B243B1A60704739B16A4A203A126884
:104380000243684B203B1A6006E0664A203A1268F6
:104390008243644B203B1A60704739B1614A1C3A32
:1043A000126802435F4B1C3B1A6006E05D4A1C3AF0
:1043B000126882435B4B1C3B1A60704739B1594A03
:1043C000143A12680243574B143B1A6006E0554AF0
:1043D000143A12688243534B143B1A60704739B148
:1043E000504A103A126802434E4B103B1A6006E0E6
:1043F0004C4A103A126882434A4B103B1A6070478D
:1044000039B1484A1C3212680243464B1C331A60C9
:1044100006E0444A1C3212688243424B1C331A6045
:10442000704739B13F4A2032126802433D4B203376
:104430001A6006E03B4A203212688243394B20332F
:104440001A60704739B1374A243212680243354B3B
:1044500024331A6006E0334A243212688243314B17
:1044600024331A60704739B12E4A2C321268024345
:104470002C4B2C331A6006E02A4A2C3212688243F5
:10448000284B2C331A60704739B1264A30321268F3
:104490000243244B30331A6006E0224A303212685D
:1044A0008243204B30331A607047012808D11D49E0
:1044B0003C31096841F008011A4A3C32116007E0BA
:1044C00018493C31096821F00801164A3C32116054
:1044D000704739B1134A273A12780243114B273BF0
:1044E0001A7006E00F4A273A127882430D4B273B99
:1044F0001A7070470B484030006840F080700949DE
:1045000040310860704701460020064A283A126888
:104510000A400AB1012000E0002070470149263915
:10452000087070473438024010B501218803FFF746
:1045300056FF00214FF48040FFF751FF10BD1C498A
:10454000086070471B490862704730B500228B072E
:104550001C0F0F2303FA04F2154B08338C1053F889
:1045600024309343124C08348D1044F825302346F0
:104570008C1053F824308C07240F00FA04F42343E2
:104580000B4C08348D1044F8253030BD0949DC311E
:1045900008607047084908607047002004492031CE
:1045A000096801F4807109B1012000E00020704722
:1045B00000380140000027420004274210B504469D
:1045C000FA48844208D101211020FFF708FF00219A
:1045D0001020FFF704FF57E0F548844209D101217C
:1045E0004804FFF7EBFE00214FF40030FFF7E6FE32
:1045F0004AE0F048844209D101218804FFF7DEFE39
:1046000000214FF48020FFF7D9FE3DE0EA488442C4
:1046100009D10121C804FFF7D1FE00214FF4002089
:10462000FFF7CCFE30E0E548844209D101210805BE
:10463000FFF7C4FE00214FF48010FFF7BFFE23E018
:10464000DF48844208D101212020FFF7C8FE002165
:104650002020FFF7C4FE17E0DA48844209D1012187
:104660008807FFF7ABFE00214FF08040FFF7A6FE62
:104670000AE0D548844207D101214005FFF79EFE9C
:1046800000216005FFF79AFE10BD2DE9FF470546A2
:104690000E460024A14600BFA046B08900B100BF6D
:1046A0002C8A24F44054F08804432C82AC8941F2D3
:1046B0000C608443B08831890843718908430443FE
:1046C000AC81AC8A24F44074B0890443AC8268465F
:1046D000FFF705FDB548854202D0B948854202D1B1
:1046E000DDF80C9001E0DDF80890A88900F40040A6
:1046F00040B109EBC90000EB091031684900B0FB7B
:10470000F1F707E009EBC90000EB091031688900F7
:10471000B0FBF1F76420B7FBF0F00401200964213D
:1047200001FB1078A88900F4004040B1322000EB72
:10473000C800B0FBF1F000F00700044308E03220AD
:1047400000EB08106421B0FBF1F000F00F0004430F
:104750002C81BDE8FF874FF4165101600021818054
:10476000C18001810C21418100218181704710B5F8
:1047700002460020108A20F470600B884C88234386
:104780008C882343CC8823431843108210BD00211A
:10479000018041808180C180704721B1828942F4CB
:1047A0000052828104E082894DF6FF731A408281B3
:1047B0007047028B02F47F420283028B0A4302831A
:1047C000704721B1828942F40042828103E08289EC
:1047D000C2F30E028281704721B1828A42F40062E4
:1047E000828204E0828A4FF2FF731A40828270470D
:1047F000C1F308028280704701468888C0F3080030
:104800007047028A4FF6F0731A400282028A0A4306
:104810000282704721B1828942F00202828104E063
:1048200082894FF6FD731A408281704782894FF268
:10483000FF731A40828182890A4382817047028A0B
:104840004FF6DF731A400282028A0A4302827047DF
:1048500021B1028A42F48042028204E0028A4BF6CD
:10486000FF731A4002827047818941F00101818102
:10487000704721B1828A42F00802828204E0828A73
:104880004FF6F7731A4082827047028BD2B20283CE
:10489000028B42EA01220283704721B1828A42F0F0
:1048A0002002828204E0828A4FF6DF731A408282FD
:1048B000704721B1828A42F01002828204E0828A2B
:1048C0004FF6EF731A4082827047828A4FF6FB736D
:1048D0001A408282828A0A438282704721B1828A88
:1048E00042F00202828204E0828A4FF6FD731A408F
:1048F000828270471AB1838A0B43838202E0838AE3
:104900008B4383827047F0B50346002400260025C0
:10491000002040F66A17B94200D100BF1846C1F323
:10492000421401F01F06012707FA06F5012C01D1F8
:104930000C3004E0022C01D1103000E014301AB128
:1049400007682F43076002E00768AF430760F0BDC8
:1049500002460020B1F5007F00D100BF13880B4054
:104960000BB1012000E00020704701F40072B2F5A5
:10497000007F00D100BFCA430280704770B5024675
:10498000002400230025002040F66A16B14200D121
:1049900000BFC1F3421501F01F03012606FA03F31D
:1049A000012D13D19689334017E00000001001401B
:1049B0000044004000480040004C004000500040CF
:1049C0000014014000780040007C0040022D02D11C
:1049D000168A334001E0968A33400C12012606FA0B
:1049E00004F41688344013B10CB1012000E000201B
:1049F00070BD10B50022002340F66A14A14200D118
:104A000000BF0A1201249440A3B2DC43048010BD0D
:104A100010B50446FE48844208D101210846FFF73C
:104A2000DEFC00210120FFF7DAFC9DE0B4F1804FAD
:104A300008D101210846FFF7C1FC00210120FFF742
:104A4000BDFC91E0F348844208D101210220FFF728
:104A5000B5FC00210220FFF7B1FC85E0EE4884425E
:104A600008D101210420FFF7A9FC00210420FFF751
:104A7000A5FC79E0E948844208D101210820FFF72C
:104A80009DFC00210820FFF799FC6DE0E44884427A
:104A900008D101211020FFF791FC00211020FFF721
:104AA0008DFC61E0DF48844208D101212020FFF71E
:104AB00085FC00212020FFF781FC55E0DA48844284
:104AC00008D101210220FFF78AFC00210220FFF714
:104AD00086FC49E0D548844209D101210804FFF74A
:104AE0007EFC00214FF48030FFF779FC3CE0D04899
:104AF000844209D101214804FFF771FC00214FF4E1
:104B00000030FFF76CFC2FE0CA48844209D1012134
:104B10008804FFF764FC00214FF48020FFF75FFC5E
:104B200022E0C548844208D101214020FFF746FC1D
:104B300000214020FFF742FC16E0C048844208D123
:104B400001218020FFF73AFC00218020FFF736FC8E
:104B50000AE0BB48844207D101218015FFF72EFCF3
:104B60000021A015FFF72AFC10BD00220288A84BE7
:104B700098420ED0AC4B98420BD0B0F1804F08D089
:104B8000A44B984205D0A44B984202D0A34B984224
:104B900004D14FF68F731A404B881A43A04B9842AA
:104BA00007D0A04B984204D04FF6FF431A400B8920
:104BB0001A4302804B68C3620B880385944B98426A
:104BC00002D0994B984201D18B7A038601238382CC
:104BD00070474FF0FF314160002101800181418029
:104BE000817270470185828270470A4600210188E0
:104BF0004FF68F731940114301807047416270472F
:104C0000C16270470146486A70470146088D704787
:104C100021B1028842F00202028004E002884FF6CD
:104C2000FD731A400280704721B1028842F00402ED
:104C3000028004E002884FF6FB731A40028070473E
:104C400021B1028842F08002028004E002884FF61F
:104C50007F731A400280704702884FF6F7731A403C
:104C6000028002880A430280704702884FF6FF43A1
:104C70001A40028002880A430280704721B10288EC
:104C800042F00102028004E002884FF6FE731A40EF
:104C90000280704770B5002400220023058C4FF677
:104CA000FE7635400584028C8388048B4FF68F7521
:104CB0002C40B51E2C400D882C43751E2A408D8932
:104CC0002A434D882A43524DA84202D0564DA8424D
:104CD00013D14FF6F7752A40CD892A434FF6FB755D
:104CE0002A408D882A434FF6FF652B404FF6FF552B
:104CF0002B400D8A2B434D8A2B43838004838D6880
:104D00004563028470BD70B5002400220023058C29
:104D10004FF6EF7635400584028C8388048B48F685
:104D2000FF752C404FF6FF452C400D884FF6FF765F
:104D300006EA05252C434FF6DF752A408D8906EAE1
:104D400005152A434D8806EA05152A43304DA84229
:104D500002D0354DA8421DD14FF67F752A40CD892E
:104D60004FF6FF7606EA05152A434FF6BF752A402F
:104D70008D8806EA05152A434FF6FF352B404FF282
:104D8000FF752B400D8A06EA85052B434D8A06EAFE
:104D900085052B43838004838D688563028470BD01
:104DA00070B5002400220023058C4FF6FF663540C5
:104DB0000584028C8388848B4FF68F752C404FF6C8
:104DC000FC752C400D882C434FF6FF552A408D89E9
:104DD0004FF6FF7606EA05252A434D8806EA0525A3
:104DE0002A430B4DA84202D00F4DA84238D14FF2B2
:104DF000FF752A40CD894FF6FF7606EA05252A433E
:104E00004FF6FF352A408D8806EA05252A4319E02A
:104E1000000001400004004000080040000C004079
:104E20000010004000140040000401400040014018
:104E3000004401400048014000180040001C0040B0
:104E4000002000404EF6FF752B404DF6FF752B40BD
:104E50000D8A06EA05152B434D8A06EA05152B43F4
:104E6000838084838D68C563028470BD70B5002221
:104E700000230024058C4EF6FF7635400584038C14
:104E80008488828B48F6FF752A404FF6FF452A40FA
:104E90000D884FF6FF7606EA05252A434DF6FF7585
:104EA0002B408D8906EA05352B434D8806EA0535EA
:104EB0002B43FE4DA84202D0FD4DA84208D14BF62F
:104EC000FF752C400D8A4FF6FF7606EA85152C43B8
:104ED000848082838D680564038470BD0021018015
:104EE0004180818081608181C181018241827047DE
:104EF00070B50346002000241846183001258D4067
:104F0000ACB21D8CA5431D8409B108290AD100EB60
:104F1000610005684FF68F763540056005681543DA
:104F200005600FE00D1FC5F34E052844056848F6DF
:104F3000FF763540056005684FF6FF7606EA0226E3
:104F40003543056070BD4163704781637047C1633D
:104F50007047016470470A460021018B4FF68F733A
:104F600019401143018370470A460021018B48F61E
:104F7000FF7319404FF6FF7303EA022319430183BD
:104F800070470A460021818B4FF68F7319401143F9
:104F9000818370470A460021818B48F6FF731940D0
:104FA0004FF6FF7303EA02231943818370470A46D1
:104FB0000021018B4FF6F7731940114301837047AD
:104FC0000A460021018B4FF2FF7319404FF6FF7321
:104FD00003EA02231943018370470A460021818BAB
:104FE0004FF6F77319401143818370470A46002139
:104FF000818B4FF2FF7319404FF6FF7303EA0223D0
:105000001943818370470A460021018B4FF6FB73D9
:1050100019401143018370470A460021018B4FF666
:10502000FF3319404FF6FF7303EA0223194301834C
:1050300070470A460021818B4FF6FB7319401143DC
:10504000818370470A460021818B4FF6FF33194058
:105050004FF6FF7303EA02231943818370470A4620
:105060000021018B4FF67F73194011430183704774
:105070000A460021018BC1F30E014FF6FF7303EACC
:1050800002231943018370470A460021818B4FF6A2
:105090007F7319401143818370470A460021818B39
:1050A000C1F30E014FF6FF7303EA02231943818314
:1050B00070470A460021018C4FF6FD7319401143D9
:1050C000018470470A460021018C4FF6F77319409E
:1050D0001143018470470A460021018C4FF6DF73AB
:1050E00019404FF6FF7303EA021319430184704716
:1050F0000A460021018C4FF67F7319404FF6FF736B
:1051000003EA02131943018470470A460021018C07
:105110004FF6FF5319404FF6FF7303EA022319437A
:10512000018470470A460021018C4FF2FF73194039
:105130004FF6FF7303EA02231943018470470A46BE
:105140000021018C4DF6FF7319404FF6FF7303EAFF
:10515000023319430184704730B5002301248C4089
:10516000A3B2048C9C430484048C02FA01F5ADB212
:105170002C43048430BD30B5002304248C40A3B2FA
:10518000048C9C430484048C02FA01F5ADB22C43D8
:10519000048430BD828B4FF2FF331A408283828BAE
:1051A0004FF6FF7303EA01231A4382837047F0B579
:1051B0000C461546002100220026078C4EF6FF7C87
:1051C00007EA0C070784818B028C4FF6FF7707EA0A
:1051D000043640F6FF4739404FF6FF7707EA0527C8
:1051E00039434FF6FF7707EA0337394345F6FF7730
:1051F0003A4046F480573A4381830284F0BD828B63
:105200004FF6F3731A408283828B0A43828370477E
:10521000F0B50C461546002100220026078C4FF6FB
:10522000FF6C07EA0C070784818B028C4FF6FF772F
:1052300007EA04264FF60C7739404FF6FF7707EA66
:1052400003172F4339434FF2FF573A4046F4807714
:105250003A4381830284F0BD028B4FF2FF331A4040
:105260000283028B4FF6FF7303EA01231A43028382
:105270007047F0B50C461546002100220026078C29
:105280004FF6EF7C07EA0C070784018B028C4FF680
:10529000FF7707EA041640F6FF4739404FF6FF77DD
:1052A00007EA033739434FF6FF7703E00000014078
:1052B0000004014007EA052739434FF65F773A407B
:1052C00046F010073A4301830284F0BD028B4FF68B
:1052D000F3731A400283028B0A4302837047F0B5CE
:1052E0000C46154600210022068C4FF6FE773E4004
:1052F0000684018B028C4FF60C7631407E1C06EA48
:1053000003162E4331434FF6F576324044F0010642
:10531000324301830284F0BD70B505460C462088F7
:1053200050B92389A28861882846FFF7D8FFE18811
:105330002846FFF7CBFF25E0208804280AD12389DF
:10534000A28861882846FFF794FFE1882846FFF786
:1053500083FF17E0208808280AD12389A288618862
:105360002846FFF755FFE1882846FFF748FF09E088
:105370002389A28861882846FFF719FFE18828461B
:10538000FFF708FF70BD002101804180012181806D
:105390000021C180018170472DE9F04105460C468E
:1053A00000260127608808B9022600E00026A088B0
:1053B000012801D1022700E001272088A0B9238914
:1053C000A28861882846FFF78AFFE1882846FFF710
:1053D0007DFF23893A4631462846FFF74AFFE18898
:1053E0002846FFF739FF13E02389A2886188284601
:1053F000FFF73FFFE1882846FFF72EFF23893A4653
:1054000031462846FFF76BFFE1882846FFF75EFF2D
:10541000BDE8F0810146486B70470146886B7047D4
:105420000146C86B70470146086C70470A884B8874
:105430001A438B881A43CB881A430B891A434B892A
:105440001A438B891A43A0F8442070470021018039
:1054500041808180C180018141818181704731B16A
:10546000B0F8442042F40042A0F8442005E0B0F82F
:105470004420C2F30E02A0F84420704721B1828874
:1054800042F00402828004E082884FF6FB731A40E7
:105490008280704721B1828842F00102828004E05C
:1054A00082884FF6FE731A40828070471AB1838952
:1054B0000B43838102E083898B4383817047818220
:1054C000704702460020138A0B400BB1012000E018
:1054D00000207047CA430282704730B50246002060
:1054E00000230024158A05EA0103958905EA0104D1
:1054F00013B10CB1012000E0002030BDCA4302828C
:10550000704741EA0203A0F8483070471AB1838916
:105510000B43838102E083898B438381704721B1F0
:10552000828842F00802828004E082884FF6F77396
:105530001A408280704701894FF6F872114001814C
:1055400070470A46002101894FF68F7319401143B5
:105550000181704730B504460D4629462046FFF7C5
:10556000F0FF208940F00700208130BD2DE9F04197
:1055700004460D4616461F46602D06D13B460122C5
:1055800031462046FFF775FE05E03B4601223146D5
:105590002046FFF7A4FE29462046FFF7D2FF2089C8
:1055A00040F007002081BDE8F08130B50C460021B5
:1055B0000189C9B24FF6FF7505EA03251543254356
:1055C0002943018130BD2DE9F04105460E461746BD
:1055D0009846002443463A4631462846FFF7E5FF01
:1055E0002C894FF6F870044044F007044FF68F7092
:1055F000044044F070042C81BDE8F081F0B504460D
:105600000D4616461F463B46324629462046FFF7C2
:10561000CCFF208940F480402081F0BD82884FF685
:105620008F731A40828082880A4382807047028981
:105630004FF6F8731A40028102890A4302817047CB
:1056400002894FF67F731A40028102890A43028160
:105650007047F0B50C4615461E4600210022002377
:105660000189028B038C4FF6F877394021434FF6BE
:10567000FC473A4040F201173A434FF6DD773B4092
:105680004FF6FF7707EA06172F433B43018102835A
:105690000384F0BD21B1828842F08002828004E060
:1056A00082884FF67F731A4082807047A0F85010AE
:1056B00070470000002041490860091D0860091D6D
:1056C0000860091D08603E483C4914310860704775
:1056D00000213A498279002A3AD00A4612680368C2
:1056E0009A430B461A600A1D126803689A430B1D01
:1056F0001A60027911440A6803681A430A602F4A43
:105700000832126803689A432C4B08331A601A1D3A
:10571000126803689A43294B0C331A604279102AA5
:105720000ED11A1F126803681A43244B08331A60FB
:105730001A1D126803681A43204B0C331A600DE0DF
:105740001E49427911440A6803681A430A6005E059
:10575000027911440A6803689A430A60704700217D
:10576000016001710C214171002181717047134961
:10577000103109680143114A103211607047014627
:1057800000200E4A143212680A400AB1012000E0DB
:105790000020704709491431086070470146002015
:1057A000064A143212680A400AB1012000E00020C3
:1057B000704702491431086070470000003C014006
:1057C000FFFF7F0008B5684602F0E8F908BD08B59C
:1057D000684602F02DFA08BD38B504466A4608212D
:1057E000204608F015FD38BD10B542480078012864
:1057F00005D102F019F908F097FF02F026F910BD63
:1058000070B504466FF00400FEF7F8F92046E11782
:1058100004EB5171C1F3C701374A1170E11704EB72
:105820005171CD10354800683549B1FBF0F0454362
:10583000324800684FF47A71B1FBF0F031490880CA
:105840004FF0E020006940F002004FF0E0210861D5
:1058500008464561006940F00100086170BD2DE90E
:10586000F047074600264FF0E020D0F81490224879
:10587000007807FB00F8FFF7A5FF4FF0E0208569EF
:1058800011E04FF0E0208469AC420CD0AC4202D26F
:10589000281B064403E0A9EB0400284406442546DF
:1058A000464500D300E0ECE700BFFFF790FFBDE8FE
:1058B000F08770B504460F480078A0B11248007810
:1058C00088B910480088844206DB0E48008894FBA3
:1058D000F0F52846FFF780FF0A48008894FBF0F1B6
:1058E00000FB114084B24FF47A7104FB01F0FFF722
:1058F000B6FF70BD81010020400100203434010852
:1059000040420F00420100208001002000BF70478C
:1059100000BFCD4A128802F04002002AF9D0C2B27C
:10592000C94B9A80704710B588B0044601210846DB
:10593000FEF7A6FC01211020FEF7FCFC072209213E
:10594000C248FEF78AFA07220A21C048FEF785FA04
:105950004FF4C060069002208DF81C008DF81D00E9
:1059600000208DF81E0001208DF81F0006A9B74801
:10597000FEF7E8F902940020ADF80C00ADF80E0037
:10598000ADF81000ADF814000C20ADF8120002A91B
:10599000AD48FEF77AFE0121AB48FEF7FEFE01227C
:1059A00040F22551A848FEF7AEFF25208DF80400EF
:1059B00003208DF805008DF8060001208DF8070002
:1059C00001A8FEF7CEF808B010BD002004E00021C9
:1059D0009F4A1154411CC8B20D28F8DB00219D4A92
:1059E0001170704710B540F225519748FEF7C6FF79
:1059F00058B39548FEF700FF9549964A12788854A7
:105A000094480078401C93490870914800784728D2
:105A10000BD08F480078562807D08D48007853283F
:105A200003D08B480078502810D18A480078401E57
:105A30008749085C0A280BD186480078801E085CDC
:105A40000D2805D100208449087001E0FFF7BDFF53
:105A500010BD00BF7C49098801F040010029F9D040
:105A600079498880704700B502461078FFF7F1FF4A
:105A70005078FFF7EEFF00BD00B5024603E0107856
:105A8000FFF7E7FF521C10780028F8D100BD00B5E1
:105A9000024603E01078FFF7DCFF521C1078002864
:105AA000F8D12020FFF7D5FF00BD00B50246104613
:105AB000FFF7CFFF2020FFF7CCFF00BD1FB503A8E5
:105AC00008F004FE04460020009001900290224657
:105AD00062A1684609F0DAFC6846FFF7CDFF60A0D6
